{
  "address": "0x4660E8f7f44a2d57900c7dEe4345EB1D738311fF",
  "abi": [
    {
      "anonymous": false,
      "inputs": [
        {
          "indexed": false,
          "internalType": "address",
          "name": "previousAdmin",
          "type": "address"
        },
        {
          "indexed": false,
          "internalType": "address",
          "name": "newAdmin",
          "type": "address"
        }
      ],
      "name": "AdminChanged",
      "type": "event"
    },
    {
      "anonymous": false,
      "inputs": [
        {
          "indexed": true,
          "internalType": "address",
          "name": "beacon",
          "type": "address"
        }
      ],
      "name": "BeaconUpgraded",
      "type": "event"
    },
    {
      "anonymous": false,
      "inputs": [
        {
          "indexed": true,
          "internalType": "address",
          "name": "_by",
          "type": "address"
        },
        {
          "indexed": false,
          "internalType": "uint256",
          "name": "_oldVal",
          "type": "uint256"
        },
        {
          "indexed": false,
          "internalType": "uint256",
          "name": "_newVal",
          "type": "uint256"
        }
      ],
      "name": "OldAnswerThresholdUpdated",
      "type": "event"
    },
    {
      "anonymous": false,
      "inputs": [
        {
          "indexed": true,
          "internalType": "address",
          "name": "_by",
          "type": "address"
        },
        {
          "indexed": true,
          "internalType": "address",
          "name": "_to",
          "type": "address"
        },
        {
          "indexed": false,
          "internalType": "uint256",
          "name": "_requested",
          "type": "uint256"
        },
        {
          "indexed": false,
          "internalType": "uint256",
          "name": "_actual",
          "type": "uint256"
        }
      ],
      "name": "RoleUpdated",
      "type": "event"
    },
    {
      "anonymous": false,
      "inputs": [
        {
          "indexed": true,
          "internalType": "address",
          "name": "implementation",
          "type": "address"
        }
      ],
      "name": "Upgraded",
      "type": "event"
    },
    {
      "inputs": [],
      "name": "ROLE_ACCESS_MANAGER",
      "outputs": [
        {
          "internalType": "uint256",
          "name": "",
          "type": "uint256"
        }
      ],
      "stateMutability": "view",
      "type": "function"
    },
    {
      "inputs": [],
      "name": "ROLE_PRICE_ORACLE_MANAGER",
      "outputs": [
        {
          "internalType": "uint32",
          "name": "",
          "type": "uint32"
        }
      ],
      "stateMutability": "view",
      "type": "function"
    },
    {
      "inputs": [],
      "name": "ROLE_UPGRADE_MANAGER",
      "outputs": [
        {
          "internalType": "uint256",
          "name": "",
          "type": "uint256"
        }
      ],
      "stateMutability": "view",
      "type": "function"
    },
    {
      "inputs": [],
      "name": "aggregator",
      "outputs": [
        {
          "internalType": "contract AggregatorV3Interface",
          "name": "",
          "type": "address"
        }
      ],
      "stateMutability": "view",
      "type": "function"
    },
    {
      "inputs": [
        {
          "internalType": "uint256",
          "name": "ethOut",
          "type": "uint256"
        }
      ],
      "name": "ethToIlv",
      "outputs": [
        {
          "internalType": "uint256",
          "name": "ilvIn",
          "type": "uint256"
        }
      ],
      "stateMutability": "view",
      "type": "function"
    },
    {
      "inputs": [
        {
          "internalType": "address",
          "name": "operator",
          "type": "address"
        },
        {
          "internalType": "uint256",
          "name": "target",
          "type": "uint256"
        },
        {
          "internalType": "uint256",
          "name": "desired",
          "type": "uint256"
        }
      ],
      "name": "evaluateBy",
      "outputs": [
        {
          "internalType": "uint256",
          "name": "",
          "type": "uint256"
        }
      ],
      "stateMutability": "view",
      "type": "function"
    },
    {
      "inputs": [],
      "name": "features",
      "outputs": [
        {
          "internalType": "uint256",
          "name": "",
          "type": "uint256"
        }
      ],
      "stateMutability": "view",
      "type": "function"
    },
    {
      "inputs": [],
      "name": "getImplementation",
      "outputs": [
        {
          "internalType": "address",
          "name": "",
          "type": "address"
        }
      ],
      "stateMutability": "view",
      "type": "function"
    },
    {
      "inputs": [
        {
          "internalType": "uint256",
          "name": "required",
          "type": "uint256"
        }
      ],
      "name": "isFeatureEnabled",
      "outputs": [
        {
          "internalType": "bool",
          "name": "",
          "type": "bool"
        }
      ],
      "stateMutability": "view",
      "type": "function"
    },
    {
      "inputs": [
        {
          "internalType": "address",
          "name": "operator",
          "type": "address"
        },
        {
          "internalType": "uint256",
          "name": "required",
          "type": "uint256"
        }
      ],
      "name": "isOperatorInRole",
      "outputs": [
        {
          "internalType": "bool",
          "name": "",
          "type": "bool"
        }
      ],
      "stateMutability": "view",
      "type": "function"
    },
    {
      "inputs": [
        {
          "internalType": "uint256",
          "name": "required",
          "type": "uint256"
        }
      ],
      "name": "isSenderInRole",
      "outputs": [
        {
          "internalType": "bool",
          "name": "",
          "type": "bool"
        }
      ],
      "stateMutability": "view",
      "type": "function"
    },
    {
      "inputs": [],
      "name": "now256",
      "outputs": [
        {
          "internalType": "uint256",
          "name": "",
          "type": "uint256"
        }
      ],
      "stateMutability": "view",
      "type": "function"
    },
    {
      "inputs": [],
      "name": "oldAnswerThreshold",
      "outputs": [
        {
          "internalType": "uint256",
          "name": "",
          "type": "uint256"
        }
      ],
      "stateMutability": "view",
      "type": "function"
    },
    {
      "inputs": [
        {
          "internalType": "address",
          "name": "_aggregator",
          "type": "address"
        }
      ],
      "name": "postConstruct",
      "outputs": [],
      "stateMutability": "nonpayable",
      "type": "function"
    },
    {
      "inputs": [
        {
          "internalType": "uint256",
          "name": "_oldAnswerThreshold",
          "type": "uint256"
        }
      ],
      "name": "setOldAnswerThreshold",
      "outputs": [],
      "stateMutability": "nonpayable",
      "type": "function"
    },
    {
      "inputs": [
        {
          "internalType": "bytes4",
          "name": "interfaceID",
          "type": "bytes4"
        }
      ],
      "name": "supportsInterface",
      "outputs": [
        {
          "internalType": "bool",
          "name": "",
          "type": "bool"
        }
      ],
      "stateMutability": "view",
      "type": "function"
    },
    {
      "inputs": [
        {
          "internalType": "uint256",
          "name": "_mask",
          "type": "uint256"
        }
      ],
      "name": "updateFeatures",
      "outputs": [],
      "stateMutability": "nonpayable",
      "type": "function"
    },
    {
      "inputs": [
        {
          "internalType": "address",
          "name": "operator",
          "type": "address"
        },
        {
          "internalType": "uint256",
          "name": "role",
          "type": "uint256"
        }
      ],
      "name": "updateRole",
      "outputs": [],
      "stateMutability": "nonpayable",
      "type": "function"
    },
    {
      "inputs": [
        {
          "internalType": "address",
          "name": "newImplementation",
          "type": "address"
        }
      ],
      "name": "upgradeTo",
      "outputs": [],
      "stateMutability": "nonpayable",
      "type": "function"
    },
    {
      "inputs": [
        {
          "internalType": "address",
          "name": "newImplementation",
          "type": "address"
        },
        {
          "internalType": "bytes",
          "name": "data",
          "type": "bytes"
        }
      ],
      "name": "upgradeToAndCall",
      "outputs": [],
      "stateMutability": "payable",
      "type": "function"
    },
    {
      "inputs": [
        {
          "internalType": "address",
          "name": "",
          "type": "address"
        }
      ],
      "name": "userRoles",
      "outputs": [
        {
          "internalType": "uint256",
          "name": "",
          "type": "uint256"
        }
      ],
      "stateMutability": "view",
      "type": "function"
    }
  ],
  "transactionHash": "0xf155bc281f105c3b2b267efa2ecfac265b8e6412b7ff6b13b305b76ac81e9f88",
  "args": [],
  "solcInputHash": "a10a8b7c984c7cfc164097f35824b88a",
  "bytecode": "0x60a06040523060805234801561001457600080fd5b506080516116196100456000396000818161078f015281816107cf01528181610858015261089801526116196000f3fe60806040526004361061012a5760003560e01c806374d5e100116100ab578063ae682e2e1161006f578063ae682e2e14610335578063c688d6931461034d578063d5bb7f671461036d578063f2f4ba1f1461038d578063f822d5aa146103b9578063fcc2c078146103d957600080fd5b806374d5e1001461029b5780639b50aa4e146102c8578063aaf10f42146102e8578063ae5b102e146102fd578063ae60bda41461031d57600080fd5b806333482021116100f257806333482021146102155780633659cfe6146102355780634ce0f9a6146102555780634f1ef28614610268578063725f36261461027b57600080fd5b806301ffc9a71461012f57806312e5acaa14610175578063245a7bfc146101995780632b521416146101d157806331576ad5146101f3575b600080fd5b34801561013b57600080fd5b5061016061014a366004611096565b6001600160e01b031916634da8552760e11b1490565b60405190151581526020015b60405180910390f35b34801561018157600080fd5b5061018b60985481565b60405190815260200161016c565b3480156101a557600080fd5b506097546101b9906001600160a01b031681565b6040516001600160a01b03909116815260200161016c565b3480156101dd57600080fd5b503060009081526065602052604090205461018b565b3480156101ff57600080fd5b5061021361020e3660046110dc565b6103f9565b005b34801561022157600080fd5b506102136102303660046110f7565b61068d565b34801561024157600080fd5b506102136102503660046110dc565b610784565b34801561026157600080fd5b504261018b565b610213610276366004611126565b61084d565b34801561028757600080fd5b506101606102963660046110f7565b610903565b3480156102a757600080fd5b5061018b6102b63660046110dc565b60656020526000908152604090205481565b3480156102d457600080fd5b5061018b6102e33660046110f7565b61091e565b3480156102f457600080fd5b506101b9610af8565b34801561030957600080fd5b506102136103183660046111e8565b610b07565b34801561032957600080fd5b5061018b600160fe1b81565b34801561034157600080fd5b5061018b600160ff1b81565b34801561035957600080fd5b506101606103683660046111e8565b610bba565b34801561037957600080fd5b506102136103883660046110f7565b610bdf565b34801561039957600080fd5b506103a46201000081565b60405163ffffffff909116815260200161016c565b3480156103c557600080fd5b5061018b6103d4366004611212565b610be9565b3480156103e557600080fd5b506101606103f43660046110f7565b610c14565b600054610100900460ff166104145760005460ff1615610418565b303b155b61043d5760405162461bcd60e51b815260040161043490611245565b60405180910390fd5b600054610100900460ff1615801561045f576000805461ffff19166101011790555b6001600160a01b0382166104b55760405162461bcd60e51b815260206004820152601d60248201527f61676772656761746f722061646472657373206973206e6f74207365740000006044820152606401610434565b609780546001600160a01b0319166001600160a01b0384169081179091556201a5e06098556040805163313ce56760e01b815290516000929163313ce5679160048083019260209291908290030181865afa158015610518573d6000803e3d6000fd5b505050506040513d601f19601f8201168201806040525081019061053c9190611293565b90506000806000806000609760009054906101000a90046001600160a01b03166001600160a01b031663feaf968c6040518163ffffffff1660e01b815260040160a060405180830381865afa158015610599573d6000803e3d6000fd5b505050506040513d601f19601f820116820180604052508101906105bd91906112cd565b9450945094509450945060008660ff161180156105e357506000856001600160501b0316115b80156105ef5750600084135b80156105fb5750600083115b80156106075750600082115b801561061c57506000816001600160501b0316115b6106685760405162461bcd60e51b815260206004820152601e60248201527f756e65787065637465642061676772656761746f7220726573706f6e736500006044820152606401610434565b61067133610c20565b5050505050508015610689576000805461ff00191690555b5050565b61069962010000610c14565b6106b55760405162461bcd60e51b81526004016104349061131d565b610e1081116106fa5760405162461bcd60e51b81526020600482015260116024820152707468726573686f6c6420746f6f206c6f7760781b6044820152606401610434565b62093a8081106107415760405162461bcd60e51b81526020600482015260126024820152710e8d0e4cae6d0ded8c840e8dede40d0d2ced60731b6044820152606401610434565b609854604080519182526020820183905233917fdb2071e8c3304bdd7d56b3e58c5096520380c1ece076cc01f07eea15d4febc83910160405180910390a2609855565b306001600160a01b037f00000000000000000000000000000000000000000000000000000000000000001614156107cd5760405162461bcd60e51b815260040161043490611344565b7f00000000000000000000000000000000000000000000000000000000000000006001600160a01b03166107ff610ceb565b6001600160a01b0316146108255760405162461bcd60e51b815260040161043490611390565b61082e81610d19565b6040805160008082526020820190925261084a91839190610d42565b50565b306001600160a01b037f00000000000000000000000000000000000000000000000000000000000000001614156108965760405162461bcd60e51b815260040161043490611344565b7f00000000000000000000000000000000000000000000000000000000000000006001600160a01b03166108c8610ceb565b6001600160a01b0316146108ee5760405162461bcd60e51b815260040161043490611390565b6108f782610d19565b61068982826001610d42565b30600090815260656020526040812054821682145b92915050565b600080600080600080609760009054906101000a90046001600160a01b03166001600160a01b031663feaf968c6040518163ffffffff1660e01b815260040160a060405180830381865afa15801561097a573d6000803e3d6000fd5b505050506040513d601f19601f8201168201806040525081019061099e91906112cd565b94509450945094509450806001600160501b0316856001600160501b03161480156109c95750818311155b80156109d55750428211155b610a125760405162461bcd60e51b815260206004820152600e60248201526d34b73b30b634b21030b739bbb2b960911b6044820152606401610434565b609854610a1f90426113f2565b8211610a615760405162461bcd60e51b8152602060048201526011602482015270185b9cddd95c881a5cc81d1bdbc81bdb19607a1b6044820152606401610434565b6097546040805163313ce56760e01b8152905186926001600160a01b03169163313ce5679160048083019260209291908290030181865afa158015610aaa573d6000803e3d6000fd5b505050506040513d601f19601f82011682018060405250810190610ace9190611293565b610ad990600a6114ed565b610ae390896114fc565b610aed919061151b565b979650505050505050565b6000610b02610ceb565b905090565b610b14600160ff1b610c14565b610b305760405162461bcd60e51b81526004016104349061131d565b6001600160a01b038216600090815260656020526040902054610b5590339083610be9565b6001600160a01b0383166000818152606560205260409081902083905551909133917f5a10526456f5116c0b7b80582c217d666243fd51b6a2d92c8011e601c2462e5f91610bae91869190918252602082015260400190565b60405180910390a35050565b6001600160a01b038216600090815260656020526040812054821682145b9392505050565b61084a3082610b07565b6001600160a01b03929092166000908152606560205260409020546000198084188216189216171690565b60006109183383610bba565b600054610100900460ff16610c3b5760005460ff1615610c3f565b303b155b610c5b5760405162461bcd60e51b815260040161043490611245565b600054610100900460ff16158015610c7d576000805461ffff19166101011790555b6001600160a01b0382166000818152606560209081526040918290206000199081905582518181529182015233917f5a10526456f5116c0b7b80582c217d666243fd51b6a2d92c8011e601c2462e5f910160405180910390a38015610689576000805461ff00191690555050565b7f360894a13ba1a3210667c828492db98dca3e2076cc3735a920a3ca505d382bbc546001600160a01b031690565b610d26600160fe1b610c14565b61084a5760405162461bcd60e51b81526004016104349061131d565b6000610d4c610ceb565b9050610d5784610e8d565b600083511180610d645750815b15610d7557610d738484610f32565b505b7f4910fdfa16fed3260ed0e7147f7cc6da11a60208b5b9406d12a635614ffd9143805460ff16610e8657805460ff191660011781556040516001600160a01b0383166024820152610df490869060440160408051601f198184030181529190526020810180516001600160e01b0316631b2ce7f360e11b179052610f32565b50805460ff19168155610e05610ceb565b6001600160a01b0316826001600160a01b031614610e7d5760405162461bcd60e51b815260206004820152602f60248201527f45524331393637557067726164653a207570677261646520627265616b73206660448201526e75727468657220757067726164657360881b6064820152608401610434565b610e868561101d565b5050505050565b803b610ef15760405162461bcd60e51b815260206004820152602d60248201527f455243313936373a206e657720696d706c656d656e746174696f6e206973206e60448201526c1bdd08184818dbdb9d1c9858dd609a1b6064820152608401610434565b7f360894a13ba1a3210667c828492db98dca3e2076cc3735a920a3ca505d382bbc80546001600160a01b0319166001600160a01b0392909216919091179055565b6060823b610f915760405162461bcd60e51b815260206004820152602660248201527f416464726573733a2064656c65676174652063616c6c20746f206e6f6e2d636f6044820152651b9d1c9858dd60d21b6064820152608401610434565b600080846001600160a01b031684604051610fac919061156d565b600060405180830381855af49150503d8060008114610fe7576040519150601f19603f3d011682016040523d82523d6000602084013e610fec565b606091505b509150915061101482826040518060600160405280602781526020016115bd6027913961105d565b95945050505050565b61102681610e8d565b6040516001600160a01b038216907fbc7cd75a20ee27fd9adebab32041f755214dbc6bffa90cc0225b39da2e5c2d3b90600090a250565b6060831561106c575081610bd8565b82511561107c5782518084602001fd5b8160405162461bcd60e51b81526004016104349190611589565b6000602082840312156110a857600080fd5b81356001600160e01b031981168114610bd857600080fd5b80356001600160a01b03811681146110d757600080fd5b919050565b6000602082840312156110ee57600080fd5b610bd8826110c0565b60006020828403121561110957600080fd5b5035919050565b634e487b7160e01b600052604160045260246000fd5b6000806040838503121561113957600080fd5b611142836110c0565b9150602083013567ffffffffffffffff8082111561115f57600080fd5b818501915085601f83011261117357600080fd5b81358181111561118557611185611110565b604051601f8201601f19908116603f011681019083821181831017156111ad576111ad611110565b816040528281528860208487010111156111c657600080fd5b8260208601602083013760006020848301015280955050505050509250929050565b600080604083850312156111fb57600080fd5b611204836110c0565b946020939093013593505050565b60008060006060848603121561122757600080fd5b611230846110c0565b95602085013595506040909401359392505050565b6020808252602e908201527f496e697469616c697a61626c653a20636f6e747261637420697320616c72656160408201526d191e481a5b9a5d1a585b1a5e995960921b606082015260800190565b6000602082840312156112a557600080fd5b815160ff81168114610bd857600080fd5b80516001600160501b03811681146110d757600080fd5b600080600080600060a086880312156112e557600080fd5b6112ee866112b6565b9450602086015193506040860151925060608601519150611311608087016112b6565b90509295509295909350565b6020808252600d908201526c1858d8d95cdcc819195b9a5959609a1b604082015260600190565b6020808252602c908201527f46756e6374696f6e206d7573742062652063616c6c6564207468726f7567682060408201526b19195b1959d85d1958d85b1b60a21b606082015260800190565b6020808252602c908201527f46756e6374696f6e206d7573742062652063616c6c6564207468726f7567682060408201526b6163746976652070726f787960a01b606082015260800190565b634e487b7160e01b600052601160045260246000fd5b600082821015611404576114046113dc565b500390565b600181815b8085111561144457816000190482111561142a5761142a6113dc565b8085161561143757918102915b93841c939080029061140e565b509250929050565b60008261145b57506001610918565b8161146857506000610918565b816001811461147e5760028114611488576114a4565b6001915050610918565b60ff841115611499576114996113dc565b50506001821b610918565b5060208310610133831016604e8410600b84101617156114c7575081810a610918565b6114d18383611409565b80600019048211156114e5576114e56113dc565b029392505050565b6000610bd860ff84168361144c565b6000816000190483118215151615611516576115166113dc565b500290565b60008261153857634e487b7160e01b600052601260045260246000fd5b500490565b60005b83811015611558578181015183820152602001611540565b83811115611567576000848401525b50505050565b6000825161157f81846020870161153d565b9190910192915050565b60208152600082518060208401526115a881604085016020870161153d565b601f01601f1916919091016040019291505056fe416464726573733a206c6f772d6c6576656c2064656c65676174652063616c6c206661696c6564a26469706673582212200ff148c3fe00800044693bb4936e8103e4209869fade6aa212b35815c0e5178864736f6c634300080b0033",
  "devdoc": {
    "author": "Basil Gorin",
    "events": {
      "OldAnswerThresholdUpdated(address,uint256,uint256)": {
        "details": "Fired in setOldAnswerThreshold()",
        "params": {
          "_by": "an address which executed update",
          "_newVal": "new oldAnswerThreshold value",
          "_oldVal": "old oldAnswerThreshold value"
        }
      }
    },
    "kind": "dev",
    "methods": {
      "ethToIlv(uint256)": {
        "details": "Implementation must guarantee not to return zero, absurdly small      or big values, it must guarantee the price is up to date with some      reasonable update interval threshold",
        "params": {
          "ethOut": "amount of ETH sale contract is expecting to get"
        },
        "returns": {
          "ilvIn": "amount of sILV sale contract should accept instead"
        }
      },
      "evaluateBy(address,uint256,uint256)": {
        "details": "Calculated based on:      1) operator's own permission set read from userRoles[operator]      2) target permission set - what is already set on the target      3) desired permission set - what do we want set target toCorner cases:      1) Operator is super admin and its permission set is `FULL_PRIVILEGES_MASK`:        `desired` bitset is returned regardless of the `target` permission set value        (what operator sets is what they get)      2) Operator with no permissions (zero bitset):        `target` bitset is returned regardless of the `desired` value        (operator has no authority and cannot modify anything)Example:      Consider an operator with the permissions bitmask     00001111      is about to modify the target permission set          01010101      Operator wants to set that permission set to          00110011      Based on their role, an operator has the permissions      to update only lowest 4 bits on the target, meaning that      high 4 bits of the target set in this example is left      unchanged and low 4 bits get changed as desired:      01010011",
        "params": {
          "desired": "desired set of permissions operator would like to set",
          "operator": "address of the contract operator which is about to set the permissions",
          "target": "input set of permissions to operator is going to modify"
        },
        "returns": {
          "_0": "resulting set of permissions given operator will set"
        }
      },
      "features()": {
        "details": "Effectively reads userRoles role for the contract itself",
        "returns": {
          "_0": "256-bit bitmask of the features enabled"
        }
      },
      "getImplementation()": {
        "returns": {
          "_0": "the current implementation address"
        }
      },
      "isFeatureEnabled(uint256)": {
        "params": {
          "required": "set of features to check against"
        },
        "returns": {
          "_0": "true if all the features requested are enabled, false otherwise"
        }
      },
      "isOperatorInRole(address,uint256)": {
        "params": {
          "operator": "address of the user to check role for",
          "required": "set of permissions (role) to check"
        },
        "returns": {
          "_0": "true if all the permissions requested are enabled, false otherwise"
        }
      },
      "isSenderInRole(uint256)": {
        "params": {
          "required": "set of permissions (role) to check against"
        },
        "returns": {
          "_0": "true if all the permissions requested are enabled, false otherwise"
        }
      },
      "now256()": {
        "details": "Testing time-dependent functionality may be difficult;      we override time in the helper test smart contract (mock)",
        "returns": {
          "_0": "`block.timestamp` in mainnet, custom values in testnets (if overridden)"
        }
      },
      "postConstruct(address)": {
        "details": "\"Constructor replacement\" for upgradeable, must be execute immediately after deployment      see https://docs.openzeppelin.com/upgrades-plugins/1.x/writing-upgradeable#initializers",
        "params": {
          "_aggregator": "Chainlink ILV/ETH price feed aggregator address"
        }
      },
      "setOldAnswerThreshold(uint256)": {
        "params": {
          "_oldAnswerThreshold": "`oldAnswerThreshold` value to set"
        }
      },
      "supportsInterface(bytes4)": {
        "details": "Interface identification is specified in ERC-165.      This function uses less than 30,000 gas.",
        "params": {
          "interfaceID": "The interface identifier, as specified in ERC-165"
        },
        "returns": {
          "_0": "`true` if the contract implements `interfaceID` and      `interfaceID` is not 0xffffffff, `false` otherwise"
        }
      },
      "updateFeatures(uint256)": {
        "details": "Requires transaction sender to have `ROLE_ACCESS_MANAGER` permissionFunction is left for backward compatibility with older versions",
        "params": {
          "_mask": "bitmask representing a set of features to enable/disable"
        }
      },
      "updateRole(address,uint256)": {
        "details": "Setting role to zero is equivalent to removing an all permissionsSetting role to `FULL_PRIVILEGES_MASK` is equivalent to      copying senders' permissions (role) to the userRequires transaction sender to have `ROLE_ACCESS_MANAGER` permission",
        "params": {
          "operator": "address of a user to alter permissions for or zero      to alter global features of the smart contract",
          "role": "bitmask representing a set of permissions to      enable/disable for a user specified"
        }
      },
      "upgradeTo(address)": {
        "details": "Upgrade the implementation of the proxy to `newImplementation`. Calls {_authorizeUpgrade}. Emits an {Upgraded} event."
      },
      "upgradeToAndCall(address,bytes)": {
        "details": "Upgrade the implementation of the proxy to `newImplementation`, and subsequently execute the function call encoded in `data`. Calls {_authorizeUpgrade}. Emits an {Upgraded} event."
      }
    },
    "stateVariables": {
      "ROLE_PRICE_ORACLE_MANAGER": {
        "details": "Role ROLE_PRICE_ORACLE_MANAGER allows updating the `oldAnswerThreshold` value      (executing `setOldAnswerThreshold` function)"
      }
    },
    "title": "Chainlink Price Feed Aggregator based Land Sale Price Oracle",
    "version": 1
  },
  "userdoc": {
    "kind": "user",
    "methods": {
      "ROLE_ACCESS_MANAGER()": {
        "notice": "Access manager is responsible for assigning the roles to users,      enabling/disabling global features of the smart contractAccess manager can add, remove and update user roles,      remove and update global features"
      },
      "ROLE_PRICE_ORACLE_MANAGER()": {
        "notice": "Price Oracle manager is responsible for updating `oldAnswerThreshold` value,      and other price oracle configuration values in the future"
      },
      "ROLE_UPGRADE_MANAGER()": {
        "notice": "Upgrade manager is responsible for smart contract upgrades,      see https://docs.openzeppelin.com/contracts/4.x/api/proxy#UUPSUpgradeable      see https://docs.openzeppelin.com/contracts/4.x/upgradeable"
      },
      "aggregator()": {
        "notice": "Chainlink ILV/ETH price feed aggregator maintains ILV/ETH price feed"
      },
      "ethToIlv(uint256)": {
        "notice": "Powers the ETH/ILV Land token price conversion, used when      selling the land for sILV to determine how much sILV to accept      instead of the nominated ETH priceNote that sILV price is considered to be equal to ILV price"
      },
      "evaluateBy(address,uint256,uint256)": {
        "notice": "Determines the permission bitmask an operator can set on the      target permission setUsed to calculate the permission bitmask to be set when requested     in `updateRole` and `updateFeatures` functions"
      },
      "features()": {
        "notice": "Retrieves globally set of features enabled"
      },
      "getImplementation()": {
        "notice": "Returns an address of the implementation smart contract,      see ERC1967Upgrade._getImplementation()"
      },
      "isFeatureEnabled(uint256)": {
        "notice": "Checks if requested set of features is enabled globally on the contract"
      },
      "isOperatorInRole(address,uint256)": {
        "notice": "Checks if operator has all the permissions (role) required"
      },
      "isSenderInRole(uint256)": {
        "notice": "Checks if transaction sender `msg.sender` has all the permissions required"
      },
      "oldAnswerThreshold()": {
        "notice": "When communicating with Chainlink ILV/ETH price feed, we verify how old      the IV/ETH price is, and if it is older than `oldAnswerThreshold`, the answer      is treated as old and is not used: `ethToIlv` conversion function throws in this case"
      },
      "setOldAnswerThreshold(uint256)": {
        "notice": "Restricted access function to update `oldAnswerThreshold` value, used       in `ethToIlv` conversion function to determine if Chainlink ILV/ETH price feed       returns the value fresh enough to be usedNote: `ethToIlv` conversion function throws if Chainlink ILV/ETH price feed      answer is older then `oldAnswerThreshold` valueChainlink is expected to update ILV/ETH price at least one per day (24 hours)      therefore `oldAnswerThreshold` should be kept bigger than 24 hours"
      },
      "supportsInterface(bytes4)": {
        "notice": "Query if a contract implements an interface"
      },
      "updateFeatures(uint256)": {
        "notice": "Updates set of the globally enabled features (`features`),      taking into account sender's permissions"
      },
      "updateRole(address,uint256)": {
        "notice": "Updates set of permissions (role) for a given user,      taking into account sender's permissions."
      },
      "userRoles(address)": {
        "notice": "Privileged addresses with defined roles/permissionsIn the context of ERC20/ERC721 tokens these can be permissions to      allow minting or burning tokens, transferring on behalf and so on"
      }
    },
    "notice": "LandSalePriceOracle implementation based on ILV/ETH Chainlink price feeds,      see https://docs.chain.link/docs/ethereum-addresses/      see https://docs.chain.link/docs/using-chainlink-reference-contracts/",
    "version": 1
  },
  "storageLayout": {
    "storage": [
      {
        "astId": 460,
        "contract": "contracts/protocol/LandSalePriceOracleV1.sol:LandSalePriceOracleV1",
        "label": "_initialized",
        "offset": 0,
        "slot": "0",
        "type": "t_bool"
      },
      {
        "astId": 463,
        "contract": "contracts/protocol/LandSalePriceOracleV1.sol:LandSalePriceOracleV1",
        "label": "_initializing",
        "offset": 1,
        "slot": "0",
        "type": "t_bool"
      },
      {
        "astId": 442,
        "contract": "contracts/protocol/LandSalePriceOracleV1.sol:LandSalePriceOracleV1",
        "label": "__gap",
        "offset": 0,
        "slot": "1",
        "type": "t_array(t_uint256)50_storage"
      },
      {
        "astId": 637,
        "contract": "contracts/protocol/LandSalePriceOracleV1.sol:LandSalePriceOracleV1",
        "label": "__gap",
        "offset": 0,
        "slot": "51",
        "type": "t_array(t_uint256)50_storage"
      },
      {
        "astId": 14399,
        "contract": "contracts/protocol/LandSalePriceOracleV1.sol:LandSalePriceOracleV1",
        "label": "userRoles",
        "offset": 0,
        "slot": "101",
        "type": "t_mapping(t_address,t_uint256)"
      },
      {
        "astId": 14404,
        "contract": "contracts/protocol/LandSalePriceOracleV1.sol:LandSalePriceOracleV1",
        "label": "__gap",
        "offset": 0,
        "slot": "102",
        "type": "t_array(t_uint256)49_storage"
      },
      {
        "astId": 11770,
        "contract": "contracts/protocol/LandSalePriceOracleV1.sol:LandSalePriceOracleV1",
        "label": "aggregator",
        "offset": 0,
        "slot": "151",
        "type": "t_contract(AggregatorV3Interface)45"
      },
      {
        "astId": 11773,
        "contract": "contracts/protocol/LandSalePriceOracleV1.sol:LandSalePriceOracleV1",
        "label": "oldAnswerThreshold",
        "offset": 0,
        "slot": "152",
        "type": "t_uint256"
      }
    ],
    "types": {
      "t_address": {
        "encoding": "inplace",
        "label": "address",
        "numberOfBytes": "20"
      },
      "t_array(t_uint256)49_storage": {
        "base": "t_uint256",
        "encoding": "inplace",
        "label": "uint256[49]",
        "numberOfBytes": "1568"
      },
      "t_array(t_uint256)50_storage": {
        "base": "t_uint256",
        "encoding": "inplace",
        "label": "uint256[50]",
        "numberOfBytes": "1600"
      },
      "t_bool": {
        "encoding": "inplace",
        "label": "bool",
        "numberOfBytes": "1"
      },
      "t_contract(AggregatorV3Interface)45": {
        "encoding": "inplace",
        "label": "contract AggregatorV3Interface",
        "numberOfBytes": "20"
      },
      "t_mapping(t_address,t_uint256)": {
        "encoding": "mapping",
        "key": "t_address",
        "label": "mapping(address => uint256)",
        "numberOfBytes": "32",
        "value": "t_uint256"
      },
      "t_uint256": {
        "encoding": "inplace",
        "label": "uint256",
        "numberOfBytes": "32"
      }
    }
  }
}