{
  "address": "0xBB3b3317d48e949b5d26504F91106613a11182a9",
  "abi": [
    {
      "inputs": [],
      "name": "answerMocked",
      "outputs": [
        {
          "internalType": "int256",
          "name": "",
          "type": "int256"
        }
      ],
      "stateMutability": "view",
      "type": "function"
    },
    {
      "inputs": [],
      "name": "answeredInRoundMocked",
      "outputs": [
        {
          "internalType": "uint80",
          "name": "",
          "type": "uint80"
        }
      ],
      "stateMutability": "view",
      "type": "function"
    },
    {
      "inputs": [],
      "name": "decimals",
      "outputs": [
        {
          "internalType": "uint8",
          "name": "",
          "type": "uint8"
        }
      ],
      "stateMutability": "pure",
      "type": "function"
    },
    {
      "inputs": [],
      "name": "description",
      "outputs": [
        {
          "internalType": "string",
          "name": "",
          "type": "string"
        }
      ],
      "stateMutability": "pure",
      "type": "function"
    },
    {
      "inputs": [],
      "name": "ethOut",
      "outputs": [
        {
          "internalType": "uint256",
          "name": "",
          "type": "uint256"
        }
      ],
      "stateMutability": "view",
      "type": "function"
    },
    {
      "inputs": [
        {
          "internalType": "uint80",
          "name": "_roundId",
          "type": "uint80"
        }
      ],
      "name": "getRoundData",
      "outputs": [
        {
          "internalType": "uint80",
          "name": "roundId",
          "type": "uint80"
        },
        {
          "internalType": "int256",
          "name": "answer",
          "type": "int256"
        },
        {
          "internalType": "uint256",
          "name": "startedAt",
          "type": "uint256"
        },
        {
          "internalType": "uint256",
          "name": "updatedAt",
          "type": "uint256"
        },
        {
          "internalType": "uint80",
          "name": "answeredInRound",
          "type": "uint80"
        }
      ],
      "stateMutability": "view",
      "type": "function"
    },
    {
      "inputs": [],
      "name": "ilvIn",
      "outputs": [
        {
          "internalType": "uint256",
          "name": "",
          "type": "uint256"
        }
      ],
      "stateMutability": "view",
      "type": "function"
    },
    {
      "inputs": [],
      "name": "latestRoundData",
      "outputs": [
        {
          "internalType": "uint80",
          "name": "roundId",
          "type": "uint80"
        },
        {
          "internalType": "int256",
          "name": "answer",
          "type": "int256"
        },
        {
          "internalType": "uint256",
          "name": "startedAt",
          "type": "uint256"
        },
        {
          "internalType": "uint256",
          "name": "updatedAt",
          "type": "uint256"
        },
        {
          "internalType": "uint80",
          "name": "answeredInRound",
          "type": "uint80"
        }
      ],
      "stateMutability": "view",
      "type": "function"
    },
    {
      "inputs": [],
      "name": "now256",
      "outputs": [
        {
          "internalType": "uint256",
          "name": "",
          "type": "uint256"
        }
      ],
      "stateMutability": "view",
      "type": "function"
    },
    {
      "inputs": [],
      "name": "roundIdMocked",
      "outputs": [
        {
          "internalType": "uint80",
          "name": "",
          "type": "uint80"
        }
      ],
      "stateMutability": "view",
      "type": "function"
    },
    {
      "inputs": [
        {
          "internalType": "uint80",
          "name": "roundId",
          "type": "uint80"
        },
        {
          "internalType": "int256",
          "name": "answer",
          "type": "int256"
        },
        {
          "internalType": "uint256",
          "name": "startedAt",
          "type": "uint256"
        },
        {
          "internalType": "uint256",
          "name": "updatedAt",
          "type": "uint256"
        },
        {
          "internalType": "uint80",
          "name": "answeredInRound",
          "type": "uint80"
        }
      ],
      "name": "setMockedValues",
      "outputs": [],
      "stateMutability": "nonpayable",
      "type": "function"
    },
    {
      "inputs": [
        {
          "internalType": "uint256",
          "name": "value",
          "type": "uint256"
        }
      ],
      "name": "setNow256",
      "outputs": [],
      "stateMutability": "nonpayable",
      "type": "function"
    },
    {
      "inputs": [
        {
          "internalType": "uint256",
          "name": "_ethOut",
          "type": "uint256"
        },
        {
          "internalType": "uint256",
          "name": "_ilvIn",
          "type": "uint256"
        }
      ],
      "name": "setRate",
      "outputs": [],
      "stateMutability": "nonpayable",
      "type": "function"
    },
    {
      "inputs": [],
      "name": "startedAtMocked",
      "outputs": [
        {
          "internalType": "uint256",
          "name": "",
          "type": "uint256"
        }
      ],
      "stateMutability": "view",
      "type": "function"
    },
    {
      "inputs": [],
      "name": "updatedAtMocked",
      "outputs": [
        {
          "internalType": "uint256",
          "name": "",
          "type": "uint256"
        }
      ],
      "stateMutability": "view",
      "type": "function"
    },
    {
      "inputs": [],
      "name": "version",
      "outputs": [
        {
          "internalType": "uint256",
          "name": "",
          "type": "uint256"
        }
      ],
      "stateMutability": "pure",
      "type": "function"
    }
  ],
  "transactionHash": "0x35f8c7532b3d7cac62680652fb96c2d1f2912092cda700771b875d497f072fbb",
  "args": [],
  "solcInputHash": "d0eb639bbe047cbf6188348c992e667b",
  "bytecode": "0x60806040526000805460016001600160501b031991821681179092556000198083556002819055600355600480549091168217815560059190915560065534801561004957600080fd5b50610640806100596000396000f3fe608060405234801561001057600080fd5b50600436106101005760003560e01c80639a6fc8f511610097578063c8a4398211610066578063c8a4398214610272578063cad7e35c1461027b578063e8545ef414610284578063feaf968c1461029757600080fd5b80639a6fc8f5146101c1578063aa47a83214610208578063b6f102a71461021b578063bb97dba61461022457600080fd5b806354fd4d50116100d357806354fd4d50146101755780637284e4161461017c5780637b64853b146101af5780638c73ba19146101b857600080fd5b806301299efb14610105578063313ce5671461013557806346df2ccb146101445780634ce0f9a61461015f575b600080fd5b600454610118906001600160501b031681565b6040516001600160501b0390911681526020015b60405180910390f35b6040516012815260200161012c565b61015d6101523660046103a0565b600591909155600655565b005b61016761029f565b60405190815260200161012c565b6000610167565b6040805180820182526011815270494c56202f2045544820284d6f636b212960781b6020820152905161012c91906103c2565b61016760065481565b61016760025481565b6101d46101cf366004610433565b6102b6565b604080516001600160501b03968716815260208101959095528401929092526060830152909116608082015260a00161012c565b61015d610216366004610455565b600755565b61016760015481565b61015d61023236600461046e565b600080546001600160501b0396871669ffffffffffffffffffff199182161790915560019490945560029290925560035560048054919093169116179055565b61016760055481565b61016760035481565b600054610118906001600160501b031681565b6101d46102f3565b600080600754116102af57504290565b5060075490565b6000805481908190819081906001600160501b038781169116146102d957600080fd5b6102e16102f3565b939a9299509097509550909350915050565b60008060008060008060009054906101000a90046001600160501b0316600060015412156103465760065460055461032d6012600a6105ba565b61033791906105c9565b61034191906105e8565b61034a565b6001545b600019600254106103625761035d61029f565b610366565b6002545b6000196003541061037e5761037961029f565b610382565b6003545b600454939992985090965094506001600160501b0390911692509050565b600080604083850312156103b357600080fd5b50508035926020909101359150565b600060208083528351808285015260005b818110156103ef578581018301518582016040015282016103d3565b81811115610401576000604083870101525b50601f01601f1916929092016040019392505050565b80356001600160501b038116811461042e57600080fd5b919050565b60006020828403121561044557600080fd5b61044e82610417565b9392505050565b60006020828403121561046757600080fd5b5035919050565b600080600080600060a0868803121561048657600080fd5b61048f86610417565b94506020860135935060408601359250606086013591506104b260808701610417565b90509295509295909350565b634e487b7160e01b600052601160045260246000fd5b600181815b8085111561050f5781600019048211156104f5576104f56104be565b8085161561050257918102915b93841c93908002906104d9565b509250929050565b600082610526575060016105b4565b81610533575060006105b4565b816001811461054957600281146105535761056f565b60019150506105b4565b60ff841115610564576105646104be565b50506001821b6105b4565b5060208310610133831016604e8410600b8410161715610592575081810a6105b4565b61059c83836104d4565b80600019048211156105b0576105b06104be565b0290505b92915050565b600061044e60ff841683610517565b60008160001904831182151516156105e3576105e36104be565b500290565b60008261060557634e487b7160e01b600052601260045260246000fd5b50049056fea26469706673582212203a9c271132ff20d800d289ffce685b3b607a68506306962e33c0b2e58e6cc8b964736f6c634300080b0033",
  "devdoc": {
    "author": "Basil Gorin",
    "details": "Enables testing of the feed, playing with current timestamp",
    "kind": "dev",
    "methods": {
      "now256()": {
        "details": "Testing time-dependent functionality may be difficult;      we override time in the helper test smart contract (mock)",
        "returns": {
          "_0": "`block.timestamp` in mainnet, custom values in testnets (if overridden)"
        }
      },
      "setMockedValues(uint80,int256,uint256,uint256,uint80)": {
        "details": "Overrides roundId, answer, startedAt, updatedAt, answeredInRound"
      },
      "setNow256(uint256)": {
        "details": "overrides now256()"
      }
    },
    "stateVariables": {
      "_now256": {
        "details": "overridden value to use as now32()"
      }
    },
    "title": "Chainlink Price Feed Aggregator V3 Mock",
    "version": 1
  },
  "userdoc": {
    "kind": "user",
    "methods": {},
    "notice": "Supports the Land Sale Price Oracle with the ILV/ETH price feed",
    "version": 1
  },
  "storageLayout": {
    "storage": [
      {
        "astId": 8860,
        "contract": "contracts/mocks/ChainlinkAggregatorV3Mock.sol:ChainlinkAggregatorV3Mock",
        "label": "roundIdMocked",
        "offset": 0,
        "slot": "0",
        "type": "t_uint80"
      },
      {
        "astId": 8864,
        "contract": "contracts/mocks/ChainlinkAggregatorV3Mock.sol:ChainlinkAggregatorV3Mock",
        "label": "answerMocked",
        "offset": 0,
        "slot": "1",
        "type": "t_int256"
      },
      {
        "astId": 8871,
        "contract": "contracts/mocks/ChainlinkAggregatorV3Mock.sol:ChainlinkAggregatorV3Mock",
        "label": "startedAtMocked",
        "offset": 0,
        "slot": "2",
        "type": "t_uint256"
      },
      {
        "astId": 8878,
        "contract": "contracts/mocks/ChainlinkAggregatorV3Mock.sol:ChainlinkAggregatorV3Mock",
        "label": "updatedAtMocked",
        "offset": 0,
        "slot": "3",
        "type": "t_uint256"
      },
      {
        "astId": 8881,
        "contract": "contracts/mocks/ChainlinkAggregatorV3Mock.sol:ChainlinkAggregatorV3Mock",
        "label": "answeredInRoundMocked",
        "offset": 0,
        "slot": "4",
        "type": "t_uint80"
      },
      {
        "astId": 8884,
        "contract": "contracts/mocks/ChainlinkAggregatorV3Mock.sol:ChainlinkAggregatorV3Mock",
        "label": "ethOut",
        "offset": 0,
        "slot": "5",
        "type": "t_uint256"
      },
      {
        "astId": 8887,
        "contract": "contracts/mocks/ChainlinkAggregatorV3Mock.sol:ChainlinkAggregatorV3Mock",
        "label": "ilvIn",
        "offset": 0,
        "slot": "6",
        "type": "t_uint256"
      },
      {
        "astId": 8890,
        "contract": "contracts/mocks/ChainlinkAggregatorV3Mock.sol:ChainlinkAggregatorV3Mock",
        "label": "_now256",
        "offset": 0,
        "slot": "7",
        "type": "t_uint256"
      }
    ],
    "types": {
      "t_int256": {
        "encoding": "inplace",
        "label": "int256",
        "numberOfBytes": "32"
      },
      "t_uint256": {
        "encoding": "inplace",
        "label": "uint256",
        "numberOfBytes": "32"
      },
      "t_uint80": {
        "encoding": "inplace",
        "label": "uint80",
        "numberOfBytes": "10"
      }
    }
  }
}