{
  "address": "0x03811B3aFbd09191675aebe08DE198511B6D5365",
  "abi": [
    {
      "inputs": [
        {
          "internalType": "uint256",
          "name": "x",
          "type": "uint256"
        }
      ],
      "name": "PRBMathUD60x18__CeilOverflow",
      "type": "error"
    },
    {
      "inputs": [
        {
          "internalType": "uint256",
          "name": "x",
          "type": "uint256"
        }
      ],
      "name": "PRBMathUD60x18__FromUintOverflow",
      "type": "error"
    },
    {
      "inputs": [
        {
          "internalType": "uint256",
          "name": "prod1",
          "type": "uint256"
        }
      ],
      "name": "PRBMath__MulDivFixedPointOverflow",
      "type": "error"
    },
    {
      "inputs": [
        {
          "internalType": "uint256",
          "name": "prod1",
          "type": "uint256"
        },
        {
          "internalType": "uint256",
          "name": "denominator",
          "type": "uint256"
        }
      ],
      "name": "PRBMath__MulDivOverflow",
      "type": "error"
    },
    {
      "inputs": [
        {
          "internalType": "uint256",
          "name": "_tokenId",
          "type": "uint256"
        }
      ],
      "name": "tokenURI",
      "outputs": [
        {
          "internalType": "string",
          "name": "",
          "type": "string"
        }
      ],
      "stateMutability": "view",
      "type": "function"
    }
  ],
  "transactionHash": "0xd624d91c649c624ec12b48a95c87ffeb2dd678259d032ad6e1c1e109fc52f367",
  "args": [],
  "solcInputHash": "d0eb639bbe047cbf6188348c992e667b",
  "bytecode": "0x608060405234801561001057600080fd5b506155db806100206000396000f3fe608060405234801561001057600080fd5b506004361061002b5760003560e01c8063c87b56dd14610030575b600080fd5b61004361003e36600461203e565b610059565b6040516100509190612087565b60405180910390f35b60405163206ad07760e11b81526004810182905260609060009033906340d5a0ee90602401600060405180830381865afa15801561009b573d6000803e3d6000fd5b505050506040513d6000823e601f3d908101601f191682016040526100c39190810190612239565b90506100f1816000015182602001518360400151846060015185608001518660a001518761010001516100f8565b9392505050565b60606000610107898989610188565b90506000610113610396565b9050600061012b610126888a89896103b9565b61042f565b90506101598383836040516020016101459392919061234f565b60405160208183030381529060405261042f565b6040516020016101699190612416565b6040516020818303038152906040529350505050979650505050505050565b6060808460ff16600114156101c0575060408051808201909152600c81526b15185a59d848109bdc99585b60a21b6020820152610350565b8460ff16600214156101f7575060408051808201909152600e81526d4372797374616c2053686f72657360901b6020820152610350565b8460ff166003141561023457506040805180820190915260148152730a6d0c2e4c8c4d8eacccc4098c2c4f2e4d2dce8d60631b6020820152610350565b8460ff166004141561026a575060408051808201909152600d81526c20b13cb9b9b0b6102130b9b4b760991b6020820152610350565b8460ff16600514156102a0575060408051808201909152600d81526c4372696d736f6e20576173746560981b6020820152610350565b8460ff16600614156102db57506040805180820190915260128152714272696768746c616e64205374657070657360701b6020820152610350565b8460ff166007141561030f575060408051808201909152600b81526a48616c63796f6e2053656160a81b6020820152610350565b60405162461bcd60e51b8152602060048201526011602482015270125b9d985b1a59081c9959da5bdb881251607a1b60448201526064015b60405180910390fd5b8061035e8561ffff16610595565b61036b8561ffff16610595565b60405160200161037d9392919061245b565b6040516020818303038152906040529150509392505050565b606060405180610180016040528061014581526020016134ba6101459139905090565b60606103dd6103c98660036124e0565b6103d490600661250a565b61ffff16610595565b6103eb6103d48760036124e0565b6103f78660ff16610595565b6104038888888861069b565b6040516020016104169493929190612530565b6040516020818303038152906040529050949350505050565b606081516000141561044f57505060408051602081019091526000815290565b6000604051806060016040528060408152602001613fcd604091399050600060038451600261047e9190612704565b6104889190612732565b610493906004612746565b905060006104a2826020612704565b67ffffffffffffffff8111156104ba576104ba6120ba565b6040519080825280601f01601f1916602001820160405280156104e4576020820181803683370190505b509050818152600183018586518101602084015b81831015610550576003830192508251603f8160121c168501518253600182019150603f81600c1c168501518253600182019150603f8160061c168501518253600182019150603f81168501518253506001016104f8565b60038951066001811461056a576002811461057b57610587565b613d3d60f01b600119830152610587565b603d60f81b6000198301525b509398975050505050505050565b6060816105b95750506040805180820190915260018152600360fc1b602082015290565b8160005b81156105e357806105cd81612765565b91506105dc9050600a83612732565b91506105bd565b60008167ffffffffffffffff8111156105fe576105fe6120ba565b6040519080825280601f01601f191660200182016040528015610628576020820181803683370190505b5090505b84156106935761063d600183612780565b915061064a600a86612797565b610655906030612704565b60f81b81838151811061066a5761066a6127ab565b60200101906001600160f81b031916908160001a90535061068c600a86612732565b945061062c565b949350505050565b606060006106ab86868686610719565b9050606060005b60aa8160ff16101561070e5781838260ff1660aa81106106d4576106d46127ab565b60200201516040516020016106ea9291906127c1565b60405160208183030381529060405291508080610706906127e7565b9150506106b2565b509695505050505050565b610721612016565b60006107566107306003611bac565b61075061073d6002611bac565b61074a8a61ffff16611bac565b90611bf9565b90611c0e565b90506000610772670de0b6b3a76400008304610595565b610595565b61079061076d662386f26fc10000670de0b6b3a76400008606612732565b6040516020016107a1929190612807565b60408051601f198184030181526115a08301909152603461154083018181529193508291906151f461156084013981526020016040518060800160405280605d81526020016147f1605d913981526020016040518060a00160405280606a8152602001613d29606a913981526020016040518060a00160405280606a81526020016152f0606a913981526020016040518060800160405280605581526020016141d26055913981526020016040518060600160405280602e81526020016151c6602e913981526020016040518060800160405280605d8152602001613af1605d913981526020016040518060a0016040528060788152602001613a796078913981526020016040518060a001604052806078815260200161397b6078913981526020016040518060a00160405280606a8152602001614f02606a913981526020016040518060600160405280602e815260200161434b602e913981526020016040518060800160405280605d8152602001613af1605d913981526020016040518060a00160405280607881526020016131b46078913981526020016040518060c0016040528060828152602001612e4a6082913981526020016040518060a00160405280606a8152602001614537606a913981526020016040518060600160405280602e815260200161348c602e913981526020016040518060800160405280605d8152602001613af1605d913981526020016040518060a001604052806078815260200161400d6078913981526020016040518060a00160405280607881526020016136a66078913981526020016040518060800160405280604e8152602001613326604e913981526020016040518060600160405280602e8152602001615198602e913981526020016040518060800160405280605d8152602001613af1605d913981526020016040518060a001604052806078815260200161548d6078913981526020016040518060a00160405280607881526020016150a86078913981526020016040518060a0016040528060788152602001613e6b6078913981526020016040518060a00160405280607c8152602001613853607c913981526020016040518060600160405280602e81526020016142c9602e913981526020016040518060800160405280605d8152602001613af1605d913981526020016040518060a00160405280607881526020016149cf6078913981526020016040518060a00160405280607b8152602001614f6c607b913981526020016040518060a00160405280606f8152602001613ee3606f91398152602001604051806060016040528060278152602001613d93602791398152602001604051806080016040528060598152602001614ce56059913981526020016040518060600160405280603c8152602001613374603c913981526020016040518060800160405280604a81526020016132a4604a913981526020016040518060600160405280603c8152602001614d3e603c913981526020016040518060800160405280604a8152602001613cdf604a913981526020016040518060600160405280603c8152602001614162603c913981526020016040518060800160405280604a815260200161484e604a913981526020016040518060600160405280603c81526020016137c3603c913981526020016040518060800160405280604a8152602001612cea604a913981526020016040518060600160405280602d8152602001614b21602d913981526020016040518060800160405280604f8152602001614980604f913981526020016040518060800160405280604381526020016155636043913981526020016040518060600160405280602e8152602001614d7a602e913981526020016040518060800160405280605381526020016142766053913981526020016040518060800160405280605e8152602001615505605e913981526020016040518060800160405280604381526020016155636043913981526020016040518060800160405280605481526020016136526054913981526020016040518060800160405280604d81526020016146ed604d913981526020016040518060800160405280604381526020016155636043913981526020016040518060800160405280605481526020016145a16054913981526020016040518060800160405280604d8152602001612c25604d91398152602001604051806080016040528060438152602001615563604391398152602001604051806080016040528060548152602001612f5d6054913981526020016040518060800160405280604d8152602001612a8f604d913981526020016040518060800160405280604381526020016155636043913981526020016040518060800160405280605481526020016137ff6054913981526020016040518060800160405280605381526020016130e9605391398152602001604051806080016040528060438152602001615563604391398152602001604051806080016040528060548152602001614da860549139815260200160405180608001604052806053815260200161543a6053913981526020016040518060800160405280604381526020016155636043913981526020016040518060800160405280604f8152602001612b42604f9139815260200160405180606001604052806027815260200161473a602791398152602001604051806080016040528060538152602001612ecc6053913981526020016040518060800160405280604381526020016155636043913981526020016040518060800160405280604f8152602001612b42604f9139815260200160405180606001604052806027815260200161473a6027913981526020016040518060800160405280605381526020016135ff6053913981526020016040518060800160405280604381526020016155636043913981526020016040518060800160405280604f8152602001612b42604f9139815260200160405180606001604052806027815260200161473a602791398152602001604051806080016040528060538152602001613c8c6053913981526020016040518060800160405280604381526020016155636043913981526020016040518060800160405280604f8152602001612b42604f9139815260200160405180606001604052806027815260200161473a6027913981526020016040518060a00160405280606781526020016145f560679139815260200182836040516020016110ed929190612843565b60405160208183030381529060405281526020016040518060a00160405280606581526020016140fd6065913981526020016040518060600160405280603e8152602001612f1f603e913981526020016040518060800160405280605f8152602001613ba5605f913981526020016040518060a001604052806078815260200161322c6078913981526020016040518060800160405280605c8152602001612b91605c9139815260200160405180608001604052806042815260200161447d6042913981526020016040518060a0016040528060788152602001614b4e6078913981526020016040518060600160405280603f815260200161465c603f913981526020016040518060a00160405280607c8152602001614e86607c913981526020016040518060800160405280605581526020016141d26055913981526020016040518060800160405280604f8152602001614227604f913981526020016040518060800160405280604481526020016148ea6044913981526020016040518060a001604052806078815260200161313c6078913981526020016040518060800160405280605281526020016148986052913981526020016040518060600160405280603881526020016132ee603891398152602001604051806080016040528060518152602001614fe76051913981526020016040518060a0016040528060628152602001614abf6062913981526020016040518060400160405280602081526020017f206772616469656e74556e6974733d277573657253706163654f6e557365273e8152508152602001604051806080016040528060548152602001613c046054913981526020016040518060a00160405280607081526020016153ca6070913981526020016040518060800160405280605581526020016141d26055913981526020016040518060600160405280603481526020016139f36034913981526020016040518060800160405280605f8152602001613e0c605f913981526020016040518060a0016040528060788152602001615120607891398152602001604051806080016040528060528152602001613a276052913981526020016040518060600160405280603881526020016132ee603891398152602001604051806080016040528060518152602001614fe76051913981526020016040518060a0016040528060788152602001612c72607891398152602001604051806080016040528060548152602001614bc66054913981526020016040518060a001604052806070815260200161535a6070913981526020016040518060800160405280605581526020016141d26055913981526020016040518060600160405280603481526020016138cf6034913981526020016040518060800160405280605f8152602001613e0c605f913981526020016040518060a0016040528060788152602001614085607891398152602001604051806080016040528060528152602001612ff86052913981526020016040518060600160405280603881526020016132ee603891398152602001604051806080016040528060518152602001614fe76051913981526020016040518060a0016040528060788152602001612d346078913981526020016040518060800160405280605481526020016142f76054913981526020016040518060a00160405280607081526020016150386070913981526020016040518060800160405280605581526020016141d260559139815260200160405180606001604052806034815260200161419e6034913981526020016040518060800160405280605f8152602001613e0c605f913981526020016040518060a0016040528060788152602001614a4760789139815260200160405180608001604052806052815260200161469b6052913981526020016040518060600160405280603881526020016132ee603891398152602001604051806080016040528060518152602001614fe76051913981526020016040518060a00160405280607881526020016143796078913981526020016040518060a0016040528060788152602001613e6b6078913981526020016040518060a0016040528060668152602001612adc6066913981526020016040518060a00160405280607081526020016130796070913981526020016040518060800160405280605581526020016141d26055913981526020016040518060600160405280603481526020016134586034913981526020016040518060800160405280605f8152602001613e0c605f913981526020016040518060a0016040528060788152602001613903607891398152602001604051806080016040528060528152602001614e346052913981526020016040518060600160405280603881526020016132ee603891398152602001604051806080016040528060518152602001614fe76051913981526020016040518060a00160405280607b8152602001613f52607b913981526020016040518060a0016040528060808152602001614c1a6080913981526020016040518060a00160405280607081526020016133b06070913981526020016040518060800160405280605581526020016141d2605591398152602001604051806060016040528060348152602001613c586034913981526020016040518060800160405280605f8152602001613e0c605f913981526020016040518060a00160405280607881526020016144bf607891398152602001604051806080016040528060528152602001613dba605291398152602001604051806060016040528060388152602001614dfc6038913981526020016040518060800160405280605181526020016152286051913981526020016040518060a00160405280607b8152602001613748607b913981526020016040518060a0016040528060778152602001615279607791398152602001604051806080016040528060578152602001613b4e6057913981526020016040518060600160405280602e8152602001612dac602e913981526020016040518060600160405280603881526020016134206038913981526020016040518060a0016040528060708152602001612dda6070913981526020016040518060800160405280605581526020016141d2605591398152602001604051806080016040528060478152602001612fb1604791398152602001611a128860ff16610595565b81526020016040518060600160405280602a815260200161371e602a91398152602001611a4060028a612873565b61ffff1615611a67576040518060c001604052806090815260200161476160909139611a81565b6040518060c00160405280608c81526020016143f1608c91395b815260200160405180608001604052806052815260200161492e605291398152602001828152602001604051806040016040528060018152602001600160fd1b81525081526020018281526020016040518060400160405280600381526020016214939f60e91b8152508152602001611afa8988611c1a565b8152602001611b0886611d23565b81526020016040518060400160405280600e81526020016d1e17b39f1e17b39f1e17b9bb339f60911b8152508152602001604051806060016040528060388152602001612bed6038913981526020016040518060800160405280604b8152602001614c9a604b91398152602001611b818860ff16610595565b81526020016040518060600160405280602f815260200161304a602f91399052979650505050505050565b60007812725dd1d243aba0e75fe645cc4873f9e65afe688c928e1f21821115611beb57604051633492ffd960e01b815260048101839052602401610347565b50670de0b6b3a76400000290565b60006100f183670de0b6b3a764000084611de1565b60006100f18383611eaf565b60606000611c4f611c2b6003611bac565b610750611c386002611bac565b61074a611c4660028a612894565b61ffff16611bac565b9050606080611c5f600287612873565b61ffff16611c9e57611c7a670de0b6b3a76400008404610595565b9150611c976003670de0b6b3a764000085045b61076d9190612780565b9050611ce8565b611cc6611cbb611cad85611f71565b670de0b6b3a7640000900490565b61076d906001612704565b9150611ce56001670de0b6b3a764000080860680151502860304611c8d565b90505b8181611cf68760ff16610595565b604051602001611d08939291906128b7565b60405160208183030381529060405293505050505b92915050565b60608060005b8351811015611dda5781611da5611d5c868481518110611d4b57611d4b6127ab565b602002602001015160200151611fb7565b611d82878581518110611d7157611d716127ab565b602002602001015160400151611fb7565b878581518110611d9457611d946127ab565b602002602001015160000151611fc4565b604051602001611db69291906127c1565b60405160208183030381529060405291508080611dd290612765565b915050611d29565b5092915050565b600080806000198587098587029250828110838203039150508060001415611e1c57838281611e1257611e1261271c565b04925050506100f1565b838110611e4657604051631dcf306360e21b81526004810182905260248101859052604401610347565b60008486880960026001871981018816978890046003810283188082028403028082028403028082028403028082028403028082028403029081029092039091026000889003889004909101858311909403939093029303949094049190911702949350505050565b60008080600019848609848602925082811083820303915050670de0b6b3a76400008110611ef35760405163698d9a0160e11b815260048101829052602401610347565b600080670de0b6b3a76400008688099150506706f05b59d3b1ffff811182611f2d5780670de0b6b3a7640000850401945050505050611d1d565b620400008285030493909111909103600160ee1b02919091177faccb18165bd6fe31ae1cf318dc5b51eee0e1ba569b88cd74c1773b91fac106690201905092915050565b600067081ad01a501bffff19821115611fa057604051630ecebb1160e31b815260048101839052602401610347565b50670de0b6b3a76400008082068015159103020190565b6000611d1d8260036124e0565b6060611fd38461ffff16610595565b611fe08461ffff16610595565b611fec8460ff16610595565b604051602001611ffe939291906129a5565b60405160208183030381529060405290509392505050565b60405180611540016040528060aa905b60608152602001906001900390816120265790505090565b60006020828403121561205057600080fd5b5035919050565b60005b8381101561207257818101518382015260200161205a565b83811115612081576000848401525b50505050565b60208152600082518060208401526120a6816040850160208701612057565b601f01601f19169190910160400192915050565b634e487b7160e01b600052604160045260246000fd5b6040516060810167ffffffffffffffff811182821017156120f3576120f36120ba565b60405290565b604051610120810167ffffffffffffffff811182821017156120f3576120f36120ba565b604051601f8201601f1916810167ffffffffffffffff81118282101715612146576121466120ba565b604052919050565b805160ff8116811461215f57600080fd5b919050565b805161ffff8116811461215f57600080fd5b600082601f83011261218757600080fd5b8151602067ffffffffffffffff8211156121a3576121a36120ba565b6121b1818360051b0161211d565b828152606092830285018201928282019190878511156121d057600080fd5b8387015b8581101561222c5781818a0312156121ec5760008081fd5b6121f46120d0565b6121fd8261214e565b815261220a868301612164565b86820152604061221b818401612164565b9082015284529284019281016121d4565b5090979650505050505050565b60006020828403121561224b57600080fd5b815167ffffffffffffffff8082111561226357600080fd5b90830190610120828603121561227857600080fd5b6122806120f9565b6122898361214e565b815261229760208401612164565b60208201526122a860408401612164565b60408201526122b96060840161214e565b60608201526122ca60808401612164565b60808201526122db60a0840161214e565b60a08201526122ec60c0840161214e565b60c08201526122fd60e0840161214e565b60e0820152610100808401518381111561231657600080fd5b61232288828701612176565b918301919091525095945050505050565b60008151612345818560208601612057565b9290920192915050565b683d913730b6b2911d1160b91b81528351600090612374816009850160208901612057565b71111610113232b9b1b934b83a34b7b7111d1160711b60099184019182015284516123a681601b840160208901612057565b6c1116101134b6b0b3b2911d101160991b601b92909101918201527f646174613a696d6167652f7376672b786d6c3b6261736536342c000000000000602882015283516123fa816042840160208801612057565b61227d60f01b6042929091019182015260440195945050505050565b7f646174613a6170706c69636174696f6e2f6a736f6e3b6261736536342c20000081526000825161244e81601e850160208701612057565b91909101601e0192915050565b6000845161246d818460208901612057565b61040560f31b908301908152845161248c816002840160208901612057565b61016160f51b6002929091019182015283516124af816004840160208801612057565b602960f81b6004929091019182015260050195945050505050565b634e487b7160e01b600052601160045260246000fd5b600061ffff80831681851681830481118215151615612501576125016124ca565b02949350505050565b600061ffff808316818516808303821115612527576125276124ca565b01949350505050565b6c3c737667206865696768743d2760981b81526000855161255881600d850160208a01612057565b68272077696474683d2760b81b600d918401918201528551612581816016840160208a01612057565b7f27207374726f6b652d77696474683d27322720786d6c6e733d27687474703a2f601692909101918201527517bbbbbb973b999737b933979918181817b9bb33939f60511b60368201527f3c726563742072783d273525272072793d273525272077696474683d27313030604c8201527f2527206865696768743d27393925272066696c6c3d2775726c2823424f415244606c8201527f5f424f54544f4d5f424f524445525f434f4c4f525f544945525f000000000000608c8201526126f96126e76126e161267461265660a686018a612333565b7114939039ba3937b5b29e93b737b73293979f60711b815260120190565b7f3c737667206865696768743d2739372e3625272077696474683d27313030252781527f207374726f6b652d77696474683d27322720786d6c6e733d27687474703a2f2f6020820152743bbbbb973b999737b933979918181817b9bb33939f60591b604082015260550190565b86612333565b651e17b9bb339f60d11b815260060190565b979650505050505050565b60008219821115612717576127176124ca565b500190565b634e487b7160e01b600052601260045260246000fd5b6000826127415761274161271c565b500490565b6000816000190483118215151615612760576127606124ca565b500290565b6000600019821415612779576127796124ca565b5060010190565b600082821015612792576127926124ca565b500390565b6000826127a6576127a661271c565b500690565b634e487b7160e01b600052603260045260246000fd5b600083516127d3818460208801612057565b835190830190612527818360208801612057565b600060ff821660ff8114156127fe576127fe6124ca565b60010192915050565b60008351612819818460208801612057565b601760f91b9083019081528351612837816001840160208801612057565b01600101949350505050565b60008351612855818460208801612057565b600160fd1b9083019081528351612837816001840160208801612057565b600061ffff808416806128885761288861271c565b92169190910692915050565b600061ffff838116908316818110156128af576128af6124ca565b039392505050565b673c73766720783d2760c01b8152600084516128da816008850160208901612057565b642720793d2760d81b60089184019182015284516128ff81600d840160208901612057565b7f272077696474683d27313227206865696768743d2731322720786d6c6e733d27600d92909101918201527f687474703a2f2f7777772e77332e6f72672f323030302f737667273e3c757365602d8201527520687265663d27234c414e444d41524b5f545950455f60501b604d8201528351612982816063840160208801612057565b6813979f1e17b9bb339f60b91b60639290910191820152606c0195945050505050565b673c73766720783d2760c01b8152600084516129c8816008850160208901612057565b642720793d2760d81b60089184019182015284516129ed81600d840160208901612057565b7f272077696474683d273627206865696768743d27362720786d6c6e733d276874600d92909101918201527f74703a2f2f7777772e77332e6f72672f323030302f737667273e3c7573652068602d8201526f7265663d2723534954455f545950455f60801b604d8201528351612a6a81605d840160208801612057565b691390179f1e17b9bb339f60b11b605d92909101918201526067019594505050505056fe3c6c696e6561724772616469656e742069643d274752414449454e545f424f4152445f544945525f31272078313d27353025272079313d2730272078323d27353025272079323d2731303025273c73746f70206f66667365743d27302e373334333735272073746f702d636f6c6f723d2723374637304432272f3e3c73746f70206f66667365743d2731272073746f702d636f6c6f723d2723383237384632272f3e3c2f6c696e6561724772616469656e743e3c73746f702073746f702d636f6c6f723d2723666666272073746f702d6f7061636974793d27302e3338272f3e3c73746f70206f66667365743d2731272073746f702d636f6c6f723d2723666666273c7265637420783d27342e37322720793d27342e3539393938272077696474683d27342e3827206865696768743d27342e38272066696c6c3d2775726c28237061696e74315f6c696e6561725f323337315f35353836373729272f3e3c7265637420786d6c6e733d27687474703a2f2f7777772e77332e6f72672f323030302f7376672720783d27302e332720793d27302e33273c6c696e6561724772616469656e742069643d274752414449454e545f424f4152445f544945525f32272078313d27353025272079313d2730272078323d27353025272079323d2731303025273c646566733e3c6c696e6561724772616469656e742069643d277061696e74305f6c696e6561725f323337315f353538363836272078313d2731312e3132272079313d2731272078323d27312e3132272079323d27313127206772616469656e74556e6974733d277573657253706163654f6e557365273e2069643d27424f4152445f424f54544f4d5f424f524445525f434f4c4f525f544945525f312720786d6c6e733d27687474703a2f2f7777772e77332e6f72672f323030302f737667273e3c646566733e3c6c696e6561724772616469656e742069643d277061696e74305f6c696e6561725f323337315f353538363839272078313d2731312e3132272079313d2731272078323d27312e3132272079323d27313127206772616469656e74556e6974733d277573657253706163654f6e557365273e3c73746f70206f66667365743d27302e383333333333272073746f702d636f6c6f723d2723463130304439272f3e3c6c696e6561724772616469656e742069643d277061696e74315f6c696e6561725f323337335f353539343234272078313d27392e3132272079313d2733272078323d27332e3132272079323d273927206772616469656e74556e6974733d277573657253706163654f6e557365273e3c646566733e3c6c696e6561724772616469656e742069643d277061696e74305f6c696e6561725f313332305f313435383134272078313d2731312e3132272079313d2731272078323d272d302e383632303538272079323d27372e313138343527206772616469656e74556e6974733d277573657253706163654f6e557365273e3c6c696e6561724772616469656e742069643d27524f554e4445445f424f524445525f544945525f33272078313d2731303025272079313d2731362e3625272078323d2731303025272079323d2731303025273c2f7061747465726e3e3c73796d626f6c2069643d274c414e444d41524b5f545950455f31272077696474683d27313227206865696768743d273132273e3c73746f702073746f702d636f6c6f723d2723374444364632272f3e3c73746f70206f66667365743d2731272073746f702d636f6c6f723d2723363235454443272f3e3c2f6c696e6561724772616469656e743e3c2f646566733e3c726563742077696474683d273130302527206865696768743d2731303025272066696c6c3d2775726c28234752414449454e545f424f4152445f544945525f3c7265637420783d27342e31322720793d2734272077696474683d273427206865696768743d2734272066696c6c3d2775726c28237061696e74315f6c696e6561725f323337315f35353836383929272f3e2927207374726f6b652d77696474683d2731272072783d27342e3525272072793d27342e3525272f3e3c2f7376673e3c6c696e6561724772616469656e742069643d277061696e74315f6c696e6561725f323337315f353538363935272078313d27382e3132272079313d2734272078323d27342e3132272079323d273827206772616469656e74556e6974733d277573657253706163654f6e557365273e3c6c696e6561724772616469656e742069643d27524f554e4445445f424f524445525f544945525f35272078313d2731303025272079313d2731362e3625272078323d2731303025272079323d2731303025273c7265637420783d27312e31322720793d2731272077696474683d27313027206865696768743d273130272066696c6c3d2775726c28237061696e74305f6c696e6561725f323337315f3535383638332927207374726f6b653d27776869746527207374726f6b652d6f7061636974793d27302e35272f3e3c7265637420783d27312e31322720793d2731272077696474683d27313027206865696768743d273130272066696c6c3d2775726c28237061696e74305f6c696e6561725f313332305f3134353831342927207374726f6b653d27776869746527207374726f6b652d6f7061636974793d27302e35272f3e3c7265637420783d27312e31322720793d2731272077696474683d27313227206865696768743d273132272066696c6c3d2775726c28237061696e74305f6c696e6561725f323337315f3535383637372927207374726f6b653d27776869746527207374726f6b652d6f7061636974793d27302e35272f3e2069643d27424f4152445f424f54544f4d5f424f524445525f434f4c4f525f544945525f342720786d6c6e733d27687474703a2f2f7777772e77332e6f72672f323030302f737667273e3c7265637420783d27342e31322720793d2734272077696474683d273427206865696768743d2734272066696c6c3d277768697465272f3e3c73746f70206f66667365743d2731272073746f702d636f6c6f723d2723353246463030272f3e3c2f6c696e6561724772616469656e743e3c2f646566733e3c2f7376673e3c2f73796d626f6c3e3c73746f702073746f702d636f6c6f723d2723424531334145272f3e3c2f6c696e6561724772616469656e743e3c6c696e6561724772616469656e743c6c696e6561724772616469656e742069643d277061696e74315f6c696e6561725f323337315f353538363932272078313d27382e3132272079313d2734272078323d27342e3132272079323d273827206772616469656e74556e6974733d277573657253706163654f6e557365273e3c73746f70206f66667365743d2731272073746f702d636f6c6f723d2723394132344543272f3e3c2f6c696e6561724772616469656e743e3c73796d626f6c2069643d274c414e444d41524b5f545950455f36272077696474683d27313227206865696768743d273132273e3c73796d626f6c2069643d27534954455f545950455f34272077696474683d273627206865696768743d2736273e496c6c757669756d204c616e642069732061206469676974616c207069656365206f66207265616c2065737461746520696e2074686520496c6c757669756d20756e697665727365207468617420706c61796572732063616e206d696e6520666f72206675656c73207468726f75676820496c6c757669756d205a65726f2e204675656c7320617265204552432d323020746f6b656e73207468617420617265207573656420696e20496c6c757669756d2067616d657320616e642063616e20626520747261646564206f6e20746865206d61726b6574706c6163652e204869676865722d746965726564206c616e64732070726f64756365206d6f7265206675656c2e5c6e5c6e4c6561726e206d6f72652061626f757420496c6c757669756d204c616e6420617420696c6c7576696465782e696c6c757669756d2e696f2f6c616e642e3c6c696e6561724772616469656e742069643d27524f554e4445445f424f524445525f544945525f32272078313d2731303025272079313d2731362e3625272078323d2731303025272079323d2731303025273c73746f702073746f702d636f6c6f723d2723323339333738272f3e3c73746f70206f66667365743d2731272073746f702d636f6c6f723d2723343145323345272f3e3c2f6c696e6561724772616469656e743e3c646566733e3c6c696e6561724772616469656e742069643d277061696e74305f6c696e6561725f313332315f313239303133272078313d2731312e3132272079313d2731272078323d27312e3132272079323d27313127206772616469656e74556e6974733d277573657253706163654f6e557365273e2927207374726f6b653d276e6f6e65272072783d273525272072793d273525272f3e3c73766720783d273c646566733e3c6c696e6561724772616469656e742069643d277061696e74305f6c696e6561725f323337335f353539343234272078313d2731312e3132272079313d2731272078323d27312e3131393939272079323d27313127206772616469656e74556e6974733d277573657253706163654f6e557365273e3c73746f702073746f702d636f6c6f723d2723353335304141272f3e3c2f6c696e6561724772616469656e743e3c6c696e6561724772616469656e743c73746f702073746f702d636f6c6f723d2723344334344130272f3e3c73746f70206f66667365743d2731272073746f702d636f6c6f723d2723324632433833272f3e3c2f6c696e6561724772616469656e743e3c73746f70206f66667365743d27302e373334333735272073746f702d636f6c6f723d2723374637304432272f3e3c73746f70206f66667365743d2731272073746f702d636f6c6f723d2723383237384632272f3e3c2f6c696e6561724772616469656e743e3c2f646566733e3c2f7376673e3c2f73796d626f6c3e3c73796d626f6c2069643d274c414e444d41524b5f545950455f34272077696474683d27313227206865696768743d273132273e3c7265637420783d27312e31322720793d2731272077696474683d27313027206865696768743d273130272066696c6c3d2775726c28237061696e74305f6c696e6561725f323337315f3535383639322927207374726f6b653d27776869746527207374726f6b652d6f7061636974793d27302e35272f3e3c646566733e3c6c696e6561724772616469656e742069643d277061696e74305f6c696e6561725f313332315f313239303131272078313d2731312e3132272079313d2731272078323d27312e3132272079323d27313127206772616469656e74556e6974733d277573657253706163654f6e557365273e3c73796d626f6c2069643d274c414e444d41524b5f545950455f33272077696474683d27313227206865696768743d273132273e3c7265637420783d27342e31322720793d2734272077696474683d273427206865696768743d2734272066696c6c3d2775726c28237061696e74315f6c696e6561725f323337315f35353836383629272f3e3c7265637420783d27312e31322720793d2731272077696474683d27313027206865696768743d273130272066696c6c3d2775726c28237061696e74305f6c696e6561725f313332315f3132393031312927207374726f6b653d27776869746527207374726f6b652d6f7061636974793d27302e35272f3e3c7376672077696474683d273627206865696768743d2736272076696577426f783d27302030203132203132272066696c6c3d276e6f6e652720786d6c6e733d27687474703a2f2f7777772e77332e6f72672f323030302f737667273e3c73746f70206f66667365743d27302e35272073746f702d636f6c6f723d2723324435314544272f3e3c73746f70206f66667365743d27302e363731383735272073746f702d636f6c6f723d2723303036304631272f3e3c7376672077696474683d27313227206865696768743d273132272076696577426f783d27302030203134203134272066696c6c3d276e6f6e652720786d6c6e733d27687474703a2f2f7777772e77332e6f72672f323030302f737667273e3c73746f702073746f702d636f6c6f723d2723384344344439272f3e3c73746f70206f66667365743d2731272073746f702d636f6c6f723d2723353938464136272f3e3c2f6c696e6561724772616469656e743e3c73796d626f6c2069643d274c414e444d41524b5f545950455f37272077696474683d27313227206865696768743d273132273e3c6c696e6561724772616469656e742069643d27524f554e4445445f424f524445525f544945525f31272078313d2731303025272079313d2731362e3625272078323d2731303025272079323d2731303025272069643d27424f4152445f424f54544f4d5f424f524445525f434f4c4f525f544945525f332720786d6c6e733d27687474703a2f2f7777772e77332e6f72672f323030302f737667273e3c7265637420783d27312e31322720793d2731272077696474683d27313227206865696768743d273132272066696c6c3d2775726c2823736974652d747970652d312927207374726f6b653d27776869746527207374726f6b652d6f7061636974793d27302e35272f3e3c2f6c696e6561724772616469656e743e3c2f646566733e3c2f7376673e3c2f73796d626f6c3e3c7265637420783d27332e31322720793d2733272077696474683d273627206865696768743d2736272066696c6c3d2775726c28237061696e74315f6c696e6561725f323337335f35353934323429272f3e3c7376672077696474683d27313227206865696768743d273132272076696577426f783d27302030203132203132272066696c6c3d276e6f6e652720786d6c6e733d27687474703a2f2f7777772e77332e6f72672f323030302f737667273e3c73746f702073746f702d636f6c6f723d2723333146323746272f3e3c73746f70206f66667365743d27302e323936383735272073746f702d636f6c6f723d2723463442453836272f3e3c73746f70206f66667365743d27302e353738313235272073746f702d636f6c6f723d2723423236464432272f3e3c73746f702073746f702d636f6c6f723d277768697465272f3e3c73746f70206f66667365743d27302e353434353835272073746f702d636f6c6f723d2723464644363030272f3e3c73746f70206f66667365743d2731272073746f702d636f6c6f723d2723464639393030272f3e3c646566733e3c6c696e6561724772616469656e742069643d277061696e74305f6c696e6561725f323337315f353538363932272078313d2731312e3132272079313d2731272078323d27312e3131393939272079323d27313127206772616469656e74556e6974733d277573657253706163654f6e557365273e4142434445464748494a4b4c4d4e4f505152535455565758595a6162636465666768696a6b6c6d6e6f707172737475767778797a303132333435363738392b2f3c7265637420783d27312e31322720793d2731272077696474683d27313027206865696768743d273130272066696c6c3d2775726c28237061696e74305f6c696e6561725f313332315f3132393031332927207374726f6b653d27776869746527207374726f6b652d6f7061636974793d27302e35272f3e3c7265637420783d27312e31322720793d2731272077696474683d27313027206865696768743d273130272066696c6c3d2775726c28237061696e74305f6c696e6561725f323337315f3535383638392927207374726f6b653d27776869746527207374726f6b652d6f7061636974793d27302e35272f3e29273e3c7061746820643d274d20332030204c2030203020302033272066696c6c3d276e6f6e6527207374726f6b652d77696474683d27302e332527207374726f6b653d272331333041324127207374726f6b652d6f7061636974793d27302e3227202f3e3c73746f702073746f702d636f6c6f723d2723363132344145272f3e3c2f6c696e6561724772616469656e743e3c6c696e6561724772616469656e743c73796d626f6c2069643d274c414e444d41524b5f545950455f35272077696474683d27313227206865696768743d273132273e3c73746f702073746f702d636f6c6f723d2723353635363536272f3e3c73746f70206f66667365743d2731272f3e3c2f6c696e6561724772616469656e743e3c2f646566733e3c2f7376673e3c2f73796d626f6c3e3c73796d626f6c2069643d274c414e444d41524b5f545950455f32272077696474683d27313227206865696768743d273132273e3c7376672077696474683d27313227206865696768743d273132273c73746f70206f66667365743d27302e36383735272073746f702d636f6c6f723d2723464635374545272f3e3c73746f70206f66667365743d2731272073746f702d636f6c6f723d2723394132344543272f3e3c73796d626f6c2069643d27534954455f545950455f36272077696474683d273627206865696768743d2736273e3c73746f702073746f702d636f6c6f723d2723313834423030272f3e3c73746f70206f66667365743d2731272073746f702d636f6c6f723d2723353246463030272f3e3c2f6c696e6561724772616469656e743e3c73796d626f6c2069643d27534954455f545950455f33272077696474683d273627206865696768743d2736273e3c646566733e3c6c696e6561724772616469656e742069643d277061696e74305f6c696e6561725f323337315f353538363935272078313d2731312e3132272079313d2731272078323d27312e3132272079323d27313127206772616469656e74556e6974733d277573657253706163654f6e557365273e2d3137252720793d272d313725272077696474683d273131372527206865696768743d273131362e342527203e3c67207472616e73666f726d3d277363616c6528312e333429272072783d273525272072793d27352527203e3c7265637420783d273131252720793d2731312e3225272077696474683d2736332e362527206865696768743d2736332e38253c7265637420783d27342e37322720793d27342e3539393938272077696474683d27342e3827206865696768743d27342e38272066696c6c3d277768697465272f3e3c7265637420783d27312e31322720793d2731272077696474683d27313027206865696768743d273130272066696c6c3d2775726c28237061696e74305f6c696e6561725f323337335f3535393432342927207374726f6b653d27776869746527207374726f6b652d6f7061636974793d27302e35272f3e3c73746f702073746f702d636f6c6f723d2723384344344439272f3e3c73746f70206f66667365743d2731272073746f702d636f6c6f723d2723353938464136272f3e3c2f6c696e6561724772616469656e743e3c2f646566733e3c2f7376673e3c2f73796d626f6c3e3c73746f702073746f702d636f6c6f723d2723383132444544272f3e3c73746f70206f66667365743d2731272073746f702d636f6c6f723d2723463130304439272f3e3c2f6c696e6561724772616469656e743e3c7061747465726e2069643d27736d616c6c47726964272077696474683d273327206865696768743d273327207061747465726e556e6974733d277573657253706163654f6e55736527207061747465726e5472616e73666f726d3d27726f74617465283435203c73746f702073746f702d636f6c6f723d2723353635363536272f3e3c73746f70206f66667365743d2731272f3e3c2f6c696e6561724772616469656e743e3c7265637420783d27342e31322720793d2734272077696474683d273427206865696768743d2734272066696c6c3d2775726c28237061696e74315f6c696e6561725f323337315f35353836393529272f3e3c6c696e6561724772616469656e742069643d274752414449454e545f424f4152445f544945525f33272078313d27353025272079313d2731303025272078323d27353025272079323d2730272073746f702d6f7061636974793d27302e3038272f3e3c2f6c696e6561724772616469656e743e2d3138252720793d272d313825272077696474683d273131372e382527206865696768743d273131372e382527203e3c67207472616e73666f726d3d277363616c6528312e333429272072783d273525272072793d27352527203e3c7265637420783d2731312e36252720793d2731312e3625272077696474683d2736332e302527206865696768743d2736332e32253c7376672077696474683d273627206865696768743d2736272076696577426f783d27302030203134203134272066696c6c3d276e6f6e652720786d6c6e733d27687474703a2f2f7777772e77332e6f72672f323030302f737667273e2069643d27424f4152445f424f54544f4d5f424f524445525f434f4c4f525f544945525f322720786d6c6e733d27687474703a2f2f7777772e77332e6f72672f323030302f737667273e3c7265637420783d27342e31322720793d2734272077696474683d273427206865696768743d2734272066696c6c3d2775726c28237061696e74315f6c696e6561725f323337315f35353836383329272f3e2076696577426f783d27302030203132203132272066696c6c3d276e6f6e652720786d6c6e733d27687474703a2f2f7777772e77332e6f72672f323030302f737667273e272066696c6c3d2775726c2823736d616c6c477269642927207374726f6b653d276e6f6e6527202072783d273325272072793d27332527202f3e3c67207472616e73666f726d3d27726f74617465283435203c6c696e6561724772616469656e742069643d274752414449454e545f424f4152445f544945525f35272078313d2731303025272079313d2730272078323d2731303025272079323d2731303025273c7265637420783d27312e31322720793d2731272077696474683d27313027206865696768743d273130272066696c6c3d2775726c28237061696e74305f6c696e6561725f313332315f3132393031352927207374726f6b653d27776869746527207374726f6b652d6f7061636974793d27302e35272f3e3c7265637420783d27312e31322720793d2731272077696474683d27313027206865696768743d273130272066696c6c3d2775726c28237061696e74305f6c696e6561725f323337315f3535383639352927207374726f6b653d27776869746527207374726f6b652d6f7061636974793d27302e35272f3e3c646566733e3c6c696e6561724772616469656e742069643d277061696e74305f6c696e6561725f323337315f353538363833272078313d2731312e3132272079313d2731272078323d272d302e383632303538272079323d27372e3131383435273c73746f702073746f702d636f6c6f723d2723324332423637272f3e3c2f6c696e6561724772616469656e743e3c646566733e3c6c696e6561724772616469656e742069643d277061696e74305f6c696e6561725f323337315f353538363737272078313d2731332e3132272079313d2731272078323d27312e3132272079323d27313327206772616469656e74556e6974733d277573657253706163654f6e557365273e3c73746f702073746f702d636f6c6f723d2723434245324646272f3e3c73746f70206f66667365743d2731272073746f702d636f6c6f723d2723454645464546272f3e3c2f6c696e6561724772616469656e743e3c73746f702073746f702d636f6c6f723d277768697465272f3e3c73746f70206f66667365743d27302e353434353835272073746f702d636f6c6f723d2723464644363030272f3e3c73746f70206f66667365743d2731272073746f702d636f6c6f723d2723464639393030272f3e3c2f6c696e6561724772616469656e743e2077696474683d2739392e372527206865696768743d2739392e3725272066696c6c3d276e6f6e6527207374726f6b653d2775726c2823524f554e4445445f424f524445525f544945525f3c6c696e6561724772616469656e742069643d27424f4152445f424f54544f4d5f424f524445525f434f4c4f525f544945525f352720786d6c6e733d27687474703a2f2f7777772e77332e6f72672f323030302f737667273e3c73746f702073746f702d636f6c6f723d2723314637343630272f3e3c2f6c696e6561724772616469656e743e3c6c696e6561724772616469656e743c73746f70206f66667365743d27302e313330323038272073746f702d636f6c6f723d2723454644373030272f3e3c73746f702073746f702d636f6c6f723d2723443246464439272f3e3c73746f70206f66667365743d2731272073746f702d636f6c6f723d2723463332424531272f3e3c2f6c696e6561724772616469656e743e3c7265637420783d27332e31322720793d2733272077696474683d273627206865696768743d2736272066696c6c3d277768697465272f3e3c7265637420783d27342e31322720793d2734272077696474683d273427206865696768743d2734272066696c6c3d2775726c28237061696e74315f6c696e6561725f323337315f35353836393229272f3e3c6c696e6561724772616469656e742069643d277061696e74315f6c696e6561725f323337315f353538363737272078313d27392e3532272079313d27342e3539393938272078323d27342e3732272079323d27392e333939393827206772616469656e74556e6974733d277573657253706163654f6e557365273e3c73746f702073746f702d636f6c6f723d2723434245324646272f3e3c73746f70206f66667365743d2731272073746f702d636f6c6f723d2723454645464546272f3e3c2f6c696e6561724772616469656e743e3c2f646566733e3c2f7376673e3c2f73796d626f6c3e3c646566733e3c6c696e6561724772616469656e742069643d277061696e74305f6c696e6561725f313332315f313239303135272078313d2731312e3132272079313d2731272078323d27312e3131393939272079323d27313127206772616469656e74556e6974733d277573657253706163654f6e557365273e3c7265637420783d27332e36322720793d27332e35272077696474683d273527206865696768743d273527207374726f6b653d27626c61636b27207374726f6b652d6f7061636974793d27302e31272f3e3c6c696e6561724772616469656e742069643d277061696e74315f6c696e6561725f323337315f353538363839272078313d27382e3132272079313d2734272078323d27342e3132272079323d273827206772616469656e74556e6974733d277573657253706163654f6e557365273e3c646566733e3c6c696e6561724772616469656e742069643d277061696e74305f6c696e6561725f313332315f313239303137272078313d2731312e3132272079313d2731272078323d27312e3132272079323d27313127206772616469656e74556e6974733d277573657253706163654f6e557365273e3c7265637420783d27312e31322720793d2731272077696474683d27313027206865696768743d273130272066696c6c3d2775726c28237061696e74305f6c696e6561725f323337315f3535383638362927207374726f6b653d27776869746527207374726f6b652d6f7061636974793d27302e35272f3e3c73796d626f6c2069643d27534954455f545950455f35272077696474683d273627206865696768743d2736273e3c73796d626f6c2069643d27534954455f545950455f32272077696474683d273627206865696768743d2736273e3c646566733e3c73796d626f6c2069643d27534954455f545950455f31272077696474683d273627206865696768743d2736273e3c7265637420783d27322e36322720793d27322e35272077696474683d273727206865696768743d273727207374726f6b653d27626c61636b27207374726f6b652d6f7061636974793d27302e31272f3e3c73746f702073746f702d636f6c6f723d2723303843453031272f3e3c73746f70206f66667365743d27302e313731383735272073746f702d636f6c6f723d2723434545463030272f3e3c73746f70206f66667365743d27302e3334333735272073746f702d636f6c6f723d2723353146393830272f3e3c646566733e3c6c696e6561724772616469656e742069643d27736974652d747970652d31272078313d2731332e3132272079313d2731272078323d27312e3132272079323d27313327206772616469656e74556e6974733d277573657253706163654f6e557365273e3c6c696e6561724772616469656e742069643d277061696e74315f6c696e6561725f323337315f353538363836272078313d27382e3132272079313d2734272078323d27342e3132272079323d273827206772616469656e74556e6974733d277573657253706163654f6e557365273e3c6c696e6561724772616469656e742069643d277061696e74315f6c696e6561725f323337315f353538363833272078313d27382e3132272079313d2734272078323d27342e3132272079323d273827206772616469656e74556e6974733d277573657253706163654f6e557365273e3c6c696e6561724772616469656e742069643d27524f554e4445445f424f524445525f544945525f34272078313d2731303025272079313d2731362e3625272078323d2731303025272079323d2731303025273c7265637420783d27312e31322720793d2731272077696474683d27313027206865696768743d273130272066696c6c3d2775726c28237061696e74305f6c696e6561725f313332315f3132393031372927207374726f6b653d27776869746527207374726f6b652d6f7061636974793d27302e35272f3e3c2f6c696e6561724772616469656e743e3c6c696e6561724772616469656e742069643d274752414449454e545f424f4152445f544945525f34272078313d27353025272079313d2731303025272078323d27353025272079323d273027206772616469656e74556e6974733d277573657253706163654f6e5573652720786d6c6e733d27687474703a2f2f7777772e77332e6f72672f323030302f737667273ea26469706673582212200d6a916268b3904a36fe49e047bee7c2a80ce6f7d16068145aa7c21485c9fce264736f6c634300080b0033",
  "devdoc": {
    "author": "Pedro Bergamini, Basil Gorin",
    "kind": "dev",
    "methods": {
      "tokenURI(uint256)": {
        "params": {
          "_tokenId": "token ID of the land plot to generate SVG for"
        }
      }
    },
    "title": "Land Descriptor Implementation",
    "version": 1
  },
  "userdoc": {
    "errors": {
      "PRBMathUD60x18__CeilOverflow(uint256)": [
        {
          "notice": "Emitted when ceiling a number overflows UD60x18."
        }
      ],
      "PRBMathUD60x18__FromUintOverflow(uint256)": [
        {
          "notice": "Emitted when converting a basic integer to the fixed-point format format overflows UD60x18."
        }
      ],
      "PRBMath__MulDivFixedPointOverflow(uint256)": [
        {
          "notice": "Emitted when the result overflows uint256."
        }
      ],
      "PRBMath__MulDivOverflow(uint256,uint256)": [
        {
          "notice": "Emitted when the result overflows uint256."
        }
      ]
    },
    "kind": "user",
    "methods": {
      "tokenURI(uint256)": {
        "notice": "Creates SVG image with the land plot metadata painted on it,      encodes the generated SVG into base64 URI string"
      }
    },
    "notice": "Basic implementation of the LandDescriptor interface",
    "version": 1
  },
  "storageLayout": {
    "storage": [],
    "types": null
  }
}