{
  "address": "0x2d3dA8baf8ab716f2a298C2b36346a2BadA0816f",
  "abi": [
    {
      "anonymous": false,
      "inputs": [
        {
          "indexed": false,
          "internalType": "address",
          "name": "previousAdmin",
          "type": "address"
        },
        {
          "indexed": false,
          "internalType": "address",
          "name": "newAdmin",
          "type": "address"
        }
      ],
      "name": "AdminChanged",
      "type": "event"
    },
    {
      "anonymous": false,
      "inputs": [
        {
          "indexed": true,
          "internalType": "address",
          "name": "owner",
          "type": "address"
        },
        {
          "indexed": true,
          "internalType": "address",
          "name": "approved",
          "type": "address"
        },
        {
          "indexed": true,
          "internalType": "uint256",
          "name": "tokenId",
          "type": "uint256"
        }
      ],
      "name": "Approval",
      "type": "event"
    },
    {
      "anonymous": false,
      "inputs": [
        {
          "indexed": true,
          "internalType": "address",
          "name": "owner",
          "type": "address"
        },
        {
          "indexed": true,
          "internalType": "address",
          "name": "operator",
          "type": "address"
        },
        {
          "indexed": false,
          "internalType": "bool",
          "name": "approved",
          "type": "bool"
        }
      ],
      "name": "ApprovalForAll",
      "type": "event"
    },
    {
      "anonymous": false,
      "inputs": [
        {
          "indexed": true,
          "internalType": "address",
          "name": "_by",
          "type": "address"
        },
        {
          "indexed": false,
          "internalType": "string",
          "name": "oldVal",
          "type": "string"
        },
        {
          "indexed": false,
          "internalType": "string",
          "name": "newVal",
          "type": "string"
        }
      ],
      "name": "BaseURIUpdated",
      "type": "event"
    },
    {
      "anonymous": false,
      "inputs": [
        {
          "indexed": true,
          "internalType": "address",
          "name": "beacon",
          "type": "address"
        }
      ],
      "name": "BeaconUpgraded",
      "type": "event"
    },
    {
      "anonymous": false,
      "inputs": [
        {
          "indexed": true,
          "internalType": "address",
          "name": "_by",
          "type": "address"
        },
        {
          "indexed": false,
          "internalType": "string",
          "name": "_value",
          "type": "string"
        }
      ],
      "name": "ContractURIUpdated",
      "type": "event"
    },
    {
      "anonymous": false,
      "inputs": [
        {
          "indexed": true,
          "internalType": "address",
          "name": "_by",
          "type": "address"
        },
        {
          "indexed": true,
          "internalType": "address",
          "name": "_oldImpl",
          "type": "address"
        },
        {
          "indexed": true,
          "internalType": "address",
          "name": "_newImpl",
          "type": "address"
        }
      ],
      "name": "LandDescriptorUpdated",
      "type": "event"
    },
    {
      "anonymous": false,
      "inputs": [
        {
          "indexed": true,
          "internalType": "address",
          "name": "_by",
          "type": "address"
        },
        {
          "indexed": true,
          "internalType": "uint256",
          "name": "_tokenId",
          "type": "uint256"
        },
        {
          "components": [
            {
              "internalType": "uint8",
              "name": "version",
              "type": "uint8"
            },
            {
              "internalType": "uint8",
              "name": "regionId",
              "type": "uint8"
            },
            {
              "internalType": "uint16",
              "name": "x",
              "type": "uint16"
            },
            {
              "internalType": "uint16",
              "name": "y",
              "type": "uint16"
            },
            {
              "internalType": "uint8",
              "name": "tierId",
              "type": "uint8"
            },
            {
              "internalType": "uint16",
              "name": "size",
              "type": "uint16"
            },
            {
              "internalType": "uint8",
              "name": "landmarkTypeId",
              "type": "uint8"
            },
            {
              "internalType": "uint8",
              "name": "elementSites",
              "type": "uint8"
            },
            {
              "internalType": "uint8",
              "name": "fuelSites",
              "type": "uint8"
            },
            {
              "internalType": "uint160",
              "name": "seed",
              "type": "uint160"
            }
          ],
          "indexed": false,
          "internalType": "struct LandLib.PlotStore",
          "name": "_plot",
          "type": "tuple"
        }
      ],
      "name": "MetadataRemoved",
      "type": "event"
    },
    {
      "anonymous": false,
      "inputs": [
        {
          "indexed": true,
          "internalType": "address",
          "name": "_by",
          "type": "address"
        },
        {
          "indexed": true,
          "internalType": "uint256",
          "name": "_tokenId",
          "type": "uint256"
        },
        {
          "components": [
            {
              "internalType": "uint8",
              "name": "version",
              "type": "uint8"
            },
            {
              "internalType": "uint8",
              "name": "regionId",
              "type": "uint8"
            },
            {
              "internalType": "uint16",
              "name": "x",
              "type": "uint16"
            },
            {
              "internalType": "uint16",
              "name": "y",
              "type": "uint16"
            },
            {
              "internalType": "uint8",
              "name": "tierId",
              "type": "uint8"
            },
            {
              "internalType": "uint16",
              "name": "size",
              "type": "uint16"
            },
            {
              "internalType": "uint8",
              "name": "landmarkTypeId",
              "type": "uint8"
            },
            {
              "internalType": "uint8",
              "name": "elementSites",
              "type": "uint8"
            },
            {
              "internalType": "uint8",
              "name": "fuelSites",
              "type": "uint8"
            },
            {
              "internalType": "uint160",
              "name": "seed",
              "type": "uint160"
            }
          ],
          "indexed": false,
          "internalType": "struct LandLib.PlotStore",
          "name": "_plot",
          "type": "tuple"
        }
      ],
      "name": "MetadataUpdated",
      "type": "event"
    },
    {
      "anonymous": false,
      "inputs": [
        {
          "indexed": true,
          "internalType": "address",
          "name": "_by",
          "type": "address"
        },
        {
          "indexed": true,
          "internalType": "address",
          "name": "_oldVal",
          "type": "address"
        },
        {
          "indexed": true,
          "internalType": "address",
          "name": "_newVal",
          "type": "address"
        }
      ],
      "name": "OwnerUpdated",
      "type": "event"
    },
    {
      "anonymous": false,
      "inputs": [
        {
          "indexed": true,
          "internalType": "address",
          "name": "_by",
          "type": "address"
        },
        {
          "indexed": true,
          "internalType": "address",
          "name": "_to",
          "type": "address"
        },
        {
          "indexed": false,
          "internalType": "uint256",
          "name": "_requested",
          "type": "uint256"
        },
        {
          "indexed": false,
          "internalType": "uint256",
          "name": "_actual",
          "type": "uint256"
        }
      ],
      "name": "RoleUpdated",
      "type": "event"
    },
    {
      "anonymous": false,
      "inputs": [
        {
          "indexed": true,
          "internalType": "address",
          "name": "_by",
          "type": "address"
        },
        {
          "indexed": true,
          "internalType": "address",
          "name": "_receiver",
          "type": "address"
        },
        {
          "indexed": false,
          "internalType": "uint16",
          "name": "_percentage",
          "type": "uint16"
        }
      ],
      "name": "RoyaltyInfoUpdated",
      "type": "event"
    },
    {
      "anonymous": false,
      "inputs": [
        {
          "indexed": true,
          "internalType": "address",
          "name": "_by",
          "type": "address"
        },
        {
          "indexed": false,
          "internalType": "uint256",
          "name": "tokenId",
          "type": "uint256"
        },
        {
          "indexed": false,
          "internalType": "string",
          "name": "oldVal",
          "type": "string"
        },
        {
          "indexed": false,
          "internalType": "string",
          "name": "newVal",
          "type": "string"
        }
      ],
      "name": "TokenURIUpdated",
      "type": "event"
    },
    {
      "anonymous": false,
      "inputs": [
        {
          "indexed": true,
          "internalType": "address",
          "name": "from",
          "type": "address"
        },
        {
          "indexed": true,
          "internalType": "address",
          "name": "to",
          "type": "address"
        },
        {
          "indexed": true,
          "internalType": "uint256",
          "name": "tokenId",
          "type": "uint256"
        }
      ],
      "name": "Transfer",
      "type": "event"
    },
    {
      "anonymous": false,
      "inputs": [
        {
          "indexed": true,
          "internalType": "address",
          "name": "implementation",
          "type": "address"
        }
      ],
      "name": "Upgraded",
      "type": "event"
    },
    {
      "inputs": [],
      "name": "FEATURE_BURNS_ON_BEHALF",
      "outputs": [
        {
          "internalType": "uint32",
          "name": "",
          "type": "uint32"
        }
      ],
      "stateMutability": "view",
      "type": "function"
    },
    {
      "inputs": [],
      "name": "FEATURE_OWN_BURNS",
      "outputs": [
        {
          "internalType": "uint32",
          "name": "",
          "type": "uint32"
        }
      ],
      "stateMutability": "view",
      "type": "function"
    },
    {
      "inputs": [],
      "name": "FEATURE_TRANSFERS",
      "outputs": [
        {
          "internalType": "uint32",
          "name": "",
          "type": "uint32"
        }
      ],
      "stateMutability": "view",
      "type": "function"
    },
    {
      "inputs": [],
      "name": "FEATURE_TRANSFERS_ON_BEHALF",
      "outputs": [
        {
          "internalType": "uint32",
          "name": "",
          "type": "uint32"
        }
      ],
      "stateMutability": "view",
      "type": "function"
    },
    {
      "inputs": [],
      "name": "ROLE_ACCESS_MANAGER",
      "outputs": [
        {
          "internalType": "uint256",
          "name": "",
          "type": "uint256"
        }
      ],
      "stateMutability": "view",
      "type": "function"
    },
    {
      "inputs": [],
      "name": "ROLE_METADATA_PROVIDER",
      "outputs": [
        {
          "internalType": "uint32",
          "name": "",
          "type": "uint32"
        }
      ],
      "stateMutability": "view",
      "type": "function"
    },
    {
      "inputs": [],
      "name": "ROLE_OWNER_MANAGER",
      "outputs": [
        {
          "internalType": "uint32",
          "name": "",
          "type": "uint32"
        }
      ],
      "stateMutability": "view",
      "type": "function"
    },
    {
      "inputs": [],
      "name": "ROLE_RESCUE_MANAGER",
      "outputs": [
        {
          "internalType": "uint32",
          "name": "",
          "type": "uint32"
        }
      ],
      "stateMutability": "view",
      "type": "function"
    },
    {
      "inputs": [],
      "name": "ROLE_ROYALTY_MANAGER",
      "outputs": [
        {
          "internalType": "uint32",
          "name": "",
          "type": "uint32"
        }
      ],
      "stateMutability": "view",
      "type": "function"
    },
    {
      "inputs": [],
      "name": "ROLE_TOKEN_CREATOR",
      "outputs": [
        {
          "internalType": "uint32",
          "name": "",
          "type": "uint32"
        }
      ],
      "stateMutability": "view",
      "type": "function"
    },
    {
      "inputs": [],
      "name": "ROLE_TOKEN_DESTROYER",
      "outputs": [
        {
          "internalType": "uint32",
          "name": "",
          "type": "uint32"
        }
      ],
      "stateMutability": "view",
      "type": "function"
    },
    {
      "inputs": [],
      "name": "ROLE_UPGRADE_MANAGER",
      "outputs": [
        {
          "internalType": "uint256",
          "name": "",
          "type": "uint256"
        }
      ],
      "stateMutability": "view",
      "type": "function"
    },
    {
      "inputs": [],
      "name": "ROLE_URI_MANAGER",
      "outputs": [
        {
          "internalType": "uint32",
          "name": "",
          "type": "uint32"
        }
      ],
      "stateMutability": "view",
      "type": "function"
    },
    {
      "inputs": [],
      "name": "TOKEN_UID",
      "outputs": [
        {
          "internalType": "uint256",
          "name": "",
          "type": "uint256"
        }
      ],
      "stateMutability": "view",
      "type": "function"
    },
    {
      "inputs": [
        {
          "internalType": "address",
          "name": "to",
          "type": "address"
        },
        {
          "internalType": "uint256",
          "name": "tokenId",
          "type": "uint256"
        }
      ],
      "name": "approve",
      "outputs": [],
      "stateMutability": "nonpayable",
      "type": "function"
    },
    {
      "inputs": [
        {
          "internalType": "address",
          "name": "owner",
          "type": "address"
        }
      ],
      "name": "balanceOf",
      "outputs": [
        {
          "internalType": "uint256",
          "name": "",
          "type": "uint256"
        }
      ],
      "stateMutability": "view",
      "type": "function"
    },
    {
      "inputs": [],
      "name": "baseURI",
      "outputs": [
        {
          "internalType": "string",
          "name": "",
          "type": "string"
        }
      ],
      "stateMutability": "view",
      "type": "function"
    },
    {
      "inputs": [
        {
          "internalType": "uint256",
          "name": "_tokenId",
          "type": "uint256"
        }
      ],
      "name": "burn",
      "outputs": [],
      "stateMutability": "nonpayable",
      "type": "function"
    },
    {
      "inputs": [],
      "name": "contractURI",
      "outputs": [
        {
          "internalType": "string",
          "name": "",
          "type": "string"
        }
      ],
      "stateMutability": "view",
      "type": "function"
    },
    {
      "inputs": [
        {
          "internalType": "address",
          "name": "operator",
          "type": "address"
        },
        {
          "internalType": "uint256",
          "name": "target",
          "type": "uint256"
        },
        {
          "internalType": "uint256",
          "name": "desired",
          "type": "uint256"
        }
      ],
      "name": "evaluateBy",
      "outputs": [
        {
          "internalType": "uint256",
          "name": "",
          "type": "uint256"
        }
      ],
      "stateMutability": "view",
      "type": "function"
    },
    {
      "inputs": [
        {
          "internalType": "uint256",
          "name": "_tokenId",
          "type": "uint256"
        }
      ],
      "name": "exists",
      "outputs": [
        {
          "internalType": "bool",
          "name": "",
          "type": "bool"
        }
      ],
      "stateMutability": "view",
      "type": "function"
    },
    {
      "inputs": [],
      "name": "features",
      "outputs": [
        {
          "internalType": "uint256",
          "name": "",
          "type": "uint256"
        }
      ],
      "stateMutability": "view",
      "type": "function"
    },
    {
      "inputs": [
        {
          "internalType": "uint256",
          "name": "tokenId",
          "type": "uint256"
        }
      ],
      "name": "getApproved",
      "outputs": [
        {
          "internalType": "address",
          "name": "",
          "type": "address"
        }
      ],
      "stateMutability": "view",
      "type": "function"
    },
    {
      "inputs": [],
      "name": "getImplementation",
      "outputs": [
        {
          "internalType": "address",
          "name": "",
          "type": "address"
        }
      ],
      "stateMutability": "view",
      "type": "function"
    },
    {
      "inputs": [
        {
          "internalType": "uint256",
          "name": "_tokenId",
          "type": "uint256"
        }
      ],
      "name": "getMetadata",
      "outputs": [
        {
          "components": [
            {
              "internalType": "uint8",
              "name": "version",
              "type": "uint8"
            },
            {
              "internalType": "uint8",
              "name": "regionId",
              "type": "uint8"
            },
            {
              "internalType": "uint16",
              "name": "x",
              "type": "uint16"
            },
            {
              "internalType": "uint16",
              "name": "y",
              "type": "uint16"
            },
            {
              "internalType": "uint8",
              "name": "tierId",
              "type": "uint8"
            },
            {
              "internalType": "uint16",
              "name": "size",
              "type": "uint16"
            },
            {
              "internalType": "uint8",
              "name": "landmarkTypeId",
              "type": "uint8"
            },
            {
              "internalType": "uint8",
              "name": "elementSites",
              "type": "uint8"
            },
            {
              "internalType": "uint8",
              "name": "fuelSites",
              "type": "uint8"
            },
            {
              "internalType": "uint160",
              "name": "seed",
              "type": "uint160"
            }
          ],
          "internalType": "struct LandLib.PlotStore",
          "name": "",
          "type": "tuple"
        }
      ],
      "stateMutability": "view",
      "type": "function"
    },
    {
      "inputs": [
        {
          "internalType": "uint256",
          "name": "_tokenId",
          "type": "uint256"
        }
      ],
      "name": "hasMetadata",
      "outputs": [
        {
          "internalType": "bool",
          "name": "",
          "type": "bool"
        }
      ],
      "stateMutability": "view",
      "type": "function"
    },
    {
      "inputs": [
        {
          "internalType": "address",
          "name": "owner",
          "type": "address"
        },
        {
          "internalType": "address",
          "name": "operator",
          "type": "address"
        }
      ],
      "name": "isApprovedForAll",
      "outputs": [
        {
          "internalType": "bool",
          "name": "",
          "type": "bool"
        }
      ],
      "stateMutability": "view",
      "type": "function"
    },
    {
      "inputs": [
        {
          "internalType": "uint256",
          "name": "required",
          "type": "uint256"
        }
      ],
      "name": "isFeatureEnabled",
      "outputs": [
        {
          "internalType": "bool",
          "name": "",
          "type": "bool"
        }
      ],
      "stateMutability": "view",
      "type": "function"
    },
    {
      "inputs": [
        {
          "internalType": "address",
          "name": "operator",
          "type": "address"
        },
        {
          "internalType": "uint256",
          "name": "required",
          "type": "uint256"
        }
      ],
      "name": "isOperatorInRole",
      "outputs": [
        {
          "internalType": "bool",
          "name": "",
          "type": "bool"
        }
      ],
      "stateMutability": "view",
      "type": "function"
    },
    {
      "inputs": [
        {
          "internalType": "address",
          "name": "_addr",
          "type": "address"
        }
      ],
      "name": "isOwner",
      "outputs": [
        {
          "internalType": "bool",
          "name": "",
          "type": "bool"
        }
      ],
      "stateMutability": "view",
      "type": "function"
    },
    {
      "inputs": [
        {
          "internalType": "uint256",
          "name": "required",
          "type": "uint256"
        }
      ],
      "name": "isSenderInRole",
      "outputs": [
        {
          "internalType": "bool",
          "name": "",
          "type": "bool"
        }
      ],
      "stateMutability": "view",
      "type": "function"
    },
    {
      "inputs": [],
      "name": "landDescriptor",
      "outputs": [
        {
          "internalType": "address",
          "name": "",
          "type": "address"
        }
      ],
      "stateMutability": "view",
      "type": "function"
    },
    {
      "inputs": [
        {
          "internalType": "address",
          "name": "_to",
          "type": "address"
        },
        {
          "internalType": "uint256",
          "name": "_tokenId",
          "type": "uint256"
        }
      ],
      "name": "mint",
      "outputs": [],
      "stateMutability": "nonpayable",
      "type": "function"
    },
    {
      "inputs": [
        {
          "internalType": "address",
          "name": "_to",
          "type": "address"
        },
        {
          "internalType": "uint256",
          "name": "_quantity",
          "type": "uint256"
        },
        {
          "internalType": "bytes",
          "name": "_mintingBlob",
          "type": "bytes"
        }
      ],
      "name": "mintFor",
      "outputs": [],
      "stateMutability": "nonpayable",
      "type": "function"
    },
    {
      "inputs": [
        {
          "internalType": "address",
          "name": "_to",
          "type": "address"
        },
        {
          "internalType": "uint256",
          "name": "_tokenId",
          "type": "uint256"
        },
        {
          "components": [
            {
              "internalType": "uint8",
              "name": "version",
              "type": "uint8"
            },
            {
              "internalType": "uint8",
              "name": "regionId",
              "type": "uint8"
            },
            {
              "internalType": "uint16",
              "name": "x",
              "type": "uint16"
            },
            {
              "internalType": "uint16",
              "name": "y",
              "type": "uint16"
            },
            {
              "internalType": "uint8",
              "name": "tierId",
              "type": "uint8"
            },
            {
              "internalType": "uint16",
              "name": "size",
              "type": "uint16"
            },
            {
              "internalType": "uint8",
              "name": "landmarkTypeId",
              "type": "uint8"
            },
            {
              "internalType": "uint8",
              "name": "elementSites",
              "type": "uint8"
            },
            {
              "internalType": "uint8",
              "name": "fuelSites",
              "type": "uint8"
            },
            {
              "internalType": "uint160",
              "name": "seed",
              "type": "uint160"
            }
          ],
          "internalType": "struct LandLib.PlotStore",
          "name": "_plot",
          "type": "tuple"
        }
      ],
      "name": "mintWithMetadata",
      "outputs": [],
      "stateMutability": "nonpayable",
      "type": "function"
    },
    {
      "inputs": [],
      "name": "name",
      "outputs": [
        {
          "internalType": "string",
          "name": "",
          "type": "string"
        }
      ],
      "stateMutability": "view",
      "type": "function"
    },
    {
      "inputs": [],
      "name": "owner",
      "outputs": [
        {
          "internalType": "address",
          "name": "",
          "type": "address"
        }
      ],
      "stateMutability": "view",
      "type": "function"
    },
    {
      "inputs": [
        {
          "internalType": "uint256",
          "name": "tokenId",
          "type": "uint256"
        }
      ],
      "name": "ownerOf",
      "outputs": [
        {
          "internalType": "address",
          "name": "",
          "type": "address"
        }
      ],
      "stateMutability": "view",
      "type": "function"
    },
    {
      "inputs": [
        {
          "internalType": "uint256",
          "name": "",
          "type": "uint256"
        }
      ],
      "name": "plotLocations",
      "outputs": [
        {
          "internalType": "uint256",
          "name": "",
          "type": "uint256"
        }
      ],
      "stateMutability": "view",
      "type": "function"
    },
    {
      "inputs": [
        {
          "internalType": "string",
          "name": "_name",
          "type": "string"
        },
        {
          "internalType": "string",
          "name": "_symbol",
          "type": "string"
        }
      ],
      "name": "postConstruct",
      "outputs": [],
      "stateMutability": "nonpayable",
      "type": "function"
    },
    {
      "inputs": [
        {
          "internalType": "uint256",
          "name": "_tokenId",
          "type": "uint256"
        }
      ],
      "name": "removeMetadata",
      "outputs": [],
      "stateMutability": "nonpayable",
      "type": "function"
    },
    {
      "inputs": [
        {
          "internalType": "address",
          "name": "_contract",
          "type": "address"
        },
        {
          "internalType": "address",
          "name": "_to",
          "type": "address"
        },
        {
          "internalType": "uint256",
          "name": "_value",
          "type": "uint256"
        }
      ],
      "name": "rescueErc20",
      "outputs": [],
      "stateMutability": "nonpayable",
      "type": "function"
    },
    {
      "inputs": [
        {
          "internalType": "uint256",
          "name": "",
          "type": "uint256"
        },
        {
          "internalType": "uint256",
          "name": "_salePrice",
          "type": "uint256"
        }
      ],
      "name": "royaltyInfo",
      "outputs": [
        {
          "internalType": "address",
          "name": "receiver",
          "type": "address"
        },
        {
          "internalType": "uint256",
          "name": "royaltyAmount",
          "type": "uint256"
        }
      ],
      "stateMutability": "view",
      "type": "function"
    },
    {
      "inputs": [],
      "name": "royaltyPercentage",
      "outputs": [
        {
          "internalType": "uint16",
          "name": "",
          "type": "uint16"
        }
      ],
      "stateMutability": "view",
      "type": "function"
    },
    {
      "inputs": [],
      "name": "royaltyReceiver",
      "outputs": [
        {
          "internalType": "address",
          "name": "",
          "type": "address"
        }
      ],
      "stateMutability": "view",
      "type": "function"
    },
    {
      "inputs": [
        {
          "internalType": "address",
          "name": "_to",
          "type": "address"
        },
        {
          "internalType": "uint256",
          "name": "_tokenId",
          "type": "uint256"
        },
        {
          "internalType": "bytes",
          "name": "_data",
          "type": "bytes"
        }
      ],
      "name": "safeMint",
      "outputs": [],
      "stateMutability": "nonpayable",
      "type": "function"
    },
    {
      "inputs": [
        {
          "internalType": "address",
          "name": "_to",
          "type": "address"
        },
        {
          "internalType": "uint256",
          "name": "_tokenId",
          "type": "uint256"
        }
      ],
      "name": "safeMint",
      "outputs": [],
      "stateMutability": "nonpayable",
      "type": "function"
    },
    {
      "inputs": [
        {
          "internalType": "address",
          "name": "from",
          "type": "address"
        },
        {
          "internalType": "address",
          "name": "to",
          "type": "address"
        },
        {
          "internalType": "uint256",
          "name": "tokenId",
          "type": "uint256"
        }
      ],
      "name": "safeTransferFrom",
      "outputs": [],
      "stateMutability": "nonpayable",
      "type": "function"
    },
    {
      "inputs": [
        {
          "internalType": "address",
          "name": "from",
          "type": "address"
        },
        {
          "internalType": "address",
          "name": "to",
          "type": "address"
        },
        {
          "internalType": "uint256",
          "name": "tokenId",
          "type": "uint256"
        },
        {
          "internalType": "bytes",
          "name": "_data",
          "type": "bytes"
        }
      ],
      "name": "safeTransferFrom",
      "outputs": [],
      "stateMutability": "nonpayable",
      "type": "function"
    },
    {
      "inputs": [
        {
          "internalType": "address",
          "name": "operator",
          "type": "address"
        },
        {
          "internalType": "bool",
          "name": "approved",
          "type": "bool"
        }
      ],
      "name": "setApprovalForAll",
      "outputs": [],
      "stateMutability": "nonpayable",
      "type": "function"
    },
    {
      "inputs": [
        {
          "internalType": "string",
          "name": "__baseURI",
          "type": "string"
        }
      ],
      "name": "setBaseURI",
      "outputs": [],
      "stateMutability": "nonpayable",
      "type": "function"
    },
    {
      "inputs": [
        {
          "internalType": "string",
          "name": "_contractURI",
          "type": "string"
        }
      ],
      "name": "setContractURI",
      "outputs": [],
      "stateMutability": "nonpayable",
      "type": "function"
    },
    {
      "inputs": [
        {
          "internalType": "address",
          "name": "_landDescriptor",
          "type": "address"
        }
      ],
      "name": "setLandDescriptor",
      "outputs": [],
      "stateMutability": "nonpayable",
      "type": "function"
    },
    {
      "inputs": [
        {
          "internalType": "uint256",
          "name": "_tokenId",
          "type": "uint256"
        },
        {
          "components": [
            {
              "internalType": "uint8",
              "name": "version",
              "type": "uint8"
            },
            {
              "internalType": "uint8",
              "name": "regionId",
              "type": "uint8"
            },
            {
              "internalType": "uint16",
              "name": "x",
              "type": "uint16"
            },
            {
              "internalType": "uint16",
              "name": "y",
              "type": "uint16"
            },
            {
              "internalType": "uint8",
              "name": "tierId",
              "type": "uint8"
            },
            {
              "internalType": "uint16",
              "name": "size",
              "type": "uint16"
            },
            {
              "internalType": "uint8",
              "name": "landmarkTypeId",
              "type": "uint8"
            },
            {
              "internalType": "uint8",
              "name": "elementSites",
              "type": "uint8"
            },
            {
              "internalType": "uint8",
              "name": "fuelSites",
              "type": "uint8"
            },
            {
              "internalType": "uint160",
              "name": "seed",
              "type": "uint160"
            }
          ],
          "internalType": "struct LandLib.PlotStore",
          "name": "_plot",
          "type": "tuple"
        }
      ],
      "name": "setMetadata",
      "outputs": [],
      "stateMutability": "nonpayable",
      "type": "function"
    },
    {
      "inputs": [
        {
          "internalType": "address",
          "name": "_royaltyReceiver",
          "type": "address"
        },
        {
          "internalType": "uint16",
          "name": "_royaltyPercentage",
          "type": "uint16"
        }
      ],
      "name": "setRoyaltyInfo",
      "outputs": [],
      "stateMutability": "nonpayable",
      "type": "function"
    },
    {
      "inputs": [
        {
          "internalType": "uint256",
          "name": "_tokenId",
          "type": "uint256"
        },
        {
          "internalType": "string",
          "name": "_tokenURI",
          "type": "string"
        }
      ],
      "name": "setTokenURI",
      "outputs": [],
      "stateMutability": "nonpayable",
      "type": "function"
    },
    {
      "inputs": [
        {
          "internalType": "bytes4",
          "name": "interfaceId",
          "type": "bytes4"
        }
      ],
      "name": "supportsInterface",
      "outputs": [
        {
          "internalType": "bool",
          "name": "",
          "type": "bool"
        }
      ],
      "stateMutability": "view",
      "type": "function"
    },
    {
      "inputs": [],
      "name": "symbol",
      "outputs": [
        {
          "internalType": "string",
          "name": "",
          "type": "string"
        }
      ],
      "stateMutability": "view",
      "type": "function"
    },
    {
      "inputs": [
        {
          "internalType": "uint256",
          "name": "index",
          "type": "uint256"
        }
      ],
      "name": "tokenByIndex",
      "outputs": [
        {
          "internalType": "uint256",
          "name": "",
          "type": "uint256"
        }
      ],
      "stateMutability": "view",
      "type": "function"
    },
    {
      "inputs": [
        {
          "internalType": "address",
          "name": "owner",
          "type": "address"
        },
        {
          "internalType": "uint256",
          "name": "index",
          "type": "uint256"
        }
      ],
      "name": "tokenOfOwnerByIndex",
      "outputs": [
        {
          "internalType": "uint256",
          "name": "",
          "type": "uint256"
        }
      ],
      "stateMutability": "view",
      "type": "function"
    },
    {
      "inputs": [
        {
          "internalType": "uint256",
          "name": "_tokenId",
          "type": "uint256"
        }
      ],
      "name": "tokenURI",
      "outputs": [
        {
          "internalType": "string",
          "name": "",
          "type": "string"
        }
      ],
      "stateMutability": "view",
      "type": "function"
    },
    {
      "inputs": [],
      "name": "totalSupply",
      "outputs": [
        {
          "internalType": "uint256",
          "name": "",
          "type": "uint256"
        }
      ],
      "stateMutability": "view",
      "type": "function"
    },
    {
      "inputs": [
        {
          "internalType": "address",
          "name": "from",
          "type": "address"
        },
        {
          "internalType": "address",
          "name": "to",
          "type": "address"
        },
        {
          "internalType": "uint256",
          "name": "tokenId",
          "type": "uint256"
        }
      ],
      "name": "transferFrom",
      "outputs": [],
      "stateMutability": "nonpayable",
      "type": "function"
    },
    {
      "inputs": [
        {
          "internalType": "address",
          "name": "_owner",
          "type": "address"
        }
      ],
      "name": "transferOwnership",
      "outputs": [],
      "stateMutability": "nonpayable",
      "type": "function"
    },
    {
      "inputs": [
        {
          "internalType": "uint256",
          "name": "_mask",
          "type": "uint256"
        }
      ],
      "name": "updateFeatures",
      "outputs": [],
      "stateMutability": "nonpayable",
      "type": "function"
    },
    {
      "inputs": [
        {
          "internalType": "address",
          "name": "operator",
          "type": "address"
        },
        {
          "internalType": "uint256",
          "name": "role",
          "type": "uint256"
        }
      ],
      "name": "updateRole",
      "outputs": [],
      "stateMutability": "nonpayable",
      "type": "function"
    },
    {
      "inputs": [
        {
          "internalType": "address",
          "name": "newImplementation",
          "type": "address"
        }
      ],
      "name": "upgradeTo",
      "outputs": [],
      "stateMutability": "nonpayable",
      "type": "function"
    },
    {
      "inputs": [
        {
          "internalType": "address",
          "name": "newImplementation",
          "type": "address"
        },
        {
          "internalType": "bytes",
          "name": "data",
          "type": "bytes"
        }
      ],
      "name": "upgradeToAndCall",
      "outputs": [],
      "stateMutability": "payable",
      "type": "function"
    },
    {
      "inputs": [
        {
          "internalType": "address",
          "name": "",
          "type": "address"
        }
      ],
      "name": "userRoles",
      "outputs": [
        {
          "internalType": "uint256",
          "name": "",
          "type": "uint256"
        }
      ],
      "stateMutability": "view",
      "type": "function"
    },
    {
      "inputs": [
        {
          "internalType": "uint256",
          "name": "_tokenId",
          "type": "uint256"
        }
      ],
      "name": "viewMetadata",
      "outputs": [
        {
          "components": [
            {
              "internalType": "uint8",
              "name": "regionId",
              "type": "uint8"
            },
            {
              "internalType": "uint16",
              "name": "x",
              "type": "uint16"
            },
            {
              "internalType": "uint16",
              "name": "y",
              "type": "uint16"
            },
            {
              "internalType": "uint8",
              "name": "tierId",
              "type": "uint8"
            },
            {
              "internalType": "uint16",
              "name": "size",
              "type": "uint16"
            },
            {
              "internalType": "uint8",
              "name": "landmarkTypeId",
              "type": "uint8"
            },
            {
              "internalType": "uint8",
              "name": "elementSites",
              "type": "uint8"
            },
            {
              "internalType": "uint8",
              "name": "fuelSites",
              "type": "uint8"
            },
            {
              "components": [
                {
                  "internalType": "uint8",
                  "name": "typeId",
                  "type": "uint8"
                },
                {
                  "internalType": "uint16",
                  "name": "x",
                  "type": "uint16"
                },
                {
                  "internalType": "uint16",
                  "name": "y",
                  "type": "uint16"
                }
              ],
              "internalType": "struct LandLib.Site[]",
              "name": "sites",
              "type": "tuple[]"
            }
          ],
          "internalType": "struct LandLib.PlotView",
          "name": "",
          "type": "tuple"
        }
      ],
      "stateMutability": "view",
      "type": "function"
    }
  ],
  "transactionHash": "0x7157e32b76a3a246379746300acdd394a44c010067d97f9597506245840e14b4",
  "args": [],
  "solcInputHash": "92f0a836c12ad64d9a070bd433ef5bef",
  "bytecode": "0x60a06040523060805234801561001457600080fd5b506080516158456200004660003960008181611560015281816115a00152818161171f015261175f01526158456000f3fe6080604052600436106104055760003560e01c80638832e6e311610213578063b29a2f4411610123578063d5bb7f67116100ab578063e985e9c51161007a578063e985e9c514610c76578063f2fde38b14610c96578063f63c2f8214610cb6578063f822d5aa14610ccb578063fcc2c07814610ceb57600080fd5b8063d5bb7f6714610c13578063df1a4a7b14610c33578063e62cac7614610c4a578063e8a3d48514610c6157600080fd5b8063c0d6568d116100f2578063c0d6568d14610b6c578063c688d69314610b81578063c7c02bf514610ba1578063c87b56dd14610bdc578063cc2da7ff14610bfc57600080fd5b8063b29a2f4414610af5578063b346b6cc14610b0c578063b642a81614610b2c578063b88d4fde14610b4c57600080fd5b806395d89b41116101a6578063a574cea411610175578063a574cea414610a63578063aaf10f4214610a90578063ae5b102e14610aa5578063ae60bda414610ac5578063ae682e2e14610add57600080fd5b806395d89b41146109ed5780639fbc871314610a02578063a144819414610a23578063a22cb46514610a4357600080fd5b80638d4e57e6116101e25780638d4e57e6146109805780638da5cb5b146109975780638f6fba8c146109b8578063938e3d7b146109cd57600080fd5b80638832e6e3146108d65780638a114e13146108f65780638a2b96081461092a5780638a71bb2d1461094a57600080fd5b80633659cfe6116103195780634f6ccce7116102a157806370a082311161027057806370a082311461082857806372504a2414610848578063725f36261461086857806374d5e10014610888578063862c191c146108b657600080fd5b80634f6ccce7146107b357806355f804b3146107d35780636352211e146107f35780636c0360eb1461081357600080fd5b806342966c68116102e857806342966c681461071157806348d4967e146107315780634e5624f9146107525780634f1ef286146107805780634f558e791461079357600080fd5b80633659cfe61461068457806340c10f19146106a457806340d5a0ee146106c457806342842e0e146106f157600080fd5b806319ee6e3f1161039c5780632a55205a1161036b5780632a55205a146105bb5780632b521416146105fa5780632d17f8bc1461061d5780632f54bf6e146106345780632f745c591461066457600080fd5b806319ee6e3f146105465780631a0b04ea1461056657806323b872dd1461057b578063243feb991461059b57600080fd5b80630c3fb9dc116103d85780630c3fb9dc146104bb57806314b7b4e1146104db578063162094c41461050757806318160ddd1461052757600080fd5b806301ffc9a71461040a57806306fdde031461043f578063081812fc14610461578063095ea7b314610499575b600080fd5b34801561041657600080fd5b5061042a6104253660046147e0565b610d0b565b60405190151581526020015b60405180910390f35b34801561044b57600080fd5b50610454610d52565b6040516104369190614855565b34801561046d57600080fd5b5061048161047c366004614868565b610de4565b6040516001600160a01b039091168152602001610436565b3480156104a557600080fd5b506104b96104b4366004614896565b610e71565b005b3480156104c757600080fd5b506104b96104d6366004614a2d565b610f87565b3480156104e757600080fd5b506104f26204000081565b60405163ffffffff9091168152602001610436565b34801561051357600080fd5b506104b9610522366004614ad8565b61127d565b34801561053357600080fd5b506099545b604051908152602001610436565b34801561055257600080fd5b506104b9610561366004614b1e565b6112f6565b34801561057257600080fd5b506104f2600881565b34801561058757600080fd5b506104b9610596366004614ba6565b61136d565b3480156105a757600080fd5b506104b96105b6366004614ba6565b61139e565b3480156105c757600080fd5b506105db6105d6366004614be7565b61147d565b604080516001600160a01b039093168352602083019190915201610436565b34801561060657600080fd5b5030600090815261015f6020526040902054610538565b34801561062957600080fd5b506104f26208000081565b34801561064057600080fd5b5061042a61064f366004614c09565b6101c3546001600160a01b0391821691161490565b34801561067057600080fd5b5061053861067f366004614896565b6114bf565b34801561069057600080fd5b506104b961069f366004614c09565b611555565b3480156106b057600080fd5b506104b96106bf366004614896565b61161e565b3480156106d057600080fd5b506106e46106df366004614868565b611628565b6040516104369190614c81565b3480156106fd57600080fd5b506104b961070c366004614ba6565b6116f0565b34801561071d57600080fd5b506104b961072c366004614868565b61170b565b34801561073d57600080fd5b506101f554610481906001600160a01b031681565b34801561075e57600080fd5b5061053861076d366004614868565b6101f76020526000908152604090205481565b6104b961078e366004614d2a565b611714565b34801561079f57600080fd5b5061042a6107ae366004614868565b6117ca565b3480156107bf57600080fd5b506105386107ce366004614868565b6117d5565b3480156107df57600080fd5b506104b96107ee366004614d63565b611868565b3480156107ff57600080fd5b5061048161080e366004614868565b6118e9565b34801561081f57600080fd5b50610454611960565b34801561083457600080fd5b50610538610843366004614c09565b6119ef565b34801561085457600080fd5b506104b9610863366004614d97565b611a76565b34801561087457600080fd5b5061042a610883366004614868565b611b5a565b34801561089457600080fd5b506105386108a3366004614c09565b61015f6020526000908152604090205481565b3480156108c257600080fd5b506104b96108d1366004614868565b611b74565b3480156108e257600080fd5b506104b96108f1366004614dc3565b611ba5565b34801561090257600080fd5b506105387f805d1eb685f9eaad4306ed05ef803361e9c0b3aef93774c4b118255ab3f9c7d181565b34801561093657600080fd5b506104b9610945366004614e1b565b611bb0565b34801561095657600080fd5b506101c45461096d90600160a01b900461ffff1681565b60405161ffff9091168152602001610436565b34801561098c57600080fd5b506104f26201000081565b3480156109a357600080fd5b506101c354610481906001600160a01b031681565b3480156109c457600080fd5b506104f2600281565b3480156109d957600080fd5b506104b96109e8366004614d63565b611c2e565b3480156109f957600080fd5b50610454611caf565b348015610a0e57600080fd5b506101c454610481906001600160a01b031681565b348015610a2f57600080fd5b506104b9610a3e366004614896565b611cbe565b348015610a4f57600080fd5b506104b9610a5e366004614e82565b611cc8565b348015610a6f57600080fd5b50610a83610a7e366004614868565b611cd3565b6040516104369190614ebb565b348015610a9c57600080fd5b50610481611d96565b348015610ab157600080fd5b506104b9610ac0366004614896565b611da5565b348015610ad157600080fd5b50610538600160fe1b81565b348015610ae957600080fd5b50610538600160ff1b81565b348015610b0157600080fd5b506104f26210000081565b348015610b1857600080fd5b506104b9610b27366004614f86565b611e4e565b348015610b3857600080fd5b506104b9610b47366004614c09565b611e62565b348015610b5857600080fd5b506104b9610b67366004614fc6565b611eea565b348015610b7857600080fd5b506104f2600181565b348015610b8d57600080fd5b5061042a610b9c366004614896565b611f22565b348015610bad57600080fd5b5061042a610bbc366004614868565b60009081526101f66020526040902054600160381b900461ffff16151590565b348015610be857600080fd5b50610454610bf7366004614868565b611f48565b348015610c0857600080fd5b506104f26220000081565b348015610c1f57600080fd5b506104b9610c2e366004614868565b612036565b348015610c3f57600080fd5b506104f26240000081565b348015610c5657600080fd5b506104f26202000081565b348015610c6d57600080fd5b50610454612040565b348015610c8257600080fd5b5061042a610c91366004615031565b61204e565b348015610ca257600080fd5b506104b9610cb1366004614c09565b61207c565b348015610cc257600080fd5b506104f2601081565b348015610cd757600080fd5b50610538610ce636600461505f565b612104565b348015610cf757600080fd5b5061042a610d06366004614868565b612130565b6000610d168261213c565b80610d3157506001600160e01b03198216631b3453b360e01b145b80610d4c57506001600160e01b031982166319ee6e3f60e01b145b92915050565b606060658054610d6190615094565b80601f0160208091040260200160405190810160405280929190818152602001828054610d8d90615094565b8015610dda5780601f10610daf57610100808354040283529160200191610dda565b820191906000526020600020905b815481529060010190602001808311610dbd57829003601f168201915b5050505050905090565b6000610def82612161565b610e555760405162461bcd60e51b815260206004820152602c60248201527f4552433732313a20617070726f76656420717565727920666f72206e6f6e657860448201526b34b9ba32b73a103a37b5b2b760a11b60648201526084015b60405180910390fd5b506000908152606960205260409020546001600160a01b031690565b6000610e7c826118e9565b9050806001600160a01b0316836001600160a01b03161415610eea5760405162461bcd60e51b815260206004820152602160248201527f4552433732313a20617070726f76616c20746f2063757272656e74206f776e656044820152603960f91b6064820152608401610e4c565b336001600160a01b0382161480610f065750610f06813361204e565b610f785760405162461bcd60e51b815260206004820152603860248201527f4552433732313a20617070726f76652063616c6c6572206973206e6f74206f7760448201527f6e6572206e6f7220617070726f76656420666f7220616c6c00000000000000006064820152608401610e4c565b610f82838361217e565b505050565b610f9362400000612130565b610faf5760405162461bcd60e51b8152600401610e4c906150cf565b60188160a0015161ffff161015610ff45760405162461bcd60e51b81526020600482015260096024820152681d1bdbc81cdb585b1b60ba1b6044820152606401610e4c565b610ffd826117ca565b156110395760405162461bcd60e51b815260206004820152600c60248201526b746f6b656e2065786973747360a01b6044820152606401610e4c565b6101f76000611047836121ec565b64ffffffffff168152602001908152602001600020546000146110995760405162461bcd60e51b815260206004820152600a60248201526939b837ba103a30b5b2b760b11b6044820152606401610e4c565b816101f760006110a8846121ec565b64ffffffffff16815260200190815260200160002081905550806101f6600084815260200190815260200160002060008201518160000160006101000a81548160ff021916908360ff16021790555060208201518160000160016101000a81548160ff021916908360ff16021790555060408201518160000160026101000a81548161ffff021916908361ffff16021790555060608201518160000160046101000a81548161ffff021916908361ffff16021790555060808201518160000160066101000a81548160ff021916908360ff16021790555060a08201518160000160076101000a81548161ffff021916908361ffff16021790555060c08201518160000160096101000a81548160ff021916908360ff16021790555060e082015181600001600a6101000a81548160ff021916908360ff16021790555061010082015181600001600b6101000a81548160ff021916908360ff16021790555061012082015181600001600c6101000a8154816001600160a01b0302191690836001600160a01b0316021790555090505081336001600160a01b03167fea3895ef4b755d56c112a5e8282a5d65dce6ff2551a0a6c41bf7aea9d2db6997836040516112719190614ebb565b60405180910390a35050565b61128962040000612130565b6112a55760405162461bcd60e51b8152600401610e4c906150cf565b336001600160a01b03167f7989fff0ffb34805e8b3574b890ed6157f85a384c69b9a0c04991b24cabb825983836040516112e09291906150f6565b60405180910390a26112f2828261222c565b5050565b826001146113465760405162461bcd60e51b815260206004820152601d60248201527f7175616e74697479206d75737420626520657175616c20746f206f6e650000006044820152606401610e4c565b6000806113538484612236565b915091506113658683610b27846122a7565b505050505050565b6113773382612347565b6113935760405162461bcd60e51b8152600401610e4c9061512e565b610f82838383612411565b6113aa62080000612130565b6113c65760405162461bcd60e51b8152600401610e4c906150cf565b60405163a9059cbb60e01b81526001600160a01b0383811660048301526024820183905284169063a9059cbb906044016020604051808303816000875af1158015611415573d6000803e3d6000fd5b505050506040513d601f19601f82011682018060405250810190611439919061517f565b610f825760405162461bcd60e51b8152602060048201526015602482015274115490cc8c081d1c985b9cd9995c8819985a5b1959605a1b6044820152606401610e4c565b6101c45460009081906001600160a01b03811690612710906114aa90600160a01b900461ffff16866151b2565b6114b491906151e7565b915091509250929050565b60006114ca836119ef565b821061152c5760405162461bcd60e51b815260206004820152602b60248201527f455243373231456e756d657261626c653a206f776e657220696e646578206f7560448201526a74206f6620626f756e647360a81b6064820152608401610e4c565b506001600160a01b03919091166000908152609760209081526040808320938352929052205490565b306001600160a01b037f000000000000000000000000000000000000000000000000000000000000000016141561159e5760405162461bcd60e51b8152600401610e4c906151fb565b7f00000000000000000000000000000000000000000000000000000000000000006001600160a01b03166115d06125bc565b6001600160a01b0316146115f65760405162461bcd60e51b8152600401610e4c90615247565b6115ff816125ea565b6040805160008082526020820190925261161b91839190612613565b50565b6112f2828261275e565b611630614659565b60008281526101f66020908152604091829020825161014081018452905460ff808216835261010080830482169484019490945262010000820461ffff90811695840195909552640100000000820485166060840152600160301b820481166080840152600160381b820490941660a0830152600160481b8104841660c0830152600160501b8104841660e0830152600160581b810490931691810191909152600160601b9091046001600160a01b0316610120820152610d4c906127f4565b610f8283838360405180602001604052806000815250611eea565b61161b816128a5565b306001600160a01b037f000000000000000000000000000000000000000000000000000000000000000016141561175d5760405162461bcd60e51b8152600401610e4c906151fb565b7f00000000000000000000000000000000000000000000000000000000000000006001600160a01b031661178f6125bc565b6001600160a01b0316146117b55760405162461bcd60e51b8152600401610e4c90615247565b6117be826125ea565b6112f282826001612613565b6000610d4c82612161565b60006117e060995490565b82106118435760405162461bcd60e51b815260206004820152602c60248201527f455243373231456e756d657261626c653a20676c6f62616c20696e646578206f60448201526b7574206f6620626f756e647360a01b6064820152608401610e4c565b6099828154811061185657611856615293565b90600052602060002001549050919050565b61187462040000612130565b6118905760405162461bcd60e51b8152600401610e4c906150cf565b336001600160a01b03167fac455070f26733cc10c09e4389a74bf73bdb676d730ee31215c31d20daa88005610191836040516118cd9291906152a9565b60405180910390a280516112f2906101919060208401906146a7565b6000818152606760205260408120546001600160a01b031680610d4c5760405162461bcd60e51b815260206004820152602960248201527f4552433732313a206f776e657220717565727920666f72206e6f6e657869737460448201526832b73a103a37b5b2b760b91b6064820152608401610e4c565b610191805461196e90615094565b80601f016020809104026020016040519081016040528092919081815260200182805461199a90615094565b80156119e75780601f106119bc576101008083540402835291602001916119e7565b820191906000526020600020905b8154815290600101906020018083116119ca57829003601f168201915b505050505081565b60006001600160a01b038216611a5a5760405162461bcd60e51b815260206004820152602a60248201527f4552433732313a2062616c616e636520717565727920666f7220746865207a65604482015269726f206164647265737360b01b6064820152608401610e4c565b506001600160a01b031660009081526068602052604090205490565b611a8262100000612130565b611a9e5760405162461bcd60e51b8152600401610e4c906150cf565b6001600160a01b038216151580611ab7575061ffff8116155b611af65760405162461bcd60e51b815260206004820152601060248201526f34b73b30b634b2103932b1b2b4bb32b960811b6044820152606401610e4c565b6101c480546001600160a01b0384166001600160b01b03199091168117600160a01b61ffff8516908102919091179092556040519182529033907f9ca088b6b695032bcd5d1fa450e8fa2773391294f09e3710ace940c4ae8cffac90602001611271565b30600090815261015f602052604081205482168214610d4c565b611b8062400000612130565b611b9c5760405162461bcd60e51b8152600401610e4c906150cf565b61161b816128ae565b610f82838383612a10565b600054610100900460ff16611bcb5760005460ff1615611bcf565b303b155b611beb5760405162461bcd60e51b8152600401610e4c9061535c565b600054610100900460ff16158015611c0d576000805461ffff19166101011790555b611c18838333612a43565b8015610f82576000805461ff0019169055505050565b611c3a62040000612130565b611c565760405162461bcd60e51b8152600401610e4c906150cf565b8051611c6a906101c59060208401906146a7565b50336001600160a01b03167f1ca91f64ead03abb06ea28975dfbf18044ac06f9fa1cb62a54ccc905df1028ed82604051611ca49190614855565b60405180910390a250565b606060668054610d6190615094565b6112f28282612ad5565b6112f2338383612aef565b611cdb61472b565b5060009081526101f66020908152604091829020825161014081018452905460ff808216835261010080830482169484019490945262010000820461ffff90811695840195909552640100000000820485166060840152600160301b820481166080840152600160381b820490941660a0830152600160481b8104841660c0830152600160501b8104841660e0830152600160581b810490931691810191909152600160601b9091046001600160a01b031661012082015290565b6000611da06125bc565b905090565b611db2600160ff1b612130565b611dce5760405162461bcd60e51b8152600401610e4c906150cf565b6001600160a01b038216600090815261015f6020526040902054611df490339083612104565b6001600160a01b038316600081815261015f60205260409081902083905551909133917f5a10526456f5116c0b7b80582c217d666243fd51b6a2d92c8011e601c2462e5f9161127191869190918252602082015260400190565b611e588282610f87565b610f82838361161e565b611e6e62040000612130565b611e8a5760405162461bcd60e51b8152600401610e4c906150cf565b6101f5546040516001600160a01b0380841692169033907f69b475cc352c93129f2b214ee038cb3a2f9e8eff628947130b9d30bfcbb286d290600090a46101f580546001600160a01b0319166001600160a01b0392909216919091179055565b611ef43383612347565b611f105760405162461bcd60e51b8152600401610e4c9061512e565b611f1c84848484612bbe565b50505050565b6001600160a01b038216600090815261015f6020526040812054821682145b9392505050565b6101f5546060906001600160a01b03161561202d57611f66826117ca565b611fa85760405162461bcd60e51b81526020600482015260136024820152721d1bdad95b88191bd95cdb89dd08195e1a5cdd606a1b6044820152606401610e4c565b6101f55460405163c87b56dd60e01b8152600481018490526000916001600160a01b03169063c87b56dd90602401600060405180830381865afa158015611ff3573d6000803e3d6000fd5b505050506040513d6000823e601f3d908101601f1916820160405261201b91908101906153aa565b80519091501561202b5792915050565b505b610d4c82612bf1565b61161b3082611da5565b6101c5805461196e90615094565b6001600160a01b039182166000908152606a6020908152604080832093909416825291909152205460ff1690565b61208862200000612130565b6120a45760405162461bcd60e51b8152600401610e4c906150cf565b6101c3546040516001600160a01b0380841692169033907fb9312e2100469bd44e3f762c248f4dcc8d7788906fabf34f79db45920c37e26990600090a46101c380546001600160a01b0319166001600160a01b0392909216919091179055565b6001600160a01b0392909216600090815261015f60205260409020546000198084188216189216171690565b6000610d4c3383611f22565b60006001600160e01b0319821663152a902d60e11b1480610d4c5750610d4c82612bfc565b6000908152606760205260409020546001600160a01b0316151590565b600081815260696020526040902080546001600160a01b0319166001600160a01b03841690811790915581906121b3826118e9565b6001600160a01b03167f8c5be1e5ebec7d5bd14f71427d1e84f3dd0314c0f7b2291e5b200ac8c7c3b92560405160405180910390a45050565b6000816040015161ffff166010836060015161ffff1663ffffffff16901b63ffffffff166020846020015160ff1664ffffffffff16901b17179050919050565b6112f28282612c42565b60008060008061224886866000612ccd565b909450915060ff82166122905760405162461bcd60e51b815260206004820152601060248201526f1b9bc81d1bdad95b925908199bdd5b9960821b6044820152606401610e4c565b61229b868684612ccd565b50925050509250929050565b6122af61472b565b60405180610140016040528060f884901c60ff16815260200160f084901c60ff16815260200160e084901c61ffff16815260200160d084901c61ffff16815260200160c884901c60ff16815260200160b884901c61ffff16815260200160b084901c60ff16815260200160a884901c60ff16815260200160a084901c60ff168152602001836001600160a01b03168152509050919050565b600061235282612161565b6123b35760405162461bcd60e51b815260206004820152602c60248201527f4552433732313a206f70657261746f7220717565727920666f72206e6f6e657860448201526b34b9ba32b73a103a37b5b2b760a11b6064820152608401610e4c565b60006123be836118e9565b9050806001600160a01b0316846001600160a01b031614806123f95750836001600160a01b03166123ee84610de4565b6001600160a01b0316145b806124095750612409818561204e565b949350505050565b826001600160a01b0316612424826118e9565b6001600160a01b03161461248c5760405162461bcd60e51b815260206004820152602960248201527f4552433732313a207472616e73666572206f6620746f6b656e2074686174206960448201526839903737ba1037bbb760b91b6064820152608401610e4c565b6001600160a01b0382166124ee5760405162461bcd60e51b8152602060048201526024808201527f4552433732313a207472616e7366657220746f20746865207a65726f206164646044820152637265737360e01b6064820152608401610e4c565b6124f9838383612dbf565b61250460008261217e565b6001600160a01b038316600090815260686020526040812080546001929061252d908490615417565b90915550506001600160a01b038216600090815260686020526040812080546001929061255b90849061542e565b909155505060008181526067602052604080822080546001600160a01b0319166001600160a01b0386811691821790925591518493918716917fddf252ad1be2c89b69c2b068fc378daa952ba7f163c4a11628f55a4df523b3ef91a4505050565b7f360894a13ba1a3210667c828492db98dca3e2076cc3735a920a3ca505d382bbc546001600160a01b031690565b6125f7600160fe1b612130565b61161b5760405162461bcd60e51b8152600401610e4c906150cf565b600061261d6125bc565b905061262884612ec8565b6000835111806126355750815b15612646576126448484612f6d565b505b7f4910fdfa16fed3260ed0e7147f7cc6da11a60208b5b9406d12a635614ffd9143805460ff1661275757805460ff191660011781556040516001600160a01b03831660248201526126c590869060440160408051601f198184030181529190526020810180516001600160e01b0316631b2ce7f360e11b179052612f6d565b50805460ff191681556126d66125bc565b6001600160a01b0316826001600160a01b03161461274e5760405162461bcd60e51b815260206004820152602f60248201527f45524331393637557067726164653a207570677261646520627265616b73206660448201526e75727468657220757067726164657360881b6064820152608401610e4c565b61275785613058565b5050505050565b806127955760405162461bcd60e51b81526020600482015260076024820152661e995c9bc8125160ca1b6044820152606401610e4c565b60008181526101f66020526040902054600160381b900461ffff166127ea5760405162461bcd60e51b815260206004820152600b60248201526a6e6f206d6574616461746160a81b6044820152606401610e4c565b6112f28282613098565b6127fc614659565b604051806101200160405280836020015160ff168152602001836040015161ffff168152602001836060015161ffff168152602001836080015160ff1681526020018360a0015161ffff1681526020018360c0015160ff1681526020018360e0015160ff16815260200183610100015160ff16815260200161289d8461012001516001600160a01b03168560e001518661010001518760a0015160026130ca565b905292915050565b611b9c8161350c565b6128b7816117ca565b156128f35760405162461bcd60e51b815260206004820152600c60248201526b746f6b656e2065786973747360a01b6044820152606401610e4c565b60008181526101f660208181526040808420815161014081018352815460ff808216835261010080830482168488015262010000830461ffff90811696850196909652640100000000830486166060850152600160301b830482166080850152600160381b830490951660a0840152600160481b8204811660c0840152600160501b8204811660e0840152600160581b82041693820193909352600160601b9092046001600160a01b03166101208301528585529290915290829055906101f7906129bd836121ec565b64ffffffffff1681526020019081526020016000206000905581336001600160a01b03167f41cfd09f8d2c85a15d947794c2601b4453cfafd754d63212f3342b5f6ae948b3836040516112719190614ebb565b612a1a838361275e565b612a276000848484613665565b610f825760405162461bcd60e51b8152600401610e4c90615446565b600054610100900460ff16612a5e5760005460ff1615612a62565b303b155b612a7e5760405162461bcd60e51b8152600401610e4c9061535c565b600054610100900460ff16158015612aa0576000805461ffff19166101011790555b612aab848484613763565b6101c380546001600160a01b031916331790558015611f1c576000805461ff001916905550505050565b6112f2828260405180602001604052806000815250612a10565b816001600160a01b0316836001600160a01b03161415612b515760405162461bcd60e51b815260206004820152601960248201527f4552433732313a20617070726f766520746f2063616c6c6572000000000000006044820152606401610e4c565b6001600160a01b038381166000818152606a6020908152604080832094871680845294825291829020805460ff191686151590811790915591519182527f17307eab39ab6107e8899845ad3d59bd9653f200f220920489ca2b5937696c31910160405180910390a3505050565b612bc9848484612411565b612bd584848484613665565b611f1c5760405162461bcd60e51b8152600401610e4c90615446565b6060610d4c826137fa565b6000612c078261395c565b80612c2257506001600160e01b031982166326e2e61760e01b145b80610d4c57506001600160e01b03198216630852cd8d60e31b1492915050565b612c4b82612161565b612cae5760405162461bcd60e51b815260206004820152602e60248201527f45524337323155524953746f726167653a2055524920736574206f66206e6f6e60448201526d32bc34b9ba32b73a103a37b5b2b760911b6064820152608401610e4c565b600082815260c9602090815260409091208251610f82928401906146a7565b6000815b60ff8116841115612d1f57612d0385858360ff16818110612cf457612cf4615293565b9050013560f81c60f81b613981565b15612d0d57612d1f565b80612d1781615498565b915050612cd1565b60ff8116841415612d3557506000905081612db7565b60ff8116841115612db757612d5885858360ff16818110612cf457612cf4615293565b612d6157612db7565b612d6c600a836151b2565b9150603085858360ff16818110612d8557612d85615293565b612d969392013560f81c90506154b8565b612da39060ff168361542e565b915080612daf81615498565b915050612d35565b935093915050565b6001600160a01b0383161580612ddc57506001600160a01b038216155b80612dff57506001600160a01b03831633148015612dff5750612dff6001611b5a565b80612e2357506001600160a01b0383163314801590612e235750612e236002611b5a565b6001600160a01b0384163314612e6e576040518060400160405280602081526020017f7472616e7366657273206f6e20626568616c66206172652064697361626c6564815250612e9e565b604051806040016040528060168152602001751d1c985b9cd9995c9cc8185c9948191a5cd8589b195960521b8152505b90612ebc5760405162461bcd60e51b8152600401610e4c9190614855565b50610f828383836139a0565b803b612f2c5760405162461bcd60e51b815260206004820152602d60248201527f455243313936373a206e657720696d706c656d656e746174696f6e206973206e60448201526c1bdd08184818dbdb9d1c9858dd609a1b6064820152608401610e4c565b7f360894a13ba1a3210667c828492db98dca3e2076cc3735a920a3ca505d382bbc80546001600160a01b0319166001600160a01b0392909216919091179055565b6060823b612fcc5760405162461bcd60e51b815260206004820152602660248201527f416464726573733a2064656c65676174652063616c6c20746f206e6f6e2d636f6044820152651b9d1c9858dd60d21b6064820152608401610e4c565b600080846001600160a01b031684604051612fe791906154db565b600060405180830381855af49150503d8060008114613022576040519150601f19603f3d011682016040523d82523d6000602084013e613027565b606091505b509150915061304f82826040518060600160405280602781526020016157e960279139613a58565b95945050505050565b61306181612ec8565b6040516001600160a01b038216907fbc7cd75a20ee27fd9adebab32041f755214dbc6bffa90cc0225b39da2e5c2d3b90600090a250565b6130a462010000612130565b6130c05760405162461bcd60e51b8152600401610e4c906150cf565b6112f28282613a91565b606060006130d885876154f7565b905060006130e960ff85168661551c565b905060026130f7818361553d565b613101919061551c565b61310c906002615560565b905060606131468984600461312260028761551c565b61312d90600161558a565b6131379087615560565b613141919061553d565b613bd0565b909950905060ff83166001600160401b03811115613166576131666148c2565b6040519080825280602002602001820160405280156131b157816020015b60408051606081018252600080825260208083018290529282015282526000199092019101816131845790505b50935060008080805b8660ff168160ff1610156134fc576131ed8d8d60ff168360ff16106131e05760046131e3565b60015b60ff166003613cf6565b809550819e50505085858260ff168151811061320b5761320b615293565b602002602001015161321d91906155b0565b925085858260ff168151811061323557613235615293565b6020026020010151613247919061551c565b915061ffff86168261325a85600161558a565b613264919061558a565b61326f906002615560565b61ffff1610156132b75761328460028761551c565b61328e908461558a565b925061329b60028761551c565b6132a690600161558a565b6132b0908361558a565b915061333d565b61ffff86166132c7846002615560565b61ffff161180156132fe5750856132df836002615560565b6132e9919061558a565b61ffff166132f8846002615560565b61ffff16115b1561333d5761330e60028761551c565b613318908461553d565b925061332560028761551c565b61333090600161558a565b61333a908361558a565b91505b600161334a60028861551c565b613354919061553d565b61ffff168361ffff161015801561337d575061337160028761551c565b61ffff168361ffff1611155b80156133a75750600161339160028861551c565b61339b919061553d565b61ffff168261ffff1610155b80156133c557506133b960028761551c565b61ffff168261ffff1611155b156134265760046133d6838561558a565b6133e1906002615560565b60026133ee896005615560565b6133f8919061551c565b613402919061553d565b61340c919061553d565b613416908461558a565b925061342360028761551c565b91505b600061343560ff8b168c6155b0565b600261344460ff8d168e61551c565b61344e91906155b0565b613458919061558a565b905060405180606001604052808660ff168152602001828c60ff16876001613480919061558a565b61348a9190615560565b613494919061558a565b61ffff1681526020018260ff8d166134ad87600161558a565b6134b79190615560565b6134c1919061558a565b61ffff16815250898360ff16815181106134dd576134dd615293565b60200260200101819052505080806134f490615498565b9150506131ba565b5050505050505095945050505050565b6000613517826118e9565b905061352562020000612130565b61365c576001600160a01b0381163314801561354657506135466008611b5a565b8061356a57506001600160a01b038116331480159061356a575061356a6010611b5a565b6001600160a01b03821633146135b5576040518060400160405280601c81526020017f6275726e73206f6e20626568616c66206172652064697361626c6564000000008152506135e1565b60405180604001604052806012815260200171189d5c9b9cc8185c9948191a5cd8589b195960721b8152505b906135ff5760405162461bcd60e51b8152600401610e4c9190614855565b50336001600160a01b0382161480613630575061361b82610de4565b6001600160a01b0316336001600160a01b0316145b806136405750613640813361204e565b61365c5760405162461bcd60e51b8152600401610e4c906150cf565b6112f282613d48565b60006001600160a01b0384163b1561375857604051630a85bd0160e11b81526001600160a01b0385169063150b7a02906136a99033908990889088906004016155d1565b6020604051808303816000875af19250505080156136e4575060408051601f3d908101601f191682019092526136e19181019061560e565b60015b61373e573d808015613712576040519150601f19603f3d011682016040523d82523d6000602084013e613717565b606091505b5080516137365760405162461bcd60e51b8152600401610e4c90615446565b805181602001fd5b6001600160e01b031916630a85bd0160e11b149050612409565b506001949350505050565b600054610100900460ff1661377e5760005460ff1615613782565b303b155b61379e5760405162461bcd60e51b8152600401610e4c9061535c565b600054610100900460ff161580156137c0576000805461ffff19166101011790555b6137ca8484613d88565b6137d2613dc9565b6137da613dc9565b6137e382613df2565b8015611f1c576000805461ff001916905550505050565b606061380582612161565b61386b5760405162461bcd60e51b815260206004820152603160248201527f45524337323155524953746f726167653a2055524920717565727920666f72206044820152703737b732bc34b9ba32b73a103a37b5b2b760791b6064820152608401610e4c565b600082815260c960205260408120805461388490615094565b80601f01602080910402602001604051908101604052809291908181526020018280546138b090615094565b80156138fd5780601f106138d2576101008083540402835291602001916138fd565b820191906000526020600020905b8154815290600101906020018083116138e057829003601f168201915b50505050509050600061390e613ebe565b9050805160001415613921575092915050565b81511561395357808260405160200161393b92919061562b565b60405160208183030381529060405292505050919050565b61240984613ece565b60006001600160e01b0319821663780e9d6360e01b1480610d4c5750610d4c82613f98565b6000603060f883901c10801590610d4c575050603a60f89190911c1090565b6001600160a01b0383166139fb576139f681609980546000838152609a60205260408120829055600182018355919091527f72a152ddfb8e864297c917af52ea6c1c68aead0fee1a62673fcc7e0c94979d000155565b613a1e565b816001600160a01b0316836001600160a01b031614613a1e57613a1e8382613fe8565b6001600160a01b038216613a3557610f8281614085565b826001600160a01b0316826001600160a01b031614610f8257610f828282614134565b60608315613a67575081611f41565b825115613a775782518084602001fd5b8160405162461bcd60e51b8152600401610e4c9190614855565b6001600160a01b038216613ae75760405162461bcd60e51b815260206004820181905260248201527f4552433732313a206d696e7420746f20746865207a65726f20616464726573736044820152606401610e4c565b613af081612161565b15613b3d5760405162461bcd60e51b815260206004820152601c60248201527f4552433732313a20746f6b656e20616c7265616479206d696e746564000000006044820152606401610e4c565b613b4960008383612dbf565b6001600160a01b0382166000908152606860205260408120805460019290613b7290849061542e565b909155505060008181526067602052604080822080546001600160a01b0319166001600160a01b03861690811790915590518392907fddf252ad1be2c89b69c2b068fc378daa952ba7f163c4a11628f55a4df523b3ef908290a45050565b600060608360ff166001600160401b03811115613bef57613bef6148c2565b604051908082528060200260200182016040528015613c18578160200160208202803683370190505b50905060005b81518160ff161015613c7257613c3686600086613cf6565b838360ff1681518110613c4b57613c4b615293565b61ffff90921660209283029190910190910152955080613c6a81615498565b915050613c1e565b50613c7c81614178565b6000613c8782614191565b90505b60008112613ce157613c9e86600086613cf6565b838381518110613cb057613cb0615293565b602002602001018161ffff1661ffff168152508197505050613cd182614178565b613cda82614191565b9050613c8a565b50613cec8582614213565b9590945092505050565b60008084604051602001613d0c91815260200190565b60408051601f1981840301815291905280516020909101209150613d3461ffff841683615651565b613d3e908561558a565b9050935093915050565b613d51816142d9565b600081815260c9602052604090208054613d6a90615094565b15905061161b57600081815260c96020526040812061161b9161477f565b600054610100900460ff16613daf5760405162461bcd60e51b8152600401610e4c90615665565b613db7613dc9565b613dbf613dc9565b6112f28282614380565b600054610100900460ff16613df05760405162461bcd60e51b8152600401610e4c90615665565b565b600054610100900460ff16613e0d5760005460ff1615613e11565b303b155b613e2d5760405162461bcd60e51b8152600401610e4c9061535c565b600054610100900460ff16158015613e4f576000805461ffff19166101011790555b6001600160a01b038216600081815261015f60209081526040918290206000199081905582518181529182015233917f5a10526456f5116c0b7b80582c217d666243fd51b6a2d92c8011e601c2462e5f910160405180910390a380156112f2576000805461ff00191690555050565b60606101918054610d6190615094565b6060613ed982612161565b613f3d5760405162461bcd60e51b815260206004820152602f60248201527f4552433732314d657461646174613a2055524920717565727920666f72206e6f60448201526e3732bc34b9ba32b73a103a37b5b2b760891b6064820152608401610e4c565b6000613f47613ebe565b90506000815111613f675760405180602001604052806000815250611f41565b80613f71846143ce565b604051602001613f8292919061562b565b6040516020818303038152906040529392505050565b60006001600160e01b031982166380ac58cd60e01b1480613fc957506001600160e01b03198216635b5e139f60e01b145b80610d4c57506301ffc9a760e01b6001600160e01b0319831614610d4c565b60006001613ff5846119ef565b613fff9190615417565b600083815260986020526040902054909150808214614052576001600160a01b03841660009081526097602090815260408083208584528252808320548484528184208190558352609890915290208190555b5060009182526098602090815260408084208490556001600160a01b039094168352609781528383209183525290812055565b60995460009061409790600190615417565b6000838152609a6020526040812054609980549394509092849081106140bf576140bf615293565b9060005260206000200154905080609983815481106140e0576140e0615293565b6000918252602080832090910192909255828152609a90915260408082208490558582528120556099805480614118576141186156b0565b6001900381819060005260206000200160009055905550505050565b600061413f836119ef565b6001600160a01b039093166000908152609760209081526040808320868452825280832085905593825260989052919091209190915550565b61161b8160006001845161418c91906156c6565b6144cb565b600060015b8251811015614209578281815181106141b1576141b1615293565b602002602001015161ffff16836001836141cb9190615417565b815181106141db576141db615293565b602002602001015161ffff16106141f757611f41600182615417565b8061420181615705565b915050614196565b5060001992915050565b60008060005b83518161ffff1610156142d0576142338560008651613cf6565b85519196509250849061ffff841690811061425057614250615293565b6020026020010151848261ffff168151811061426e5761426e615293565b6020026020010151858361ffff168151811061428c5761428c615293565b60200260200101868561ffff16815181106142a9576142a9615293565b61ffff938416602091820292909201015291169052806142c881615720565b915050614219565b50929392505050565b60006142e4826118e9565b90506142f281600084612dbf565b6142fd60008361217e565b6001600160a01b0381166000908152606860205260408120805460019290614326908490615417565b909155505060008281526067602052604080822080546001600160a01b0319169055518391906001600160a01b038416907fddf252ad1be2c89b69c2b068fc378daa952ba7f163c4a11628f55a4df523b3ef908390a45050565b600054610100900460ff166143a75760405162461bcd60e51b8152600401610e4c90615665565b81516143ba9060659060208501906146a7565b508051610f829060669060208401906146a7565b6060816143f25750506040805180820190915260018152600360fc1b602082015290565b8160005b811561441c578061440681615705565b91506144159050600a836151e7565b91506143f6565b6000816001600160401b03811115614436576144366148c2565b6040519080825280601f01601f191660200182016040528015614460576020820181803683370190505b5090505b841561240957614475600183615417565b9150614482600a86615651565b61448d90603061542e565b60f81b8183815181106144a2576144a2615293565b60200101906001600160f81b031916908160001a9053506144c4600a866151e7565b9450614464565b81818082126144db575050505050565b60008560026144ea87876156c6565b6144f49190615742565b6144fe9087615770565b8151811061450e5761450e615293565b602002602001015190505b818313614633575b8061ffff1686848151811061453857614538615293565b602002602001015161ffff16101561455c5782614554816157b1565b935050614521565b85828151811061456e5761456e615293565b602002602001015161ffff168161ffff161015614597578161458f816157ca565b92505061455c565b81831361462e578582815181106145b0576145b0615293565b60200260200101518684815181106145ca576145ca615293565b60200260200101518785815181106145e4576145e4615293565b602002602001018885815181106145fd576145fd615293565b61ffff9384166020918202929092010152911690528261461c816157b1565b935050818061462a906157ca565b9250505b614519565b81851215614646576146468686846144cb565b83831215611365576113658684866144cb565b604080516101208101825260008082526020820181905291810182905260608082018390526080820183905260a0820183905260c0820183905260e082019290925261010081019190915290565b8280546146b390615094565b90600052602060002090601f0160209004810192826146d5576000855561471b565b82601f106146ee57805160ff191683800117855561471b565b8280016001018555821561471b579182015b8281111561471b578251825591602001919060010190614700565b506147279291506147b5565b5090565b6040805161014081018252600080825260208201819052918101829052606081018290526080810182905260a0810182905260c0810182905260e08101829052610100810182905261012081019190915290565b50805461478b90615094565b6000825580601f1061479b575050565b601f01602090049060005260206000209081019061161b91905b5b8082111561472757600081556001016147b6565b6001600160e01b03198116811461161b57600080fd5b6000602082840312156147f257600080fd5b8135611f41816147ca565b60005b83811015614818578181015183820152602001614800565b83811115611f1c5750506000910152565b600081518084526148418160208601602086016147fd565b601f01601f19169290920160200192915050565b602081526000611f416020830184614829565b60006020828403121561487a57600080fd5b5035919050565b6001600160a01b038116811461161b57600080fd5b600080604083850312156148a957600080fd5b82356148b481614881565b946020939093013593505050565b634e487b7160e01b600052604160045260246000fd5b60405161014081016001600160401b03811182821017156148fb576148fb6148c2565b60405290565b604051601f8201601f191681016001600160401b0381118282101715614929576149296148c2565b604052919050565b803560ff8116811461494257600080fd5b919050565b803561ffff8116811461494257600080fd5b803561494281614881565b6000610140828403121561497757600080fd5b61497f6148d8565b905061498a82614931565b815261499860208301614931565b60208201526149a960408301614947565b60408201526149ba60608301614947565b60608201526149cb60808301614931565b60808201526149dc60a08301614947565b60a08201526149ed60c08301614931565b60c08201526149fe60e08301614931565b60e0820152610100614a11818401614931565b90820152610120614a23838201614959565b9082015292915050565b6000806101608385031215614a4157600080fd5b82359150614a528460208501614964565b90509250929050565b60006001600160401b03821115614a7457614a746148c2565b50601f01601f191660200190565b600082601f830112614a9357600080fd5b8135614aa6614aa182614a5b565b614901565b818152846020838601011115614abb57600080fd5b816020850160208301376000918101602001919091529392505050565b60008060408385031215614aeb57600080fd5b8235915060208301356001600160401b03811115614b0857600080fd5b614b1485828601614a82565b9150509250929050565b60008060008060608587031215614b3457600080fd5b8435614b3f81614881565b93506020850135925060408501356001600160401b0380821115614b6257600080fd5b818701915087601f830112614b7657600080fd5b813581811115614b8557600080fd5b886020828501011115614b9757600080fd5b95989497505060200194505050565b600080600060608486031215614bbb57600080fd5b8335614bc681614881565b92506020840135614bd681614881565b929592945050506040919091013590565b60008060408385031215614bfa57600080fd5b50508035926020909101359150565b600060208284031215614c1b57600080fd5b8135611f4181614881565b600081518084526020808501945080840160005b83811015614c76578151805160ff1688528381015161ffff908116858a0152604091820151169088015260609096019590820190600101614c3a565b509495945050505050565b60208152614c9560208201835160ff169052565b60006020830151614cac604084018261ffff169052565b50604083015161ffff8116606084015250606083015160ff8116608084015250608083015161ffff811660a08401525060a083015160ff811660c08401525060c083015160ff811660e08401525060e0830151610100614d108185018360ff169052565b840151610120848101529050612409610140840182614c26565b60008060408385031215614d3d57600080fd5b8235614d4881614881565b915060208301356001600160401b03811115614b0857600080fd5b600060208284031215614d7557600080fd5b81356001600160401b03811115614d8b57600080fd5b61240984828501614a82565b60008060408385031215614daa57600080fd5b8235614db581614881565b9150614a5260208401614947565b600080600060608486031215614dd857600080fd5b8335614de381614881565b92506020840135915060408401356001600160401b03811115614e0557600080fd5b614e1186828701614a82565b9150509250925092565b60008060408385031215614e2e57600080fd5b82356001600160401b0380821115614e4557600080fd5b614e5186838701614a82565b93506020850135915080821115614e6757600080fd5b50614b1485828601614a82565b801515811461161b57600080fd5b60008060408385031215614e9557600080fd5b8235614ea081614881565b91506020830135614eb081614e74565b809150509250929050565b815160ff16815261014081016020830151614edb602084018260ff169052565b506040830151614ef1604084018261ffff169052565b506060830151614f07606084018261ffff169052565b506080830151614f1c608084018260ff169052565b5060a0830151614f3260a084018261ffff169052565b5060c0830151614f4760c084018260ff169052565b5060e0830151614f5c60e084018260ff169052565b506101008381015160ff1690830152610120928301516001600160a01b0316929091019190915290565b60008060006101808486031215614f9c57600080fd5b8335614fa781614881565b925060208401359150614fbd8560408601614964565b90509250925092565b60008060008060808587031215614fdc57600080fd5b8435614fe781614881565b93506020850135614ff781614881565b92506040850135915060608501356001600160401b0381111561501957600080fd5b61502587828801614a82565b91505092959194509250565b6000806040838503121561504457600080fd5b823561504f81614881565b91506020830135614eb081614881565b60008060006060848603121561507457600080fd5b833561507f81614881565b95602085013595506040909401359392505050565b600181811c908216806150a857607f821691505b602082108114156150c957634e487b7160e01b600052602260045260246000fd5b50919050565b6020808252600d908201526c1858d8d95cdcc819195b9a5959609a1b604082015260600190565b8281526060602082015260086060820152673d32b83832b634b760c11b608082015260a06040820152600061240960a0830184614829565b60208082526031908201527f4552433732313a207472616e736665722063616c6c6572206973206e6f74206f6040820152701ddb995c881b9bdc88185c1c1c9bdd9959607a1b606082015260800190565b60006020828403121561519157600080fd5b8151611f4181614e74565b634e487b7160e01b600052601160045260246000fd5b60008160001904831182151516156151cc576151cc61519c565b500290565b634e487b7160e01b600052601260045260246000fd5b6000826151f6576151f66151d1565b500490565b6020808252602c908201527f46756e6374696f6e206d7573742062652063616c6c6564207468726f7567682060408201526b19195b1959d85d1958d85b1b60a21b606082015260800190565b6020808252602c908201527f46756e6374696f6e206d7573742062652063616c6c6564207468726f7567682060408201526b6163746976652070726f787960a01b606082015260800190565b634e487b7160e01b600052603260045260246000fd5b60408152600080845481600182811c9150808316806152c957607f831692505b60208084108214156152e957634e487b7160e01b86526022600452602486fd5b6040880184905260608801828015615308576001811461531957615344565b60ff19871682528282019750615344565b60008c81526020902060005b8781101561533e57815484820152908601908401615325565b83019850505b505087860381890152505050505061304f8185614829565b6020808252602e908201527f496e697469616c697a61626c653a20636f6e747261637420697320616c72656160408201526d191e481a5b9a5d1a585b1a5e995960921b606082015260800190565b6000602082840312156153bc57600080fd5b81516001600160401b038111156153d257600080fd5b8201601f810184136153e357600080fd5b80516153f1614aa182614a5b565b81815285602083850101111561540657600080fd5b61304f8260208301602086016147fd565b6000828210156154295761542961519c565b500390565b600082198211156154415761544161519c565b500190565b60208082526032908201527f4552433732313a207472616e7366657220746f206e6f6e20455243373231526560408201527131b2b4bb32b91034b6b83632b6b2b73a32b960711b606082015260800190565b600060ff821660ff8114156154af576154af61519c565b60010192915050565b600060ff821660ff8416808210156154d2576154d261519c565b90039392505050565b600082516154ed8184602087016147fd565b9190910192915050565b600060ff821660ff84168060ff038211156155145761551461519c565b019392505050565b600061ffff80841680615531576155316151d1565b92169190910492915050565b600061ffff838116908316818110156155585761555861519c565b039392505050565b600061ffff808316818516818304811182151516156155815761558161519c565b02949350505050565b600061ffff8083168185168083038211156155a7576155a761519c565b01949350505050565b600061ffff808416806155c5576155c56151d1565b92169190910692915050565b6001600160a01b038581168252841660208201526040810183905260806060820181905260009061560490830184614829565b9695505050505050565b60006020828403121561562057600080fd5b8151611f41816147ca565b6000835161563d8184602088016147fd565b8351908301906155a78183602088016147fd565b600082615660576156606151d1565b500690565b6020808252602b908201527f496e697469616c697a61626c653a20636f6e7472616374206973206e6f74206960408201526a6e697469616c697a696e6760a81b606082015260800190565b634e487b7160e01b600052603160045260246000fd5b60008083128015600160ff1b8501841216156156e4576156e461519c565b6001600160ff1b03840183138116156156ff576156ff61519c565b50500390565b60006000198214156157195761571961519c565b5060010190565b600061ffff808316818114156157385761573861519c565b6001019392505050565b600082615751576157516151d1565b600160ff1b82146000198414161561576b5761576b61519c565b500590565b600080821280156001600160ff1b03849003851316156157925761579261519c565b600160ff1b83900384128116156157ab576157ab61519c565b50500190565b60006001600160ff1b038214156157195761571961519c565b6000600160ff1b8214156157e0576157e061519c565b50600019019056fe416464726573733a206c6f772d6c6576656c2064656c65676174652063616c6c206661696c6564a26469706673582212204eaa5d177994c57504533ce1a6541b37a96d6c73a8014effd509b3b2278a121a64736f6c634300080b0033",
  "devdoc": {
    "author": "Basil Gorin",
    "details": "Minting a token requires its metadata to be supplied before or during the minting process;      Burning the token destroys its metadata;      Metadata can be pre-allocated: it can be set/updated/removed for non-existing tokens, and      once the token is minted, its metadata becomes \"frozen\" - immutable, it cannot be changed or removed.",
    "events": {
      "LandDescriptorUpdated(address,address,address)": {
        "details": "Fired in `setLandDescriptor()` when LandDescriptor implementation      is set, updated, or removed (set to zero)",
        "params": {
          "_by": "an address which executed the operation",
          "_newImpl": "new LandDescriptor implementation address (or zero)",
          "_oldImpl": "old LandDescriptor implementation address (or zero)"
        }
      },
      "MetadataRemoved(address,uint256,(uint8,uint8,uint16,uint16,uint8,uint16,uint8,uint8,uint8,uint160))": {
        "details": "Fired in `removeMetadata()` when token metadata is removed",
        "params": {
          "_by": "an address which executed the operation",
          "_plot": "old token metadata (which was removed)",
          "_tokenId": "token ID which metadata was removed"
        }
      },
      "MetadataUpdated(address,uint256,(uint8,uint8,uint16,uint16,uint8,uint16,uint8,uint8,uint8,uint160))": {
        "details": "Fired in `setMetadata()` when token metadata is set/updated",
        "params": {
          "_by": "an address which executed the operation",
          "_plot": "new token metadata",
          "_tokenId": "token ID which metadata was updated/set"
        }
      }
    },
    "kind": "dev",
    "methods": {
      "approve(address,uint256)": {
        "details": "See {IERC721-approve}."
      },
      "balanceOf(address)": {
        "details": "See {IERC721-balanceOf}."
      },
      "burn(uint256)": {
        "details": "Destroys the token with token ID specifiedRequires executor to have `ROLE_TOKEN_DESTROYER` permission      or FEATURE_OWN_BURNS/FEATURE_BURNS_ON_BEHALF features to be enabledCan be disabled by the contract creator forever by disabling      FEATURE_OWN_BURNS/FEATURE_BURNS_ON_BEHALF features and then revoking      its own roles to burn tokens and to enable burning features",
        "params": {
          "_tokenId": "ID of the token to burn"
        }
      },
      "evaluateBy(address,uint256,uint256)": {
        "details": "Calculated based on:      1) operator's own permission set read from userRoles[operator]      2) target permission set - what is already set on the target      3) desired permission set - what do we want set target toCorner cases:      1) Operator is super admin and its permission set is `FULL_PRIVILEGES_MASK`:        `desired` bitset is returned regardless of the `target` permission set value        (what operator sets is what they get)      2) Operator with no permissions (zero bitset):        `target` bitset is returned regardless of the `desired` value        (operator has no authority and cannot modify anything)Example:      Consider an operator with the permissions bitmask     00001111      is about to modify the target permission set          01010101      Operator wants to set that permission set to          00110011      Based on their role, an operator has the permissions      to update only lowest 4 bits on the target, meaning that      high 4 bits of the target set in this example is left      unchanged and low 4 bits get changed as desired:      01010011",
        "params": {
          "desired": "desired set of permissions operator would like to set",
          "operator": "address of the contract operator which is about to set the permissions",
          "target": "input set of permissions to operator is going to modify"
        },
        "returns": {
          "_0": "resulting set of permissions given operator will set"
        }
      },
      "exists(uint256)": {
        "details": "Returns whether the specified token ID has an ownership      information associated with it",
        "params": {
          "_tokenId": "ID of the token to query existence for"
        },
        "returns": {
          "_0": "whether the token exists (true - exists, false - doesn't exist)"
        }
      },
      "features()": {
        "details": "Effectively reads userRoles role for the contract itself",
        "returns": {
          "_0": "256-bit bitmask of the features enabled"
        }
      },
      "getApproved(uint256)": {
        "details": "See {IERC721-getApproved}."
      },
      "getImplementation()": {
        "returns": {
          "_0": "the current implementation address"
        }
      },
      "getMetadata(uint256)": {
        "params": {
          "_tokenId": "token ID to query on-chain metadata for"
        },
        "returns": {
          "_0": "token metadata as a `PlotStore` struct"
        }
      },
      "hasMetadata(uint256)": {
        "details": "If `exists(_tokenId) && hasMetadata(_tokenId)` is true, `setMetadata`      for such a `_tokenId` will always throw",
        "params": {
          "_tokenId": "token ID to check metadata existence for"
        },
        "returns": {
          "_0": "true if token ID specified has metadata associated with it"
        }
      },
      "isApprovedForAll(address,address)": {
        "details": "See {IERC721-isApprovedForAll}."
      },
      "isFeatureEnabled(uint256)": {
        "params": {
          "required": "set of features to check against"
        },
        "returns": {
          "_0": "true if all the features requested are enabled, false otherwise"
        }
      },
      "isOperatorInRole(address,uint256)": {
        "params": {
          "operator": "address of the user to check role for",
          "required": "set of permissions (role) to check"
        },
        "returns": {
          "_0": "true if all the permissions requested are enabled, false otherwise"
        }
      },
      "isOwner(address)": {
        "returns": {
          "_0": "true if the caller is the current owner."
        }
      },
      "isSenderInRole(uint256)": {
        "params": {
          "required": "set of permissions (role) to check against"
        },
        "returns": {
          "_0": "true if all the permissions requested are enabled, false otherwise"
        }
      },
      "mint(address,uint256)": {
        "details": "Creates new token with token ID specified      and assigns an ownership `_to` for this tokenUnsafe: doesn't execute `onERC721Received` on the receiver.      Prefer the use of `saveMint` instead of `mint`.Requires executor to have `ROLE_TOKEN_CREATOR` permission",
        "params": {
          "_to": "an address to mint token to",
          "_tokenId": "ID of the token to mint"
        }
      },
      "mintFor(address,uint256,bytes)": {
        "details": "Restricted access function to mint the token  and assign      the metadata packed into the IMX `mintingBlob` bytes arrayCreates new token with the token ID specified      and assigns an ownership `_to` for this tokenUnsafe: doesn't execute `onERC721Received` on the receiver.Requires executor to have ROLE_METADATA_PROVIDER      and ROLE_TOKEN_CREATOR permissions",
        "params": {
          "_mintingBlob": "blob containing the ID of the NFT and its metadata as      `{tokenId}:{metadata}` string, where `tokenId` is encoded as decimal string,      and metadata can be anything, but most likely is also encoded as decimal string",
          "_quantity": "rudimentary (ERC20 amount of tokens to mint) equal to one,      implementation MUST revert if it not equal to one",
          "_to": "an address to mint token to"
        }
      },
      "mintWithMetadata(address,uint256,(uint8,uint8,uint16,uint16,uint8,uint16,uint8,uint8,uint8,uint160))": {
        "details": "Restricted access function to mint the token      and assign the metadata suppliedCreates new token with the token ID specified      and assigns an ownership `_to` for this tokenUnsafe: doesn't execute `onERC721Received` on the receiver.      Consider minting with `safeMint` (and setting metadata before),      for the \"safe mint\" like behaviorRequires executor to have ROLE_METADATA_PROVIDER      and ROLE_TOKEN_CREATOR permissions",
        "params": {
          "_plot": "token metadata to be set for the token ID",
          "_to": "an address to mint token to",
          "_tokenId": "token ID to mint and set metadata for"
        }
      },
      "name()": {
        "details": "See {IERC721Metadata-name}."
      },
      "ownerOf(uint256)": {
        "details": "See {IERC721-ownerOf}."
      },
      "postConstruct(string,string)": {
        "details": "\"Constructor replacement\" for upgradeable, must be execute immediately after deployment      see https://docs.openzeppelin.com/upgrades-plugins/1.x/writing-upgradeable#initializers param _name token name (ERC721Metadata) param _symbol token symbol (ERC721Metadata)"
      },
      "removeMetadata(uint256)": {
        "details": "Restricted access function to remove token metadataRequires executor to have ROLE_METADATA_PROVIDER permission",
        "params": {
          "_tokenId": "token ID to remove metadata for"
        }
      },
      "rescueErc20(address,address,uint256)": {
        "details": "Restricted access function to rescue accidentally sent ERC20 tokens,      the tokens are rescued via `transfer` function call on the      contract address specified and with the parameters specified:      `_contract.transfer(_to, _value)`Requires executor to have `ROLE_RESCUE_MANAGER` permission",
        "params": {
          "_contract": "smart contract address to execute `transfer` function on",
          "_to": "to address in `transfer(_to, _value)`",
          "_value": "value to transfer in `transfer(_to, _value)`"
        }
      },
      "royaltyInfo(uint256,uint256)": {
        "details": "ERC165 bytes to add to interface array - set in parent contract      implementing this standard:      bytes4(keccak256(\"royaltyInfo(uint256,uint256)\")) == 0x2a55205a      bytes4 private constant _INTERFACE_ID_ERC2981 = 0x2a55205a;      _registerInterface(_INTERFACE_ID_ERC2981);",
        "params": {
          "_salePrice": "the price (in any unit, .e.g wei, ERC20 token, et.c.) of the token to be sold;      the sale price of the NFT asset specified by _tokenId",
          "_tokenId": "token ID to calculate royalty info for;      the NFT asset queried for royalty information"
        },
        "returns": {
          "receiver": "the royalty receiver, an address of who should be sent the royalty payment",
          "royaltyAmount": "royalty amount in the same unit as _salePrice;      the royalty payment amount for _salePrice"
        }
      },
      "safeMint(address,uint256)": {
        "details": "Creates new token with token ID specified      and assigns an ownership `_to` for this tokenChecks if `_to` is a smart contract (code size > 0). If so, it calls      `onERC721Received` on `_to` and throws if the return value is not      `bytes4(keccak256(\"onERC721Received(address,address,uint256,bytes)\"))`.Requires executor to have `ROLE_TOKEN_CREATOR` permission",
        "params": {
          "_to": "an address to mint token to",
          "_tokenId": "ID of the token to mint"
        }
      },
      "safeMint(address,uint256,bytes)": {
        "details": "Creates new token with token ID specified      and assigns an ownership `_to` for this tokenChecks if `_to` is a smart contract (code size > 0). If so, it calls      `onERC721Received` on `_to` and throws if the return value is not      `bytes4(keccak256(\"onERC721Received(address,address,uint256,bytes)\"))`.Requires executor to have `ROLE_TOKEN_CREATOR` permission",
        "params": {
          "_data": "additional data with no specified format, sent in call to `_to`",
          "_to": "an address to mint token to",
          "_tokenId": "ID of the token to mint"
        }
      },
      "safeTransferFrom(address,address,uint256)": {
        "details": "See {IERC721-safeTransferFrom}."
      },
      "safeTransferFrom(address,address,uint256,bytes)": {
        "details": "See {IERC721-safeTransferFrom}."
      },
      "setApprovalForAll(address,bool)": {
        "details": "See {IERC721-setApprovalForAll}."
      },
      "setBaseURI(string)": {
        "details": "Restricted access function which updates base URI used to construct      ERC721Metadata.tokenURIRequires executor to have ROLE_URI_MANAGER permission",
        "params": {
          "__baseURI": "new base URI to set"
        }
      },
      "setContractURI(string)": {
        "details": "Restricted access function which updates the contract URIRequires executor to have ROLE_URI_MANAGER permission",
        "params": {
          "_contractURI": "new contract URI to set"
        }
      },
      "setLandDescriptor(address)": {
        "details": "Restricted access function to set/update/remove the LandDescriptor      implementation address; use zero address to remove the descriptorRequires executor to have ROLE_URI_MANAGER permission",
        "params": {
          "_landDescriptor": "new LandDescriptor implementation address, or zero"
        }
      },
      "setMetadata(uint256,(uint8,uint8,uint16,uint16,uint8,uint16,uint8,uint8,uint8,uint160))": {
        "details": "Sets/updates token metadata on-chain; same metadata struct can be then      read back using `getMetadata()` function, or it can be converted to      `PlotView` using `viewMetadata()` functionThe metadata supplied is validated to satisfy (regionId, x, y) uniqueness;      non-intersection of the sites coordinates within a plot is guaranteed by the      internal land structure generator algorithm embedded into the `viewMetadata()`Metadata for non-existing tokens can be set and updated unlimited      amount of times without any restrictions (except the constraints above)Metadata for an existing token can only be set, it cannot be updated      (`setMetadata` will throw if metadata already exists)Requires executor to have ROLE_METADATA_PROVIDER permission",
        "params": {
          "_plot": "token metadata to be set for the token ID",
          "_tokenId": "token ID to set/updated the metadata for"
        }
      },
      "setRoyaltyInfo(address,uint16)": {
        "details": "Restricted access function which updates the royalty infoRequires executor to have ROLE_ROYALTY_MANAGER permission",
        "params": {
          "_royaltyPercentage": "new royalty percentage to set",
          "_royaltyReceiver": "new royalty receiver to set"
        }
      },
      "setTokenURI(uint256,string)": {
        "details": "Sets the token URI for the token defined by its ID",
        "params": {
          "_tokenId": "an ID of the token to set URI for",
          "_tokenURI": "token URI to set"
        }
      },
      "supportsInterface(bytes4)": {
        "details": "Returns true if this contract implements the interface defined by `interfaceId`. See the corresponding https://eips.ethereum.org/EIPS/eip-165#how-interfaces-are-identified[EIP section] to learn more about how these ids are created. This function call must use less than 30 000 gas."
      },
      "symbol()": {
        "details": "See {IERC721Metadata-symbol}."
      },
      "tokenByIndex(uint256)": {
        "details": "See {IERC721Enumerable-tokenByIndex}."
      },
      "tokenOfOwnerByIndex(address,uint256)": {
        "details": "See {IERC721Enumerable-tokenOfOwnerByIndex}."
      },
      "tokenURI(uint256)": {
        "details": "If land descriptor is set on the contract, uses it to render the URI"
      },
      "totalSupply()": {
        "details": "See {IERC721Enumerable-totalSupply}."
      },
      "transferFrom(address,address,uint256)": {
        "details": "See {IERC721-transferFrom}."
      },
      "transferOwnership(address)": {
        "details": "Restricted access function to set smart contract \"owner\"      Note: an \"owner\" set doesn't have any authority, and cannot even update \"owner\"Requires executor to have ROLE_OWNER_MANAGER permission",
        "params": {
          "_owner": "new \"owner\" of the smart contract"
        }
      },
      "updateFeatures(uint256)": {
        "details": "Requires transaction sender to have `ROLE_ACCESS_MANAGER` permissionFunction is left for backward compatibility with older versions",
        "params": {
          "_mask": "bitmask representing a set of features to enable/disable"
        }
      },
      "updateRole(address,uint256)": {
        "details": "Setting role to zero is equivalent to removing an all permissionsSetting role to `FULL_PRIVILEGES_MASK` is equivalent to      copying senders' permissions (role) to the userRequires transaction sender to have `ROLE_ACCESS_MANAGER` permission",
        "params": {
          "operator": "address of a user to alter permissions for or zero      to alter global features of the smart contract",
          "role": "bitmask representing a set of permissions to      enable/disable for a user specified"
        }
      },
      "upgradeTo(address)": {
        "details": "Upgrade the implementation of the proxy to `newImplementation`. Calls {_authorizeUpgrade}. Emits an {Upgraded} event."
      },
      "upgradeToAndCall(address,bytes)": {
        "details": "Upgrade the implementation of the proxy to `newImplementation`, and subsequently execute the function call encoded in `data`. Calls {_authorizeUpgrade}. Emits an {Upgraded} event."
      },
      "viewMetadata(uint256)": {
        "params": {
          "_tokenId": "token ID to query metadata view for"
        },
        "returns": {
          "_0": "token metadata as a `PlotView` struct"
        }
      }
    },
    "stateVariables": {
      "ROLE_METADATA_PROVIDER": {
        "details": "Role ROLE_METADATA_PROVIDER allows writing tokens' metadata      (calling `setMetadata` function)ROLE_TOKEN_CREATOR and ROLE_METADATA_PROVIDER roles are usually      used together, since the token should always be created with the      metadata supplied"
      },
      "TOKEN_UID": {
        "details": "Smart contract unique identifier, a random numberShould be regenerated each time smart contact source code is changed      and changes smart contract itself is to be redeployedGenerated using https://www.random.org/bytes/Example value: 0x0bcafe95bec2350659433fc61cb9c4fbe18719da00059d525154dfe0d6e8c8fd"
      },
      "__gap": {
        "details": "Empty reserved space in storage. The size of the __gap array is calculated so that      the amount of storage used by a contract always adds up to the 50.      See https://docs.openzeppelin.com/contracts/4.x/upgradeable#storage_gaps"
      },
      "landDescriptor": {
        "details": "Can be added/removed/updated via `setLandDescriptor()` function"
      },
      "plotLocations": {
        "details": "Maps packed plot location (regionId, x, y) => token ID"
      },
      "plots": {
        "details": "Maps token ID => token Metadata (PlotData struct)"
      }
    },
    "title": "Land ERC721",
    "version": 1
  },
  "userdoc": {
    "kind": "user",
    "methods": {
      "FEATURE_BURNS_ON_BEHALF()": {
        "notice": "Enables approved operators to burn tokens on behalf of their owners"
      },
      "FEATURE_OWN_BURNS()": {
        "notice": "Enables token owners to burn their own tokens"
      },
      "FEATURE_TRANSFERS()": {
        "notice": "Enables ERC721 transfers of the tokens      (transfer by the token owner himself)"
      },
      "FEATURE_TRANSFERS_ON_BEHALF()": {
        "notice": "Enables ERC721 transfers on behalf      (transfer by someone else on behalf of token owner)"
      },
      "ROLE_ACCESS_MANAGER()": {
        "notice": "Access manager is responsible for assigning the roles to users,      enabling/disabling global features of the smart contractAccess manager can add, remove and update user roles,      remove and update global features"
      },
      "ROLE_METADATA_PROVIDER()": {
        "notice": "Metadata provider is responsible for writing tokens' metadata      (for an arbitrary token - be it an existing token or non-existing one)The limitation is that for an existing token its metadata can      be written only once, it is impossible to modify existing      token's metadata, its effectively immutable"
      },
      "ROLE_OWNER_MANAGER()": {
        "notice": "Owner manager is responsible for setting/updating an \"owner\" field"
      },
      "ROLE_RESCUE_MANAGER()": {
        "notice": "People do mistakes and may send ERC20 tokens by mistake; since      NFT smart contract is not designed to accept and hold any ERC20 tokens,      it allows the rescue manager to \"rescue\" such lost tokensRescue manager is responsible for \"rescuing\" ERC20 tokens accidentally      sent to the smart contract"
      },
      "ROLE_ROYALTY_MANAGER()": {
        "notice": "Royalty manager is responsible for managing the EIP2981 royalty info"
      },
      "ROLE_TOKEN_CREATOR()": {
        "notice": "Token creator is responsible for creating (minting)      tokens to an arbitrary address"
      },
      "ROLE_TOKEN_DESTROYER()": {
        "notice": "Token destroyer is responsible for destroying (burning)      tokens owned by an arbitrary address"
      },
      "ROLE_UPGRADE_MANAGER()": {
        "notice": "Upgrade manager is responsible for smart contract upgrades,      see https://docs.openzeppelin.com/contracts/4.x/api/proxy#UUPSUpgradeable      see https://docs.openzeppelin.com/contracts/4.x/upgradeable"
      },
      "ROLE_URI_MANAGER()": {
        "notice": "URI manager is responsible for managing base URI      part of the token URI ERC721Metadata interface"
      },
      "contractURI()": {
        "notice": "Contract level metadata to define collection name, description, and royalty fees.         see https://docs.opensea.io/docs/contract-level-metadata"
      },
      "evaluateBy(address,uint256,uint256)": {
        "notice": "Determines the permission bitmask an operator can set on the      target permission setUsed to calculate the permission bitmask to be set when requested     in `updateRole` and `updateFeatures` functions"
      },
      "exists(uint256)": {
        "notice": "Checks if specified token exists"
      },
      "features()": {
        "notice": "Retrieves globally set of features enabled"
      },
      "getImplementation()": {
        "notice": "Returns an address of the implementation smart contract,      see ERC1967Upgrade._getImplementation()"
      },
      "getMetadata(uint256)": {
        "notice": "Presents token metadata \"as is\", without the Internal Land Structure included,      as a `PlotStore` struct;Doesn't reconstruct the internal land structure of the plot, allowing to      access Generator Version, and Seed fields \"as is\""
      },
      "hasMetadata(uint256)": {
        "notice": "Verifies if token has its metadata set on-chain; for the tokens      in existence metadata is immutable, it can be set once, and not updated"
      },
      "isFeatureEnabled(uint256)": {
        "notice": "Checks if requested set of features is enabled globally on the contract"
      },
      "isOperatorInRole(address,uint256)": {
        "notice": "Checks if operator has all the permissions (role) required"
      },
      "isOwner(address)": {
        "notice": "Checks if the address supplied is an \"owner\" of the smart contract      Note: an \"owner\" doesn't have any authority on the smart contract and is \"nominal\""
      },
      "isSenderInRole(uint256)": {
        "notice": "Checks if transaction sender `msg.sender` has all the permissions required"
      },
      "landDescriptor()": {
        "notice": "If set, land descriptor overrides the default behavior of `tokenURI`      ERC721 by delegating URI generation to an external address;      this can be used, for example, to render base64-encoded SVG image      as a token URI"
      },
      "plotLocations(uint256)": {
        "notice": "Auxiliary data structure tracking all the occupied land plot      locations, and used to guarantee the (regionId, x, y) uniqueness"
      },
      "royaltyInfo(uint256,uint256)": {
        "notice": "EIP-2981 function to calculate royalties for sales in secondary marketplaces.         see https://eips.ethereum.org/EIPS/eip-2981"
      },
      "royaltyPercentage()": {
        "notice": "Percentage of token sale price to be used for EIP-2981 royalties from secondary sales         see https://eips.ethereum.org/EIPS/eip-2981"
      },
      "royaltyReceiver()": {
        "notice": "Address to receive EIP-2981 royalties from secondary sales         see https://eips.ethereum.org/EIPS/eip-2981"
      },
      "updateFeatures(uint256)": {
        "notice": "Updates set of the globally enabled features (`features`),      taking into account sender's permissions"
      },
      "updateRole(address,uint256)": {
        "notice": "Updates set of permissions (role) for a given user,      taking into account sender's permissions."
      },
      "userRoles(address)": {
        "notice": "Privileged addresses with defined roles/permissionsIn the context of ERC20/ERC721 tokens these can be permissions to      allow minting or burning tokens, transferring on behalf and so on"
      },
      "viewMetadata(uint256)": {
        "notice": "Presents token metadata in a well readable form,      with the Internal Land Structure included, as a `PlotView` structReconstructs the internal land structure of the plot based on the stored      Tier ID, Plot Size, Generator Version, and Seed"
      }
    },
    "notice": "Land ERC721 (a.k.a Land Plot, Land, or Land NFT) represents land plots in Illuvium: Zero (IZ).      Each token is a piece of land (land plot) on the overall world map in IZ.Land plot is uniquely identified by its region and coordinates (x, y) within the region.      There can be only one plot with the given coordinates (x, y) in a given region.Land plot has internal coordinate system used to place the structures (off-chain).      Land plot may contain \"sites\" with the resources,      a Landmark, increasing the resource production / decreasing resource losses,      or a special type of Landmark - Arena, used to host tournaments.      Sites are positioned on the plot and have their own coordinates (x, y) within a plot.      Number of sites depends on the land plot rarity (tier).      Landmark may exist only in the rare land plots (tier 3 or higher) and resides in the center of the plot.Land plot does not contain details on the structures, these details are stored off-chain.      The fundamental value of the Land is always drawn from the underlying Land NFT,      which produces Fuel in the form of an ERC20 tokens.Land plot metadata is immutable and includes (see `LandView` structure):      - Region ID (1 - 7), determines which tileset to use in game,      - Coordinates (x, y) on the overall world map, indicating which grid position the land sits in,      - Tier ID (1 - 5), the rarity of the land, tier is used to create the list of sites,      - Plot Size, defines an internal coordinate system within a plot,      - Internal Land Structure        - enumeration of sites, each site metadata including:          - Type ID (1 - 6), defining the type of the site:            1) Carbon,            2) Silicon,            3) Hydrogen,            4) Crypton,            5) Hyperion,            6) Solon          - Coordinates (x, y) on the land plot        - Landmark Type ID:            0) no Landmark,            1) Carbon Landmark,            2) Silicon Landmark,            3) Hydrogen Landmark (Eternal Spring),            4) Crypton Landmark,            5) Hyperion Landmark,            6) Solon Landmark (Fallen Star),            7) ArenaRegion ID, Coordinates (x, y), Tier ID, and Plot Size are stored as is, while Internal Land Structure      is derived from Tier ID, Plot Size, and a Seed (see `LandStore` structure)A note on Region, Coordinates (x, y), Tier, Plot Size, and Internal Land Structure.      Land Plot smart contract stores Region, Coordinates (x, y), Tier, Plot Size, and Internal Land Structure      as part of the land metadata on-chain, however the use of these values within the smart contract is limited.      Effectively that means that helper smart contracts, backend, or frontend applications can, to some extent,      treat these values at their own decision, may redefine, enrich, or ignore their meaning.Land NFTs are minted by the trusted helper smart contract(s) (see `LandSale`), which are responsible      for supplying the correct metadata.      Land NFT contract itself doesn't store the Merkle root of the valid land metadata, and      has a limited constraint validation for NFTs it mints/tracks, it guarantees:         - (regionId, x, y) uniqueness         - non-intersection of the sites coordinates within a plot         - correspondence of the number of resource sites and their types to the land tier         - correspondence of the landmark type to the land tierRefer to \"Illuvium: Zero\" design documents for additional information about the game.      Refer to \"Illuvium Land Sale On-chain Architecture\" for additional information about      the technical design of the Land ERC721 token and Land Sale smart contracts and their interaction.",
    "version": 1
  },
  "storageLayout": {
    "storage": [
      {
        "astId": 460,
        "contract": "contracts/token/LandERC721.sol:LandERC721",
        "label": "_initialized",
        "offset": 0,
        "slot": "0",
        "type": "t_bool"
      },
      {
        "astId": 463,
        "contract": "contracts/token/LandERC721.sol:LandERC721",
        "label": "_initializing",
        "offset": 1,
        "slot": "0",
        "type": "t_bool"
      },
      {
        "astId": 2501,
        "contract": "contracts/token/LandERC721.sol:LandERC721",
        "label": "__gap",
        "offset": 0,
        "slot": "1",
        "type": "t_array(t_uint256)50_storage"
      },
      {
        "astId": 2810,
        "contract": "contracts/token/LandERC721.sol:LandERC721",
        "label": "__gap",
        "offset": 0,
        "slot": "51",
        "type": "t_array(t_uint256)50_storage"
      },
      {
        "astId": 667,
        "contract": "contracts/token/LandERC721.sol:LandERC721",
        "label": "_name",
        "offset": 0,
        "slot": "101",
        "type": "t_string_storage"
      },
      {
        "astId": 669,
        "contract": "contracts/token/LandERC721.sol:LandERC721",
        "label": "_symbol",
        "offset": 0,
        "slot": "102",
        "type": "t_string_storage"
      },
      {
        "astId": 673,
        "contract": "contracts/token/LandERC721.sol:LandERC721",
        "label": "_owners",
        "offset": 0,
        "slot": "103",
        "type": "t_mapping(t_uint256,t_address)"
      },
      {
        "astId": 677,
        "contract": "contracts/token/LandERC721.sol:LandERC721",
        "label": "_balances",
        "offset": 0,
        "slot": "104",
        "type": "t_mapping(t_address,t_uint256)"
      },
      {
        "astId": 681,
        "contract": "contracts/token/LandERC721.sol:LandERC721",
        "label": "_tokenApprovals",
        "offset": 0,
        "slot": "105",
        "type": "t_mapping(t_uint256,t_address)"
      },
      {
        "astId": 687,
        "contract": "contracts/token/LandERC721.sol:LandERC721",
        "label": "_operatorApprovals",
        "offset": 0,
        "slot": "106",
        "type": "t_mapping(t_address,t_mapping(t_address,t_bool))"
      },
      {
        "astId": 1498,
        "contract": "contracts/token/LandERC721.sol:LandERC721",
        "label": "__gap",
        "offset": 0,
        "slot": "107",
        "type": "t_array(t_uint256)44_storage"
      },
      {
        "astId": 1672,
        "contract": "contracts/token/LandERC721.sol:LandERC721",
        "label": "_ownedTokens",
        "offset": 0,
        "slot": "151",
        "type": "t_mapping(t_address,t_mapping(t_uint256,t_uint256))"
      },
      {
        "astId": 1676,
        "contract": "contracts/token/LandERC721.sol:LandERC721",
        "label": "_ownedTokensIndex",
        "offset": 0,
        "slot": "152",
        "type": "t_mapping(t_uint256,t_uint256)"
      },
      {
        "astId": 1679,
        "contract": "contracts/token/LandERC721.sol:LandERC721",
        "label": "_allTokens",
        "offset": 0,
        "slot": "153",
        "type": "t_array(t_uint256)dyn_storage"
      },
      {
        "astId": 1683,
        "contract": "contracts/token/LandERC721.sol:LandERC721",
        "label": "_allTokensIndex",
        "offset": 0,
        "slot": "154",
        "type": "t_mapping(t_uint256,t_uint256)"
      },
      {
        "astId": 1998,
        "contract": "contracts/token/LandERC721.sol:LandERC721",
        "label": "__gap",
        "offset": 0,
        "slot": "155",
        "type": "t_array(t_uint256)46_storage"
      },
      {
        "astId": 2036,
        "contract": "contracts/token/LandERC721.sol:LandERC721",
        "label": "_tokenURIs",
        "offset": 0,
        "slot": "201",
        "type": "t_mapping(t_uint256,t_string_storage)"
      },
      {
        "astId": 2154,
        "contract": "contracts/token/LandERC721.sol:LandERC721",
        "label": "__gap",
        "offset": 0,
        "slot": "202",
        "type": "t_array(t_uint256)49_storage"
      },
      {
        "astId": 442,
        "contract": "contracts/token/LandERC721.sol:LandERC721",
        "label": "__gap",
        "offset": 0,
        "slot": "251",
        "type": "t_array(t_uint256)50_storage"
      },
      {
        "astId": 637,
        "contract": "contracts/token/LandERC721.sol:LandERC721",
        "label": "__gap",
        "offset": 0,
        "slot": "301",
        "type": "t_array(t_uint256)50_storage"
      },
      {
        "astId": 14055,
        "contract": "contracts/token/LandERC721.sol:LandERC721",
        "label": "userRoles",
        "offset": 0,
        "slot": "351",
        "type": "t_mapping(t_address,t_uint256)"
      },
      {
        "astId": 14060,
        "contract": "contracts/token/LandERC721.sol:LandERC721",
        "label": "__gap",
        "offset": 0,
        "slot": "352",
        "type": "t_array(t_uint256)49_storage"
      },
      {
        "astId": 13337,
        "contract": "contracts/token/LandERC721.sol:LandERC721",
        "label": "baseURI",
        "offset": 0,
        "slot": "401",
        "type": "t_string_storage"
      },
      {
        "astId": 13342,
        "contract": "contracts/token/LandERC721.sol:LandERC721",
        "label": "__gap",
        "offset": 0,
        "slot": "402",
        "type": "t_array(t_uint256)49_storage"
      },
      {
        "astId": 13085,
        "contract": "contracts/token/LandERC721.sol:LandERC721",
        "label": "owner",
        "offset": 0,
        "slot": "451",
        "type": "t_address"
      },
      {
        "astId": 13088,
        "contract": "contracts/token/LandERC721.sol:LandERC721",
        "label": "royaltyReceiver",
        "offset": 0,
        "slot": "452",
        "type": "t_address"
      },
      {
        "astId": 13091,
        "contract": "contracts/token/LandERC721.sol:LandERC721",
        "label": "royaltyPercentage",
        "offset": 20,
        "slot": "452",
        "type": "t_uint16"
      },
      {
        "astId": 13094,
        "contract": "contracts/token/LandERC721.sol:LandERC721",
        "label": "contractURI",
        "offset": 0,
        "slot": "453",
        "type": "t_string_storage"
      },
      {
        "astId": 13099,
        "contract": "contracts/token/LandERC721.sol:LandERC721",
        "label": "__gap",
        "offset": 0,
        "slot": "454",
        "type": "t_array(t_uint256)47_storage"
      },
      {
        "astId": 12614,
        "contract": "contracts/token/LandERC721.sol:LandERC721",
        "label": "landDescriptor",
        "offset": 0,
        "slot": "501",
        "type": "t_address"
      },
      {
        "astId": 12620,
        "contract": "contracts/token/LandERC721.sol:LandERC721",
        "label": "plots",
        "offset": 0,
        "slot": "502",
        "type": "t_mapping(t_uint256,t_struct(PlotStore)6993_storage)"
      },
      {
        "astId": 12625,
        "contract": "contracts/token/LandERC721.sol:LandERC721",
        "label": "plotLocations",
        "offset": 0,
        "slot": "503",
        "type": "t_mapping(t_uint256,t_uint256)"
      },
      {
        "astId": 12630,
        "contract": "contracts/token/LandERC721.sol:LandERC721",
        "label": "__gap",
        "offset": 0,
        "slot": "504",
        "type": "t_array(t_uint256)47_storage"
      }
    ],
    "types": {
      "t_address": {
        "encoding": "inplace",
        "label": "address",
        "numberOfBytes": "20"
      },
      "t_array(t_uint256)44_storage": {
        "base": "t_uint256",
        "encoding": "inplace",
        "label": "uint256[44]",
        "numberOfBytes": "1408"
      },
      "t_array(t_uint256)46_storage": {
        "base": "t_uint256",
        "encoding": "inplace",
        "label": "uint256[46]",
        "numberOfBytes": "1472"
      },
      "t_array(t_uint256)47_storage": {
        "base": "t_uint256",
        "encoding": "inplace",
        "label": "uint256[47]",
        "numberOfBytes": "1504"
      },
      "t_array(t_uint256)49_storage": {
        "base": "t_uint256",
        "encoding": "inplace",
        "label": "uint256[49]",
        "numberOfBytes": "1568"
      },
      "t_array(t_uint256)50_storage": {
        "base": "t_uint256",
        "encoding": "inplace",
        "label": "uint256[50]",
        "numberOfBytes": "1600"
      },
      "t_array(t_uint256)dyn_storage": {
        "base": "t_uint256",
        "encoding": "dynamic_array",
        "label": "uint256[]",
        "numberOfBytes": "32"
      },
      "t_bool": {
        "encoding": "inplace",
        "label": "bool",
        "numberOfBytes": "1"
      },
      "t_mapping(t_address,t_bool)": {
        "encoding": "mapping",
        "key": "t_address",
        "label": "mapping(address => bool)",
        "numberOfBytes": "32",
        "value": "t_bool"
      },
      "t_mapping(t_address,t_mapping(t_address,t_bool))": {
        "encoding": "mapping",
        "key": "t_address",
        "label": "mapping(address => mapping(address => bool))",
        "numberOfBytes": "32",
        "value": "t_mapping(t_address,t_bool)"
      },
      "t_mapping(t_address,t_mapping(t_uint256,t_uint256))": {
        "encoding": "mapping",
        "key": "t_address",
        "label": "mapping(address => mapping(uint256 => uint256))",
        "numberOfBytes": "32",
        "value": "t_mapping(t_uint256,t_uint256)"
      },
      "t_mapping(t_address,t_uint256)": {
        "encoding": "mapping",
        "key": "t_address",
        "label": "mapping(address => uint256)",
        "numberOfBytes": "32",
        "value": "t_uint256"
      },
      "t_mapping(t_uint256,t_address)": {
        "encoding": "mapping",
        "key": "t_uint256",
        "label": "mapping(uint256 => address)",
        "numberOfBytes": "32",
        "value": "t_address"
      },
      "t_mapping(t_uint256,t_string_storage)": {
        "encoding": "mapping",
        "key": "t_uint256",
        "label": "mapping(uint256 => string)",
        "numberOfBytes": "32",
        "value": "t_string_storage"
      },
      "t_mapping(t_uint256,t_struct(PlotStore)6993_storage)": {
        "encoding": "mapping",
        "key": "t_uint256",
        "label": "mapping(uint256 => struct LandLib.PlotStore)",
        "numberOfBytes": "32",
        "value": "t_struct(PlotStore)6993_storage"
      },
      "t_mapping(t_uint256,t_uint256)": {
        "encoding": "mapping",
        "key": "t_uint256",
        "label": "mapping(uint256 => uint256)",
        "numberOfBytes": "32",
        "value": "t_uint256"
      },
      "t_string_storage": {
        "encoding": "bytes",
        "label": "string",
        "numberOfBytes": "32"
      },
      "t_struct(PlotStore)6993_storage": {
        "encoding": "inplace",
        "label": "struct LandLib.PlotStore",
        "members": [
          {
            "astId": 6965,
            "contract": "contracts/token/LandERC721.sol:LandERC721",
            "label": "version",
            "offset": 0,
            "slot": "0",
            "type": "t_uint8"
          },
          {
            "astId": 6968,
            "contract": "contracts/token/LandERC721.sol:LandERC721",
            "label": "regionId",
            "offset": 1,
            "slot": "0",
            "type": "t_uint8"
          },
          {
            "astId": 6971,
            "contract": "contracts/token/LandERC721.sol:LandERC721",
            "label": "x",
            "offset": 2,
            "slot": "0",
            "type": "t_uint16"
          },
          {
            "astId": 6974,
            "contract": "contracts/token/LandERC721.sol:LandERC721",
            "label": "y",
            "offset": 4,
            "slot": "0",
            "type": "t_uint16"
          },
          {
            "astId": 6977,
            "contract": "contracts/token/LandERC721.sol:LandERC721",
            "label": "tierId",
            "offset": 6,
            "slot": "0",
            "type": "t_uint8"
          },
          {
            "astId": 6980,
            "contract": "contracts/token/LandERC721.sol:LandERC721",
            "label": "size",
            "offset": 7,
            "slot": "0",
            "type": "t_uint16"
          },
          {
            "astId": 6983,
            "contract": "contracts/token/LandERC721.sol:LandERC721",
            "label": "landmarkTypeId",
            "offset": 9,
            "slot": "0",
            "type": "t_uint8"
          },
          {
            "astId": 6986,
            "contract": "contracts/token/LandERC721.sol:LandERC721",
            "label": "elementSites",
            "offset": 10,
            "slot": "0",
            "type": "t_uint8"
          },
          {
            "astId": 6989,
            "contract": "contracts/token/LandERC721.sol:LandERC721",
            "label": "fuelSites",
            "offset": 11,
            "slot": "0",
            "type": "t_uint8"
          },
          {
            "astId": 6992,
            "contract": "contracts/token/LandERC721.sol:LandERC721",
            "label": "seed",
            "offset": 12,
            "slot": "0",
            "type": "t_uint160"
          }
        ],
        "numberOfBytes": "32"
      },
      "t_uint16": {
        "encoding": "inplace",
        "label": "uint16",
        "numberOfBytes": "2"
      },
      "t_uint160": {
        "encoding": "inplace",
        "label": "uint160",
        "numberOfBytes": "20"
      },
      "t_uint256": {
        "encoding": "inplace",
        "label": "uint256",
        "numberOfBytes": "32"
      },
      "t_uint8": {
        "encoding": "inplace",
        "label": "uint8",
        "numberOfBytes": "1"
      }
    }
  }
}