{
  "address": "0x0FFbf75280Aa48AE5503e1FBAa4677AA37050150",
  "abi": [
    {
      "inputs": [
        {
          "internalType": "string",
          "name": "_name",
          "type": "string"
        },
        {
          "internalType": "string",
          "name": "_symbol",
          "type": "string"
        }
      ],
      "stateMutability": "nonpayable",
      "type": "constructor"
    },
    {
      "anonymous": false,
      "inputs": [
        {
          "indexed": true,
          "internalType": "address",
          "name": "owner",
          "type": "address"
        },
        {
          "indexed": true,
          "internalType": "address",
          "name": "spender",
          "type": "address"
        },
        {
          "indexed": false,
          "internalType": "uint256",
          "name": "value",
          "type": "uint256"
        }
      ],
      "name": "Approval",
      "type": "event"
    },
    {
      "anonymous": false,
      "inputs": [
        {
          "indexed": true,
          "internalType": "address",
          "name": "by",
          "type": "address"
        },
        {
          "indexed": true,
          "internalType": "address",
          "name": "from",
          "type": "address"
        },
        {
          "indexed": false,
          "internalType": "uint256",
          "name": "value",
          "type": "uint256"
        }
      ],
      "name": "Burnt",
      "type": "event"
    },
    {
      "anonymous": false,
      "inputs": [
        {
          "indexed": true,
          "internalType": "address",
          "name": "by",
          "type": "address"
        },
        {
          "indexed": true,
          "internalType": "address",
          "name": "to",
          "type": "address"
        },
        {
          "indexed": false,
          "internalType": "uint256",
          "name": "value",
          "type": "uint256"
        }
      ],
      "name": "Minted",
      "type": "event"
    },
    {
      "anonymous": false,
      "inputs": [
        {
          "indexed": true,
          "internalType": "address",
          "name": "_by",
          "type": "address"
        },
        {
          "indexed": true,
          "internalType": "address",
          "name": "_to",
          "type": "address"
        },
        {
          "indexed": false,
          "internalType": "uint256",
          "name": "_requested",
          "type": "uint256"
        },
        {
          "indexed": false,
          "internalType": "uint256",
          "name": "_actual",
          "type": "uint256"
        }
      ],
      "name": "RoleUpdated",
      "type": "event"
    },
    {
      "anonymous": false,
      "inputs": [
        {
          "indexed": true,
          "internalType": "address",
          "name": "from",
          "type": "address"
        },
        {
          "indexed": true,
          "internalType": "address",
          "name": "to",
          "type": "address"
        },
        {
          "indexed": false,
          "internalType": "uint256",
          "name": "value",
          "type": "uint256"
        }
      ],
      "name": "Transfer",
      "type": "event"
    },
    {
      "inputs": [],
      "name": "FEATURE_BURNS_ON_BEHALF",
      "outputs": [
        {
          "internalType": "uint32",
          "name": "",
          "type": "uint32"
        }
      ],
      "stateMutability": "view",
      "type": "function"
    },
    {
      "inputs": [],
      "name": "FEATURE_OWN_BURNS",
      "outputs": [
        {
          "internalType": "uint32",
          "name": "",
          "type": "uint32"
        }
      ],
      "stateMutability": "view",
      "type": "function"
    },
    {
      "inputs": [],
      "name": "FEATURE_TRANSFERS",
      "outputs": [
        {
          "internalType": "uint32",
          "name": "",
          "type": "uint32"
        }
      ],
      "stateMutability": "view",
      "type": "function"
    },
    {
      "inputs": [],
      "name": "FEATURE_TRANSFERS_ON_BEHALF",
      "outputs": [
        {
          "internalType": "uint32",
          "name": "",
          "type": "uint32"
        }
      ],
      "stateMutability": "view",
      "type": "function"
    },
    {
      "inputs": [],
      "name": "ROLE_ACCESS_MANAGER",
      "outputs": [
        {
          "internalType": "uint256",
          "name": "",
          "type": "uint256"
        }
      ],
      "stateMutability": "view",
      "type": "function"
    },
    {
      "inputs": [],
      "name": "ROLE_TOKEN_CREATOR",
      "outputs": [
        {
          "internalType": "uint32",
          "name": "",
          "type": "uint32"
        }
      ],
      "stateMutability": "view",
      "type": "function"
    },
    {
      "inputs": [],
      "name": "ROLE_TOKEN_DESTROYER",
      "outputs": [
        {
          "internalType": "uint32",
          "name": "",
          "type": "uint32"
        }
      ],
      "stateMutability": "view",
      "type": "function"
    },
    {
      "inputs": [],
      "name": "TOKEN_UID",
      "outputs": [
        {
          "internalType": "uint256",
          "name": "",
          "type": "uint256"
        }
      ],
      "stateMutability": "view",
      "type": "function"
    },
    {
      "inputs": [
        {
          "internalType": "address",
          "name": "owner",
          "type": "address"
        },
        {
          "internalType": "address",
          "name": "spender",
          "type": "address"
        }
      ],
      "name": "allowance",
      "outputs": [
        {
          "internalType": "uint256",
          "name": "",
          "type": "uint256"
        }
      ],
      "stateMutability": "view",
      "type": "function"
    },
    {
      "inputs": [
        {
          "internalType": "address",
          "name": "spender",
          "type": "address"
        },
        {
          "internalType": "uint256",
          "name": "amount",
          "type": "uint256"
        }
      ],
      "name": "approve",
      "outputs": [
        {
          "internalType": "bool",
          "name": "",
          "type": "bool"
        }
      ],
      "stateMutability": "nonpayable",
      "type": "function"
    },
    {
      "inputs": [
        {
          "internalType": "address",
          "name": "owner",
          "type": "address"
        },
        {
          "internalType": "address",
          "name": "spender",
          "type": "address"
        },
        {
          "internalType": "uint256",
          "name": "value",
          "type": "uint256"
        }
      ],
      "name": "approveInternal",
      "outputs": [],
      "stateMutability": "nonpayable",
      "type": "function"
    },
    {
      "inputs": [
        {
          "internalType": "address",
          "name": "account",
          "type": "address"
        }
      ],
      "name": "balanceOf",
      "outputs": [
        {
          "internalType": "uint256",
          "name": "",
          "type": "uint256"
        }
      ],
      "stateMutability": "view",
      "type": "function"
    },
    {
      "inputs": [
        {
          "internalType": "address",
          "name": "_from",
          "type": "address"
        },
        {
          "internalType": "uint256",
          "name": "_value",
          "type": "uint256"
        }
      ],
      "name": "burn",
      "outputs": [],
      "stateMutability": "nonpayable",
      "type": "function"
    },
    {
      "inputs": [],
      "name": "decimals",
      "outputs": [
        {
          "internalType": "uint8",
          "name": "",
          "type": "uint8"
        }
      ],
      "stateMutability": "view",
      "type": "function"
    },
    {
      "inputs": [
        {
          "internalType": "address",
          "name": "spender",
          "type": "address"
        },
        {
          "internalType": "uint256",
          "name": "subtractedValue",
          "type": "uint256"
        }
      ],
      "name": "decreaseAllowance",
      "outputs": [
        {
          "internalType": "bool",
          "name": "",
          "type": "bool"
        }
      ],
      "stateMutability": "nonpayable",
      "type": "function"
    },
    {
      "inputs": [
        {
          "internalType": "address",
          "name": "operator",
          "type": "address"
        },
        {
          "internalType": "uint256",
          "name": "target",
          "type": "uint256"
        },
        {
          "internalType": "uint256",
          "name": "desired",
          "type": "uint256"
        }
      ],
      "name": "evaluateBy",
      "outputs": [
        {
          "internalType": "uint256",
          "name": "",
          "type": "uint256"
        }
      ],
      "stateMutability": "view",
      "type": "function"
    },
    {
      "inputs": [],
      "name": "features",
      "outputs": [
        {
          "internalType": "uint256",
          "name": "",
          "type": "uint256"
        }
      ],
      "stateMutability": "view",
      "type": "function"
    },
    {
      "inputs": [
        {
          "internalType": "address",
          "name": "spender",
          "type": "address"
        },
        {
          "internalType": "uint256",
          "name": "addedValue",
          "type": "uint256"
        }
      ],
      "name": "increaseAllowance",
      "outputs": [
        {
          "internalType": "bool",
          "name": "",
          "type": "bool"
        }
      ],
      "stateMutability": "nonpayable",
      "type": "function"
    },
    {
      "inputs": [
        {
          "internalType": "uint256",
          "name": "required",
          "type": "uint256"
        }
      ],
      "name": "isFeatureEnabled",
      "outputs": [
        {
          "internalType": "bool",
          "name": "",
          "type": "bool"
        }
      ],
      "stateMutability": "view",
      "type": "function"
    },
    {
      "inputs": [
        {
          "internalType": "address",
          "name": "operator",
          "type": "address"
        },
        {
          "internalType": "uint256",
          "name": "required",
          "type": "uint256"
        }
      ],
      "name": "isOperatorInRole",
      "outputs": [
        {
          "internalType": "bool",
          "name": "",
          "type": "bool"
        }
      ],
      "stateMutability": "view",
      "type": "function"
    },
    {
      "inputs": [
        {
          "internalType": "uint256",
          "name": "required",
          "type": "uint256"
        }
      ],
      "name": "isSenderInRole",
      "outputs": [
        {
          "internalType": "bool",
          "name": "",
          "type": "bool"
        }
      ],
      "stateMutability": "view",
      "type": "function"
    },
    {
      "inputs": [
        {
          "internalType": "address",
          "name": "_to",
          "type": "address"
        },
        {
          "internalType": "uint256",
          "name": "_value",
          "type": "uint256"
        }
      ],
      "name": "mint",
      "outputs": [],
      "stateMutability": "nonpayable",
      "type": "function"
    },
    {
      "inputs": [],
      "name": "name",
      "outputs": [
        {
          "internalType": "string",
          "name": "",
          "type": "string"
        }
      ],
      "stateMutability": "view",
      "type": "function"
    },
    {
      "inputs": [],
      "name": "removeBalanceOfOverride",
      "outputs": [],
      "stateMutability": "nonpayable",
      "type": "function"
    },
    {
      "inputs": [],
      "name": "removeTransferFromSuccessOverride",
      "outputs": [],
      "stateMutability": "nonpayable",
      "type": "function"
    },
    {
      "inputs": [],
      "name": "removeTransferSuccessOverride",
      "outputs": [],
      "stateMutability": "nonpayable",
      "type": "function"
    },
    {
      "inputs": [
        {
          "internalType": "uint256",
          "name": "_value",
          "type": "uint256"
        }
      ],
      "name": "setBalanceOfOverride",
      "outputs": [],
      "stateMutability": "nonpayable",
      "type": "function"
    },
    {
      "inputs": [
        {
          "internalType": "bool",
          "name": "_value",
          "type": "bool"
        }
      ],
      "name": "setTransferFromSuccessOverride",
      "outputs": [],
      "stateMutability": "nonpayable",
      "type": "function"
    },
    {
      "inputs": [
        {
          "internalType": "bool",
          "name": "_value",
          "type": "bool"
        }
      ],
      "name": "setTransferSuccessOverride",
      "outputs": [],
      "stateMutability": "nonpayable",
      "type": "function"
    },
    {
      "inputs": [
        {
          "internalType": "uint256",
          "name": "_uid",
          "type": "uint256"
        }
      ],
      "name": "setUid",
      "outputs": [],
      "stateMutability": "nonpayable",
      "type": "function"
    },
    {
      "inputs": [
        {
          "internalType": "bytes4",
          "name": "interfaceId",
          "type": "bytes4"
        }
      ],
      "name": "supportsInterface",
      "outputs": [
        {
          "internalType": "bool",
          "name": "",
          "type": "bool"
        }
      ],
      "stateMutability": "view",
      "type": "function"
    },
    {
      "inputs": [],
      "name": "symbol",
      "outputs": [
        {
          "internalType": "string",
          "name": "",
          "type": "string"
        }
      ],
      "stateMutability": "view",
      "type": "function"
    },
    {
      "inputs": [],
      "name": "totalSupply",
      "outputs": [
        {
          "internalType": "uint256",
          "name": "",
          "type": "uint256"
        }
      ],
      "stateMutability": "view",
      "type": "function"
    },
    {
      "inputs": [
        {
          "internalType": "address",
          "name": "recipient",
          "type": "address"
        },
        {
          "internalType": "uint256",
          "name": "amount",
          "type": "uint256"
        }
      ],
      "name": "transfer",
      "outputs": [
        {
          "internalType": "bool",
          "name": "",
          "type": "bool"
        }
      ],
      "stateMutability": "nonpayable",
      "type": "function"
    },
    {
      "inputs": [
        {
          "internalType": "address",
          "name": "sender",
          "type": "address"
        },
        {
          "internalType": "address",
          "name": "recipient",
          "type": "address"
        },
        {
          "internalType": "uint256",
          "name": "amount",
          "type": "uint256"
        }
      ],
      "name": "transferFrom",
      "outputs": [
        {
          "internalType": "bool",
          "name": "",
          "type": "bool"
        }
      ],
      "stateMutability": "nonpayable",
      "type": "function"
    },
    {
      "inputs": [
        {
          "internalType": "address",
          "name": "from",
          "type": "address"
        },
        {
          "internalType": "address",
          "name": "to",
          "type": "address"
        },
        {
          "internalType": "uint256",
          "name": "value",
          "type": "uint256"
        }
      ],
      "name": "transferInternal",
      "outputs": [],
      "stateMutability": "nonpayable",
      "type": "function"
    },
    {
      "inputs": [
        {
          "internalType": "uint256",
          "name": "_mask",
          "type": "uint256"
        }
      ],
      "name": "updateFeatures",
      "outputs": [],
      "stateMutability": "nonpayable",
      "type": "function"
    },
    {
      "inputs": [
        {
          "internalType": "address",
          "name": "operator",
          "type": "address"
        },
        {
          "internalType": "uint256",
          "name": "role",
          "type": "uint256"
        }
      ],
      "name": "updateRole",
      "outputs": [],
      "stateMutability": "nonpayable",
      "type": "function"
    },
    {
      "inputs": [
        {
          "internalType": "address",
          "name": "",
          "type": "address"
        }
      ],
      "name": "userRoles",
      "outputs": [
        {
          "internalType": "uint256",
          "name": "",
          "type": "uint256"
        }
      ],
      "stateMutability": "view",
      "type": "function"
    }
  ],
  "transactionHash": "0xcf956ffca468f73df01da9fc887ec07e3c16ea431e3ba9af59c9901cfcd85bd1",
  "args": [
    "sILV",
    "Escrowed Illuvium"
  ],
  "solcInputHash": "9d6e8d2e4100139d55c1b5df861e25cd",
  "bytecode": "0x60806040527f9246211c0c1c75405f68424667596bc7067a6af2d90b20a6a844de948a22de336006553480156200003557600080fd5b506040516200184838038062001848833981016040819052620000589162000265565b8181338282816003908051906020019062000075929190620000f2565b5080516200008b906004906020840190620000f2565b5050506001600160a01b0381166000818152600560209081526040918290206000199081905582518181529182015233917f5a10526456f5116c0b7b80582c217d666243fd51b6a2d92c8011e601c2462e5f910160405180910390a350505050506200030c565b8280546200010090620002cf565b90600052602060002090601f0160209004810192826200012457600085556200016f565b82601f106200013f57805160ff19168380011785556200016f565b828001600101855582156200016f579182015b828111156200016f57825182559160200191906001019062000152565b506200017d92915062000181565b5090565b5b808211156200017d576000815560010162000182565b634e487b7160e01b600052604160045260246000fd5b600082601f830112620001c057600080fd5b81516001600160401b0380821115620001dd57620001dd62000198565b604051601f8301601f19908116603f0116810190828211818310171562000208576200020862000198565b816040528381526020925086838588010111156200022557600080fd5b600091505b838210156200024957858201830151818301840152908201906200022a565b838211156200025b5760008385830101525b9695505050505050565b600080604083850312156200027957600080fd5b82516001600160401b03808211156200029157600080fd5b6200029f86838701620001ae565b93506020850151915080821115620002b657600080fd5b50620002c585828601620001ae565b9150509250929050565b600181811c90821680620002e457607f821691505b602082108114156200030657634e487b7160e01b600052602260045260246000fd5b50919050565b61152c806200031c6000396000f3fe608060405234801561001057600080fd5b506004361061023d5760003560e01c80638f6fba8c1161013b578063c421c91c116100b8578063e680e3ab1161007c578063e680e3ab146104f5578063e8fa6d8814610526578063f63c2f8214610535578063f822d5aa1461053d578063fcc2c0781461055057600080fd5b8063c421c91c14610461578063c688d6931461048c578063d5bb7f671461049f578063dd62ed3e146104b2578063e62cac76146104eb57600080fd5b8063ae5b102e116100ff578063ae5b102e1461040c578063ae682e2e1461041f578063b77346341461042a578063be2b5dff14610439578063c0d6568d1461045957600080fd5b80638f6fba8c146103c357806395d89b41146103cb5780639dc29fac146103d3578063a457c2d7146103e6578063a9059cbb146103f957600080fd5b8063313ce567116101c957806370a082311161018d57806370a082311461036a578063725f36261461037d57806374d5e100146103905780638a114e13146103b05780638d4e57e6146103b957600080fd5b8063313ce5671461030f578063395093511461031e57806340c10f191461033157806353826f6f1461034457806356189cb41461035757600080fd5b806318160ddd1161021057806318160ddd146102a55780631a0b04ea146102b7578063222f5be0146102d457806323b872dd146102e75780632b521416146102fa57600080fd5b806301ffc9a71461024257806306fdde031461026a578063095ea7b31461027f5780630ba7184f14610292575b600080fd5b6102556102503660046112b9565b610563565b60405190151581526020015b60405180910390f35b61027261059a565b60405161026191906112e3565b61025561028d366004611354565b61062c565b6102a36009805462ff000019169055565b005b6002545b604051908152602001610261565b6102bf600881565b60405163ffffffff9091168152602001610261565b6102a36102e236600461137e565b610642565b6102556102f536600461137e565b610652565b306000908152600560205260409020546102a9565b60405160128152602001610261565b61025561032c366004611354565b6106af565b6102a361033f366004611354565b6106eb565b6102a36103523660046113ba565b600655565b6102a361036536600461137e565b6106f9565b6102a96103783660046113d3565b610704565b61025561038b3660046113ba565b610737565b6102a961039e3660046113d3565b60056020526000908152604090205481565b6102a960065481565b6102bf6201000081565b6102bf600281565b610272610750565b6102a36103e1366004611354565b61075f565b6102556103f4366004611354565b610933565b610255610407366004611354565b6109cc565b6102a361041a366004611354565b610a00565b6102a9600160ff1b81565b6102a36007805460ff19169055565b6102a36104473660046113ba565b6007805460ff19166001179055600855565b6102bf600181565b6102a361046f3660046113ee565b600980549115156101000261ffff19909216919091176001179055565b61025561049a366004611354565b610ac7565b6102a36104ad3660046113ba565b610ae9565b6102a96104c0366004611410565b6001600160a01b03918216600090815260016020908152604080832093909416825291909152205490565b6102bf6202000081565b6102a36105033660046113ee565b6009805491151563010000000263ffff0000199092169190911762010000179055565b6102a36009805460ff19169055565b6102bf601081565b6102a961054b366004611443565b610af6565b61025561055e3660046113ba565b610b21565b60006001600160e01b031982166301ffc9a760e01b148061059457506001600160e01b031982166336372b0760e01b145b92915050565b6060600380546105a990611476565b80601f01602080910402602001604051908101604052809291908181526020018280546105d590611476565b80156106225780601f106105f757610100808354040283529160200191610622565b820191906000526020600020905b81548152906001019060200180831161060557829003601f168201915b5050505050905090565b6000610639338484610b2d565b50600192915050565b61064d838383610c51565b505050565b600080610660858585610e2b565b60095490915062010000900460ff16156106885750506009546301000000900460ff166106a8565b60095460ff16156106a5575050600954610100900460ff166106a8565b90505b9392505050565b3360008181526001602090815260408083206001600160a01b038716845290915281205490916106399185906106e69086906114c7565b610b2d565b6106f58282610ed5565b5050565b61064d838383610b2d565b60075460009060ff1661072f576001600160a01b038216600090815260208190526040902054610594565b505060085490565b3060009081526005602052604081205482168214610594565b6060600480546105a990611476565b61076b62020000610b21565b6108e4576001600160a01b0382163314801561078c575061078c6008610737565b806107b057506001600160a01b03821633148015906107b057506107b06010610737565b6001600160a01b03831633146107fb576040518060400160405280601c81526020017f6275726e73206f6e20626568616c66206172652064697361626c656400000000815250610827565b60405180604001604052806012815260200171189d5c9b9cc8185c9948191a5cd8589b195960721b8152505b9061084e5760405162461bcd60e51b815260040161084591906112e3565b60405180910390fd5b506001600160a01b03821633146108e4576001600160a01b0382166000908152600160209081526040808320338452909152902054818110156108d35760405162461bcd60e51b815260206004820152601d60248201527f6275726e20616d6f756e74206578636565647320616c6c6f77616e63650000006044820152606401610845565b6108e283336106e685856114df565b505b6108ee8282610f64565b6040518181526001600160a01b0383169033907fe8a89cc6e5096f9d9f43de82c077c1f4cfe707c0e0c2032176c68813b9ae6a5c906020015b60405180910390a35050565b3360009081526001602090815260408083206001600160a01b0386168452909152812054828110156109b55760405162461bcd60e51b815260206004820152602560248201527f45524332303a2064656372656173656420616c6c6f77616e63652062656c6f77604482015264207a65726f60d81b6064820152608401610845565b6109c23385858403610b2d565b5060019392505050565b6000806109d984846110be565b60095490915060ff166109ec57806109f8565b600954610100900460ff165b949350505050565b610a0d600160ff1b610b21565b610a495760405162461bcd60e51b815260206004820152600d60248201526c1858d8d95cdcc819195b9a5959609a1b6044820152606401610845565b6001600160a01b038216600090815260056020526040902054610a6e90339083610af6565b6001600160a01b0383166000818152600560205260409081902083905551909133917f5a10526456f5116c0b7b80582c217d666243fd51b6a2d92c8011e601c2462e5f9161092791869190918252602082015260400190565b6001600160a01b038216600090815260056020526040812054821682146106a8565b610af33082610a00565b50565b6001600160a01b03929092166000908152600560205260409020546000198084188216189216171690565b60006105943383610ac7565b6001600160a01b038316610b8f5760405162461bcd60e51b8152602060048201526024808201527f45524332303a20617070726f76652066726f6d20746865207a65726f206164646044820152637265737360e01b6064820152608401610845565b6001600160a01b038216610bf05760405162461bcd60e51b815260206004820152602260248201527f45524332303a20617070726f766520746f20746865207a65726f206164647265604482015261737360f01b6064820152608401610845565b6001600160a01b0383811660008181526001602090815260408083209487168084529482529182902085905590518481527f8c5be1e5ebec7d5bd14f71427d1e84f3dd0314c0f7b2291e5b200ac8c7c3b925910160405180910390a3505050565b6001600160a01b038316610cb55760405162461bcd60e51b815260206004820152602560248201527f45524332303a207472616e736665722066726f6d20746865207a65726f206164604482015264647265737360d81b6064820152608401610845565b6001600160a01b038216610d175760405162461bcd60e51b815260206004820152602360248201527f45524332303a207472616e7366657220746f20746865207a65726f206164647260448201526265737360e81b6064820152608401610845565b610d228383836110cb565b6001600160a01b03831660009081526020819052604090205481811015610d9a5760405162461bcd60e51b815260206004820152602660248201527f45524332303a207472616e7366657220616d6f756e7420657863656564732062604482015265616c616e636560d01b6064820152608401610845565b6001600160a01b03808516600090815260208190526040808220858503905591851681529081208054849290610dd19084906114c7565b92505081905550826001600160a01b0316846001600160a01b03167fddf252ad1be2c89b69c2b068fc378daa952ba7f163c4a11628f55a4df523b3ef84604051610e1d91815260200190565b60405180910390a350505050565b6000610e38848484610c51565b6001600160a01b038416600090815260016020908152604080832033845290915290205482811015610ebd5760405162461bcd60e51b815260206004820152602860248201527f45524332303a207472616e7366657220616d6f756e74206578636565647320616044820152676c6c6f77616e636560c01b6064820152608401610845565b610eca8533858403610b2d565b506001949350505050565b610ee162010000610b21565b610f1d5760405162461bcd60e51b815260206004820152600d60248201526c1858d8d95cdcc819195b9a5959609a1b6044820152606401610845565b610f2782826111ce565b6040518181526001600160a01b0383169033907f9d228d69b5fdb8d273a2336f8fb8612d039631024ea9bf09c424a9503aa078f090602001610927565b6001600160a01b038216610fc45760405162461bcd60e51b815260206004820152602160248201527f45524332303a206275726e2066726f6d20746865207a65726f206164647265736044820152607360f81b6064820152608401610845565b610fd0826000836110cb565b6001600160a01b038216600090815260208190526040902054818110156110445760405162461bcd60e51b815260206004820152602260248201527f45524332303a206275726e20616d6f756e7420657863656564732062616c616e604482015261636560f01b6064820152608401610845565b6001600160a01b03831660009081526020819052604081208383039055600280548492906110739084906114df565b90915550506040518281526000906001600160a01b038516907fddf252ad1be2c89b69c2b068fc378daa952ba7f163c4a11628f55a4df523b3ef9060200160405180910390a3505050565b6000610639338484610c51565b6001600160a01b03831615806110e857506001600160a01b038216155b8061110b57506001600160a01b0383163314801561110b575061110b6001610737565b8061112f57506001600160a01b038316331480159061112f575061112f6002610737565b6001600160a01b038416331461117a576040518060400160405280602081526020017f7472616e7366657273206f6e20626568616c66206172652064697361626c65648152506111aa565b604051806040016040528060168152602001751d1c985b9cd9995c9cc8185c9948191a5cd8589b195960521b8152505b906111c85760405162461bcd60e51b815260040161084591906112e3565b50505050565b6001600160a01b0382166112245760405162461bcd60e51b815260206004820152601f60248201527f45524332303a206d696e7420746f20746865207a65726f2061646472657373006044820152606401610845565b611230600083836110cb565b806002600082825461124291906114c7565b90915550506001600160a01b0382166000908152602081905260408120805483929061126f9084906114c7565b90915550506040518181526001600160a01b038316906000907fddf252ad1be2c89b69c2b068fc378daa952ba7f163c4a11628f55a4df523b3ef9060200160405180910390a35050565b6000602082840312156112cb57600080fd5b81356001600160e01b0319811681146106a857600080fd5b600060208083528351808285015260005b81811015611310578581018301518582016040015282016112f4565b81811115611322576000604083870101525b50601f01601f1916929092016040019392505050565b80356001600160a01b038116811461134f57600080fd5b919050565b6000806040838503121561136757600080fd5b61137083611338565b946020939093013593505050565b60008060006060848603121561139357600080fd5b61139c84611338565b92506113aa60208501611338565b9150604084013590509250925092565b6000602082840312156113cc57600080fd5b5035919050565b6000602082840312156113e557600080fd5b6106a882611338565b60006020828403121561140057600080fd5b813580151581146106a857600080fd5b6000806040838503121561142357600080fd5b61142c83611338565b915061143a60208401611338565b90509250929050565b60008060006060848603121561145857600080fd5b61146184611338565b95602085013595506040909401359392505050565b600181811c9082168061148a57607f821691505b602082108114156114ab57634e487b7160e01b600052602260045260246000fd5b50919050565b634e487b7160e01b600052601160045260246000fd5b600082198211156114da576114da6114b1565b500190565b6000828210156114f1576114f16114b1565b50039056fea26469706673582212207cbd3bb199775f6bd3a15a3c5ca6075e78ab2134e9b03fdde1e5fdb75932786c64736f6c634300080b0033",
  "devdoc": {
    "author": "Basil Gorin",
    "kind": "dev",
    "methods": {
      "allowance(address,address)": {
        "details": "See {IERC20-allowance}."
      },
      "approve(address,uint256)": {
        "details": "See {IERC20-approve}. Requirements: - `spender` cannot be the zero address."
      },
      "balanceOf(address)": {
        "details": "See {IERC20-balanceOf}."
      },
      "burn(address,uint256)": {
        "details": "Burns (destroys) some tokens from the address specifiedThe value specified is treated as is without taking      into account what `decimals` value isRequires executor to have `ROLE_TOKEN_DESTROYER` permission      or FEATURE_OWN_BURNS/FEATURE_BURNS_ON_BEHALF features to be enabledCan be disabled by the contract creator forever by disabling      FEATURE_OWN_BURNS/FEATURE_BURNS_ON_BEHALF features and then revoking      its own roles to burn tokens and to enable burning features",
        "params": {
          "_from": "an address to burn some tokens from",
          "_value": "an amount of tokens to burn (destroy)"
        }
      },
      "constructor": {
        "details": "Creates/deploys an ERC20 Mock instance",
        "params": {
          "_name": "token name (ERC20Metadata)",
          "_symbol": "toke symbol (ERC20Metadata)"
        }
      },
      "decimals()": {
        "details": "Returns the number of decimals used to get its user representation. For example, if `decimals` equals `2`, a balance of `505` tokens should be displayed to a user as `5.05` (`505 / 10 ** 2`). Tokens usually opt for a value of 18, imitating the relationship between Ether and Wei. This is the value {ERC20} uses, unless this function is overridden; NOTE: This information is only used for _display_ purposes: it in no way affects any of the arithmetic of the contract, including {IERC20-balanceOf} and {IERC20-transfer}."
      },
      "decreaseAllowance(address,uint256)": {
        "details": "Atomically decreases the allowance granted to `spender` by the caller. This is an alternative to {approve} that can be used as a mitigation for problems described in {IERC20-approve}. Emits an {Approval} event indicating the updated allowance. Requirements: - `spender` cannot be the zero address. - `spender` must have allowance for the caller of at least `subtractedValue`."
      },
      "evaluateBy(address,uint256,uint256)": {
        "details": "Calculated based on:      1) operator's own permission set read from userRoles[operator]      2) target permission set - what is already set on the target      3) desired permission set - what do we want set target toCorner cases:      1) Operator is super admin and its permission set is `FULL_PRIVILEGES_MASK`:        `desired` bitset is returned regardless of the `target` permission set value        (what operator sets is what they get)      2) Operator with no permissions (zero bitset):        `target` bitset is returned regardless of the `desired` value        (operator has no authority and cannot modify anything)Example:      Consider an operator with the permissions bitmask     00001111      is about to modify the target permission set          01010101      Operator wants to set that permission set to          00110011      Based on their role, an operator has the permissions      to update only lowest 4 bits on the target, meaning that      high 4 bits of the target set in this example is left      unchanged and low 4 bits get changed as desired:      01010011",
        "params": {
          "desired": "desired set of permissions operator would like to set",
          "operator": "address of the contract operator which is about to set the permissions",
          "target": "input set of permissions to operator is going to modify"
        },
        "returns": {
          "_0": "resulting set of permissions given operator will set"
        }
      },
      "features()": {
        "details": "Effectively reads userRoles role for the contract itself",
        "returns": {
          "_0": "256-bit bitmask of the features enabled"
        }
      },
      "increaseAllowance(address,uint256)": {
        "details": "Atomically increases the allowance granted to `spender` by the caller. This is an alternative to {approve} that can be used as a mitigation for problems described in {IERC20-approve}. Emits an {Approval} event indicating the updated allowance. Requirements: - `spender` cannot be the zero address."
      },
      "isFeatureEnabled(uint256)": {
        "params": {
          "required": "set of features to check against"
        },
        "returns": {
          "_0": "true if all the features requested are enabled, false otherwise"
        }
      },
      "isOperatorInRole(address,uint256)": {
        "params": {
          "operator": "address of the user to check role for",
          "required": "set of permissions (role) to check"
        },
        "returns": {
          "_0": "true if all the permissions requested are enabled, false otherwise"
        }
      },
      "isSenderInRole(uint256)": {
        "params": {
          "required": "set of permissions (role) to check against"
        },
        "returns": {
          "_0": "true if all the permissions requested are enabled, false otherwise"
        }
      },
      "mint(address,uint256)": {
        "details": "Mints (creates) some tokens to address specifiedThe value specified is treated as is without taking      into account what `decimals` value isRequires executor to have `ROLE_TOKEN_CREATOR` permissionThrows on overflow, if totalSupply + _value doesn't fit into uint256",
        "params": {
          "_to": "an address to mint tokens to",
          "_value": "an amount of tokens to mint (create)"
        }
      },
      "name()": {
        "details": "Returns the name of the token."
      },
      "removeBalanceOfOverride()": {
        "details": "Removes balanceOf() override"
      },
      "removeTransferFromSuccessOverride()": {
        "details": "Removes transferFrom() override"
      },
      "removeTransferSuccessOverride()": {
        "details": "Removes transfer() and transferFrom() override"
      },
      "setBalanceOfOverride(uint256)": {
        "details": "Sets balanceOf() override"
      },
      "setTransferFromSuccessOverride(bool)": {
        "details": "Sets transferFrom() override"
      },
      "setTransferSuccessOverride(bool)": {
        "details": "Sets transfer() and transferFrom() override"
      },
      "supportsInterface(bytes4)": {
        "details": "Returns true if this contract implements the interface defined by `interfaceId`. See the corresponding https://eips.ethereum.org/EIPS/eip-165#how-interfaces-are-identified[EIP section] to learn more about how these ids are created. This function call must use less than 30 000 gas."
      },
      "symbol()": {
        "details": "Returns the symbol of the token, usually a shorter version of the name."
      },
      "totalSupply()": {
        "details": "See {IERC20-totalSupply}."
      },
      "transfer(address,uint256)": {
        "details": "See {IERC20-transfer}. Requirements: - `recipient` cannot be the zero address. - the caller must have a balance of at least `amount`."
      },
      "transferFrom(address,address,uint256)": {
        "details": "See {IERC20-transferFrom}. Emits an {Approval} event indicating the updated allowance. This is not required by the EIP. See the note at the beginning of {ERC20}. Requirements: - `sender` and `recipient` cannot be the zero address. - `sender` must have a balance of at least `amount`. - the caller must have allowance for ``sender``'s tokens of at least `amount`."
      },
      "updateFeatures(uint256)": {
        "details": "Requires transaction sender to have `ROLE_ACCESS_MANAGER` permissionFunction is left for backward compatibility with older versions",
        "params": {
          "_mask": "bitmask representing a set of features to enable/disable"
        }
      },
      "updateRole(address,uint256)": {
        "details": "Setting role to zero is equivalent to removing an all permissionsSetting role to `FULL_PRIVILEGES_MASK` is equivalent to      copying senders' permissions (role) to the userRequires transaction sender to have `ROLE_ACCESS_MANAGER` permission",
        "params": {
          "operator": "address of a user to alter permissions for or zero      to alter global features of the smart contract",
          "role": "bitmask representing a set of permissions to      enable/disable for a user specified"
        }
      }
    },
    "stateVariables": {
      "TOKEN_UID": {
        "details": "Smart contract unique identifier, a random numberShould be regenerated each time smart contact source code is changed      and changes smart contract itself is to be redeployedGenerated using https://www.random.org/bytes/Example value: 0x0bcafe95bec2350659433fc61cb9c4fbe18719da00059d525154dfe0d6e8c8fd"
      },
      "_balanceOfOverride": {
        "details": "Defines if balanceOf() return value should be overridden"
      },
      "_balanceOfValue": {
        "details": "Overrides balanceOf() return value if `_balanceOfOverride` is true"
      },
      "_transferFromSuccessOverride": {
        "details": "Defines if transferFrom() return value should be overridden"
      },
      "_transferFromSuccessValue": {
        "details": "Overrides transferFrom() return value if `_transferSuccessOverride` is true"
      },
      "_transferSuccessOverride": {
        "details": "Defines if transfer() and transferFrom() return value should be overridden"
      },
      "_transferSuccessValue": {
        "details": "Overrides transfer() and transferFrom() return value if `_transferSuccessOverride` is true"
      }
    },
    "title": "ERC20 Mock",
    "version": 1
  },
  "userdoc": {
    "kind": "user",
    "methods": {
      "FEATURE_BURNS_ON_BEHALF()": {
        "notice": "Enables approved operators to burn tokens on behalf of their owners"
      },
      "FEATURE_OWN_BURNS()": {
        "notice": "Enables token owners to burn their own tokens"
      },
      "FEATURE_TRANSFERS()": {
        "notice": "Enables ERC20 transfers of the tokens      (transfer by the token owner himself)"
      },
      "FEATURE_TRANSFERS_ON_BEHALF()": {
        "notice": "Enables ERC20 transfers on behalf      (transfer by someone else on behalf of token owner)"
      },
      "ROLE_ACCESS_MANAGER()": {
        "notice": "Access manager is responsible for assigning the roles to users,      enabling/disabling global features of the smart contractAccess manager can add, remove and update user roles,      remove and update global features"
      },
      "ROLE_TOKEN_CREATOR()": {
        "notice": "Token creator is responsible for creating (minting)      tokens to an arbitrary address"
      },
      "ROLE_TOKEN_DESTROYER()": {
        "notice": "Token destroyer is responsible for destroying (burning)      tokens owned by an arbitrary address"
      },
      "evaluateBy(address,uint256,uint256)": {
        "notice": "Determines the permission bitmask an operator can set on the      target permission setUsed to calculate the permission bitmask to be set when requested     in `updateRole` and `updateFeatures` functions"
      },
      "features()": {
        "notice": "Retrieves globally set of features enabled"
      },
      "isFeatureEnabled(uint256)": {
        "notice": "Checks if requested set of features is enabled globally on the contract"
      },
      "isOperatorInRole(address,uint256)": {
        "notice": "Checks if operator has all the permissions (role) required"
      },
      "isSenderInRole(uint256)": {
        "notice": "Checks if transaction sender `msg.sender` has all the permissions required"
      },
      "updateFeatures(uint256)": {
        "notice": "Updates set of the globally enabled features (`features`),      taking into account sender's permissions"
      },
      "updateRole(address,uint256)": {
        "notice": "Updates set of permissions (role) for a given user,      taking into account sender's permissions."
      },
      "userRoles(address)": {
        "notice": "Privileged addresses with defined roles/permissionsIn the context of ERC20/ERC721 tokens these can be permissions to      allow minting or burning tokens, transferring on behalf and so on"
      }
    },
    "notice": "Zeppelin-based ERC20 Mock simulates an ERC20 token, used for testing purposes;      it still has restricted access to the mint() function",
    "version": 1
  },
  "storageLayout": {
    "storage": [
      {
        "astId": 3303,
        "contract": "contracts/mocks/ERC20Mock.sol:ERC20Mock",
        "label": "_balances",
        "offset": 0,
        "slot": "0",
        "type": "t_mapping(t_address,t_uint256)"
      },
      {
        "astId": 3309,
        "contract": "contracts/mocks/ERC20Mock.sol:ERC20Mock",
        "label": "_allowances",
        "offset": 0,
        "slot": "1",
        "type": "t_mapping(t_address,t_mapping(t_address,t_uint256))"
      },
      {
        "astId": 3311,
        "contract": "contracts/mocks/ERC20Mock.sol:ERC20Mock",
        "label": "_totalSupply",
        "offset": 0,
        "slot": "2",
        "type": "t_uint256"
      },
      {
        "astId": 3313,
        "contract": "contracts/mocks/ERC20Mock.sol:ERC20Mock",
        "label": "_name",
        "offset": 0,
        "slot": "3",
        "type": "t_string_storage"
      },
      {
        "astId": 3315,
        "contract": "contracts/mocks/ERC20Mock.sol:ERC20Mock",
        "label": "_symbol",
        "offset": 0,
        "slot": "4",
        "type": "t_string_storage"
      },
      {
        "astId": 14145,
        "contract": "contracts/mocks/ERC20Mock.sol:ERC20Mock",
        "label": "userRoles",
        "offset": 0,
        "slot": "5",
        "type": "t_mapping(t_address,t_uint256)"
      },
      {
        "astId": 9130,
        "contract": "contracts/mocks/ERC20Mock.sol:ERC20Mock",
        "label": "TOKEN_UID",
        "offset": 0,
        "slot": "6",
        "type": "t_uint256"
      },
      {
        "astId": 9133,
        "contract": "contracts/mocks/ERC20Mock.sol:ERC20Mock",
        "label": "_balanceOfOverride",
        "offset": 0,
        "slot": "7",
        "type": "t_bool"
      },
      {
        "astId": 9136,
        "contract": "contracts/mocks/ERC20Mock.sol:ERC20Mock",
        "label": "_balanceOfValue",
        "offset": 0,
        "slot": "8",
        "type": "t_uint256"
      },
      {
        "astId": 9139,
        "contract": "contracts/mocks/ERC20Mock.sol:ERC20Mock",
        "label": "_transferSuccessOverride",
        "offset": 0,
        "slot": "9",
        "type": "t_bool"
      },
      {
        "astId": 9142,
        "contract": "contracts/mocks/ERC20Mock.sol:ERC20Mock",
        "label": "_transferSuccessValue",
        "offset": 1,
        "slot": "9",
        "type": "t_bool"
      },
      {
        "astId": 9145,
        "contract": "contracts/mocks/ERC20Mock.sol:ERC20Mock",
        "label": "_transferFromSuccessOverride",
        "offset": 2,
        "slot": "9",
        "type": "t_bool"
      },
      {
        "astId": 9148,
        "contract": "contracts/mocks/ERC20Mock.sol:ERC20Mock",
        "label": "_transferFromSuccessValue",
        "offset": 3,
        "slot": "9",
        "type": "t_bool"
      }
    ],
    "types": {
      "t_address": {
        "encoding": "inplace",
        "label": "address",
        "numberOfBytes": "20"
      },
      "t_bool": {
        "encoding": "inplace",
        "label": "bool",
        "numberOfBytes": "1"
      },
      "t_mapping(t_address,t_mapping(t_address,t_uint256))": {
        "encoding": "mapping",
        "key": "t_address",
        "label": "mapping(address => mapping(address => uint256))",
        "numberOfBytes": "32",
        "value": "t_mapping(t_address,t_uint256)"
      },
      "t_mapping(t_address,t_uint256)": {
        "encoding": "mapping",
        "key": "t_address",
        "label": "mapping(address => uint256)",
        "numberOfBytes": "32",
        "value": "t_uint256"
      },
      "t_string_storage": {
        "encoding": "bytes",
        "label": "string",
        "numberOfBytes": "32"
      },
      "t_uint256": {
        "encoding": "inplace",
        "label": "uint256",
        "numberOfBytes": "32"
      }
    }
  }
}